{
	"data": {
		"bytecode": {
			"linkReferences": {},
			"object": "608060405234801561000f575f5ffd5b506040516151c83803806151c883398101604081905261002e91610680565b8787878585858585601e61004283826107ec565b50601f61004f82826107ec565b50508451601180546001600160a01b03199081166001600160a01b03938416908117909255602088015160128054831691851691909117905560408801516013805483169185169190911790556060880151601455608088015160155560a088015160165560c088015160175560e0880151601855602180548216888516179055602580548216878516179055602280549091169285169290921790915590506101505760405162461bcd60e51b815260206004820152602760248201527f466978656420726174652070617965722063616e6e6f74206265207a65726f206044820152666164647265737360c81b60648201526084015b60405180910390fd5b60208401516001600160a01b03166101bd5760405162461bcd60e51b815260206004820152602a60248201527f466c6f6174696e6720726174652070617965722063616e6e6f74206265207a65604482015269726f206164647265737360b01b6064820152608401610147565b60408401516001600160a01b031661022a5760405162461bcd60e51b815260206004820152602a60248201527f536574746c656d656e742063757272656e63792063616e6e6f74206265207a65604482015269726f206164647265737360b01b6064820152608401610147565b5f8460a001511161028f5760405162461bcd60e51b815260206004820152602960248201527f4e6f74696f6e616c20616d6f756e74206d7573742062652067726561746572206044820152687468616e207a65726f60b81b6064820152608401610147565b8360e001518460c00151106102f95760405162461bcd60e51b815260206004820152602a60248201527f5374617274696e672064617465206d757374206265206265666f7265206d61746044820152697572697479206461746560b01b6064820152608401610147565b670de0b6b3a764000061030d8160026108ba565b601c55845161031c9082610418565b602085015161032b9082610418565b50508a5160405163e6a9f2af60e01b81526001600160a01b039182166004820152908916955063e6a9f2af94506024019250610365915050565b5f6040518083038186803b15801561037b575f5ffd5b505afa15801561038d573d5f5f3e3d5ffd5b50505050602086015160405163e6a9f2af60e01b81526001600160a01b0391821660048201529084169063e6a9f2af906024015f6040518083038186803b1580156103d6575f5ffd5b505afa1580156103e8573d5f5f3e3d5ffd5b50505060068690555060078490556201518060095560046104098a826107ec565b505050505050505050506108ea565b6001600160a01b03821661046e5760405162461bcd60e51b815260206004820152601f60248201527f45524332303a206d696e7420746f20746865207a65726f2061646472657373006044820152606401610147565b80601b5f82825461047f91906108d7565b9091555050601c54601d54601b5461049791906108d7565b11156104c557601b54601c5460405163d6c6ee6f60e01b815260048101929092526024820152604401610147565b6001600160a01b0382165f818152601960209081526040808320805486019055518481527fddf252ad1be2c89b69c2b068fc378daa952ba7f163c4a11628f55a4df523b3ef910160405180910390a35050565b505050565b634e487b7160e01b5f52604160045260245ffd5b60405161010081016001600160401b03811182821017156105545761055461051d565b60405290565b5f82601f830112610569575f5ffd5b81516001600160401b038111156105825761058261051d565b604051601f8201601f19908116603f011681016001600160401b03811182821017156105b0576105b061051d565b6040528181528382016020018510156105c7575f5ffd5b8160208501602083015e5f918101602001919091529392505050565b80516001600160a01b03811681146105f9575f5ffd5b919050565b5f610100828403121561060f575f5ffd5b610617610531565b9050610622826105e3565b8152610630602083016105e3565b6020820152610641604083016105e3565b6040820152606082810151908201526080808301519082015260a0808301519082015260c0808301519082015260e09182015191810191909152919050565b5f5f5f5f5f5f5f5f5f6102008a8c031215610699575f5ffd5b89516001600160401b038111156106ae575f5ffd5b6106ba8c828d0161055a565b60208c0151909a5090506001600160401b038111156106d7575f5ffd5b6106e38c828d0161055a565b60408c015190995090506001600160401b03811115610700575f5ffd5b61070c8c828d0161055a565b97505061071c8b60608c016105fe565b6101608b01516101808c01519197509550935061073c6101a08b016105e3565b925061074b6101c08b016105e3565b915061075a6101e08b016105e3565b90509295985092959850929598565b600181811c9082168061077d57607f821691505b60208210810361079b57634e487b7160e01b5f52602260045260245ffd5b50919050565b601f82111561051857805f5260205f20601f840160051c810160208510156107c65750805b601f840160051c820191505b818110156107e5575f81556001016107d2565b5050505050565b81516001600160401b038111156108055761080561051d565b610819816108138454610769565b846107a1565b6020601f82116001811461084b575f83156108345750848201515b5f19600385901b1c1916600184901b1784556107e5565b5f84815260208120601f198516915b8281101561087a578785015182556020948501946001909201910161085a565b508482101561089757868401515f19600387901b60f8161c191681555b50505050600190811b01905550565b634e487b7160e01b5f52601160045260245ffd5b80820281158282048414176108d1576108d16108a6565b92915050565b808201808211156108d1576108d16108a6565b6148d1806108f75f395ff3fe608060405234801561000f575f5ffd5b506004361061049b575f3560e01c806388d695b211610263578063abad3e741161014b578063d59624b4116100ca578063e6746eb71161008f578063e6746eb714610905578063e805156e14610916578063e9f748d41461093b578063ec11c4e914610943578063f8981789146105dd578063fc7e5fa81461057c575f5ffd5b8063d59624b4146108cc578063d5abeb01146108d4578063dca0baad146108dc578063dd62ed3e146108e4578063e5839836146108f7575f5ffd5b8063c69c09cf11610110578063c69c09cf1461088e578063c6e913171461089c578063c78b432e146108b1578063cbf3f861146105dd578063d19e5133146108b9575f5ffd5b8063abad3e7414610854578063b84c82461461085c578063be43bef51461086a578063bead103e1461087d578063c47f00271461085c575f5ffd5b80639aacc0fb116101e2578063a457c2d7116101a7578063a457c2d7146107f6578063a623fe8614610809578063a9059cbb14610831578063a979fb8914610844578063aad5c2af1461084c578063aba637051461054d575f5ffd5b80639aacc0fb146107b25780639dc29fac146107ba5780639fc1d0e7146107cd578063a2552571146107db578063a26c1aa2146107ee575f5ffd5b80639285948a116102285780639285948a1461070d57806392b002fa1461072357806394789faf14610734578063950768011461073c57806395d89b41146107aa575f5ffd5b806388d695b21461057c5780638903c5a2146106e25780638d71833e146106ea5780638d8f2adb146106fd5780638dc654a214610705575f5ffd5b80633fe0a83d116103865780636290865d1161030557806370a08231116102ca57806370a08231146106855780637514b7ed146106ad5780638119c065146106b5578063838a3b92146106bc5780638456cb59146104d0578063858f0e93146106cf575f5ffd5b80636290865d1461054d578063685731071461057c578063698518e5146106575780636b7e86481461065f5780636ba6395614610672575f5ffd5b80634a6cc6771161034b5780634a6cc6771461057c57806354fd4d501461062f5780635c25c76c146106365780635c975abb1461063e5780635ccc311414610644575f5ffd5b80633fe0a83d146105f657806340c10f19146105fe57806342a47abc14610611578063442447ca146106275780634710362d1461057c575f5ffd5b80631a7af3791161041d578063313ce567116103e2578063313ce567146105b357806339509351146105c25780633ccfd60b146105d55780633d1ddc5b146105dd5780633e3ff7b6146105ee5780633f4ba83a146104d0575f5ffd5b80631a7af3791461057c5780631fe56f7d1461053b57806321c3cbc21461059057806323b872dd1461059857806327cbf376146105ab575f5ffd5b806311da60b41161046357806311da60b414610533578063125c4a331461053b578063134e18f41461054d578063158b1a571461055357806318160ddd14610574575f5ffd5b806306fdde031461049f57806308f7490c146104bd578063095ea7b3146104d25780630b6f20cc146104f55780630d084eb814610508575b5f5ffd5b6104a7610956565b6040516104b491906139d3565b60405180910390f35b6104d06104cb366004613a89565b6109e6565b005b6104e56104e0366004613b0f565b610c41565b60405190151581526020016104b4565b6104d0610503366004613b37565b610c5a565b600f5461051b906001600160a01b031681565b6040516001600160a01b0390911681526020016104b4565b6104d0610cf4565b6104d0610549366004613b0f565b5050565b5f61051b565b610566610561366004613b37565b505f90565b6040519081526020016104b4565b601b54610566565b6104d061058a366004613b97565b50505050565b6104d0611339565b6104e56105a6366004613c01565b61153c565b600654610566565b604051601281526020016104b4565b6104e56105d0366004613b0f565b61155f565b6104d0611580565b6104d06105eb366004613b37565b50565b601754610566565b6104d061166a565b6104d061060c366004613b0f565b611a7d565b6104d061061f366004613c3b565b505050505050565b6104d0611b7d565b60606104a7565b601554610566565b5f6104e5565b6104d0610652366004613cd7565b611bf4565b601454610566565b6104d061066d366004613d69565b611d5a565b6104d0610680366004613db5565b611d76565b610566610693366004613b37565b6001600160a01b03165f9081526019602052604090205490565b600954610566565b60016104e5565b6104d06106ca366004613a89565b611dff565b6104d06106dd366004613cd7565b611f25565b61056661225b565b6104d06106f8366004613b37565b6122cc565b6104d061235b565b6104d06124be565b6104e561071b366004613de2565b5f9392505050565b6012546001600160a01b031661051b565b6105666126d6565b61078f61074a366004613b37565b604080518082019091525f8082526020820152506001600160a01b03165f90815260026020908152604091829020825180840190935280548352600101549082015290565b604080518251815260209283015192810192909252016104b4565b6104a7612751565b6104d0612760565b6104d06107c8366004613b0f565b612930565b6104e561071b366004613c01565b600e5461051b906001600160a01b031681565b601654610566565b6104e5610804366004613b0f565b612a6c565b610566610817366004613b37565b6001600160a01b03165f9081526020819052604090205490565b6104e561083f366004613b0f565b612ae6565b6104a7612af3565b600754610566565b600854610566565b6104d0610549366004613e22565b60035460ff166040516104b49190613ea2565b6013546001600160a01b031661051b565b6104d0610549366004613ec8565b6108a4612b02565b6040516104b49190613efd565b6104d0611d5a565b6104d06108c7366004613a89565b612ba3565b601854610566565b601c54610566565b6104a7612d3a565b6105666108f2366004613f84565b612dc6565b6104e5610561366004613b37565b6011546001600160a01b031661051b565b61092d600d54600c546001600160a01b0390911691565b6040516104b4929190613fb5565b6104a7612df0565b6104a7610951366004613cd7565b612dff565b6060601e805461096590613fce565b80601f016020809104026020016040519081016040528092919081815260200182805461099190613fce565b80156109dc5780601f106109b3576101008083540402835291602001916109dc565b820191905f5260205f20905b8154815290600101906020018083116109bf57829003601f168201915b5050505050905090565b6011546001600160a01b0316331480610a0957506012546001600160a01b031633145b610a2e5760405162461bcd60e51b8152600401610a2590614006565b60405180910390fd5b600560035460ff166008811115610a4757610a47613e8e565b14610a645760405162461bcd60e51b8152600401610a259061403d565b601854421115610a865760405162461bcd60e51b8152600401610a2590614074565b5f610a8f6133dd565b90505f848484604051602001610aa7939291906140be565b60408051808303601f1901815291815281516020928301205f81815260019093529120549091506001600160a01b03838116911614610afd57818160405163212d5a0d60e11b8152600401610a25929190613fb5565b5f81815260016020526040812080546001600160a01b0319169055610b206133dd565b602480546001600160a01b031916339081179091556001600160a01b0382165f908152600260205260408082205492825281205492935091610b62919061412a565b6001600160a01b038084165f908152600260205260408082206001908101546024549094168352908220015492935091610b9c919061412a565b9050610ba8818361412a565b60209081556024546001600160a01b038086165f9081526002909352604080842084815560019081018590559190921683529082208281550155610bea611b7d565b6003805460ff191660071790556020546040517fc953dbf4723a8ac8a4d5b8a1eb3e75fd09a147cfbf9efbf39782e8d257a7ffa091610c2f9133916004918b906141bc565b60405180910390a15050505050505050565b5f33610c4e818585613411565b60019150505b92915050565b6011546001600160a01b0316331480610c7d57506012546001600160a01b031633145b610c995760405162461bcd60e51b8152600401610a2590614006565b600f80546001600160a01b0319166001600160a01b0383161790556040517ffc38fd749eab320f0d4f8b271c0368ca8d4b1697fa0aad2cb82fc8233444fee890610ce99060049033908590614202565b60405180910390a150565b6018544211610d155760405162461bcd60e51b8152600401610a2590614234565b600f546001600160a01b03163314610d3f5760405162461bcd60e51b8152600401610a259061426b565b6006546011546001600160a01b03165f90815260026020526040902054610d6691906142bf565b600a556006546012546001600160a01b03165f90815260026020526040902054610d9091906142bf565b600b819055600a546012919003610fac575f610dad82600a6143b5565b601154909150610dc6906001600160a01b031682612930565b601254610ddc906001600160a01b031682612930565b60038054600860ff199091161790556011546001600160a01b039081165f9081526020818152604080832083905560125484168352808320839055805160c0810182528381529182018381528282018481524260608501908152600a805460808701908152600b805460a0890190815260108054600181018255908b52985160069099027f1b6847dc741a1b0cd08d278845f9d819d87b734759afb55fe2de5cb82a9ae672810180549a8d166001600160a01b03199b8c1617905596517f1b6847dc741a1b0cd08d278845f9d819d87b734759afb55fe2de5cb82a9ae6738801805491909c1699169890981790995592517f1b6847dc741a1b0cd08d278845f9d819d87b734759afb55fe2de5cb82a9ae67485015590517f1b6847dc741a1b0cd08d278845f9d819d87b734759afb55fe2de5cb82a9ae67584015590517f1b6847dc741a1b0cd08d278845f9d819d87b734759afb55fe2de5cb82a9ae67683015592517f1b6847dc741a1b0cd08d278845f9d819d87b734759afb55fe2de5cb82a9ae677909101559054925490517fc2e77ef815a40a7acf35f639836ecc092a752d681c8f8e8beaa1bf23280b6ab493610fa09360049390928392839290916143c3565b60405180910390a15050565b600b54600a5411156112d857600b54600a54610fc891906142bf565b600c819055601154602380546001600160a01b039283166001600160a01b03199182168117909255601254600d8054919094169116179091555f9081526002602052604090205461101991906142bf565b602380546001600160a01b039081165f90815260026020908152604080832095909555925490911681529081905290812081905561105882600a6143b5565b601154909150611071906001600160a01b031682612930565b601254611087906001600160a01b031682612930565b6111f1600c546040805160c0810182526023546001600160a01b039081168252600d548116602083019081529282019384524260608301908152600a5460808401908152600b5460a08501908152601080546001810182555f91909152945160069095027f1b6847dc741a1b0cd08d278845f9d819d87b734759afb55fe2de5cb82a9ae672810180549686166001600160a01b031997881617905595517f1b6847dc741a1b0cd08d278845f9d819d87b734759afb55fe2de5cb82a9ae673870180549190951695169490941790925593517f1b6847dc741a1b0cd08d278845f9d819d87b734759afb55fe2de5cb82a9ae67484015592517f1b6847dc741a1b0cd08d278845f9d819d87b734759afb55fe2de5cb82a9ae67583015591517f1b6847dc741a1b0cd08d278845f9d819d87b734759afb55fe2de5cb82a9ae67682015590517f1b6847dc741a1b0cd08d278845f9d819d87b734759afb55fe2de5cb82a9ae67790910155565b611285600c546004805461120490613fce565b80601f016020809104026020016040519081016040528092919081815260200182805461123090613fce565b801561127b5780601f106112525761010080835404028352916020019161127b565b820191905f5260205f20905b81548152906001019060200180831161125e57829003601f168201915b5050505050611d76565b602354600d54600c54600a54600b546040517fc2e77ef815a40a7acf35f639836ecc092a752d681c8f8e8beaa1bf23280b6ab495610fa0956004956001600160a01b0392831695929091169390926143c3565b600a54600b546112e891906142bf565b600c819055601254602380546001600160a01b039283166001600160a01b03199182168117909255601154600d8054919094169116179091555f9081526002602052604090205461101991906142bf565b6011546001600160a01b031633148061135c57506012546001600160a01b031633145b6113785760405162461bcd60e51b8152600401610a2590614006565b600260035460ff16600881111561139157611391613e8e565b146113de5760405162461bcd60e51b815260206004820152601f60248201527f5472616465207374617465206973206e6f742027436f6e6669726d6564272e006044820152606401610a25565b6018544211156114005760405162461bcd60e51b8152600401610a2590614074565b335f9081526020818152604080832080546002845291842054928490529290925561142b828261412a565b335f81815260026020526040908190209290925560135491516323b872dd60e01b81526004810191909152306024820152604481018490526001600160a01b03909116906323b872dd906064016020604051808303815f875af1158015611494573d5f5f3e3d5ffd5b505050506040513d601f19601f820116820180604052508101906114b8919061440a565b61150e5760405162461bcd60e51b815260206004820152602160248201527f4661696c656420746f207472616e736665722074686520636f6c6c61746572616044820152601b60fa1b6064820152608401610a25565b335f81815260026020526040908190205490515f51602061487c5f395f51905f5292610fa092600492614425565b5f3361154985828561354e565b6115548585856135c0565b506001949350505050565b5f33610c4e8185856115718383612dc6565b61157b919061412a565b613411565b6011546001600160a01b03163314806115a357506012546001600160a01b031633145b6115bf5760405162461bcd60e51b8152600401610a2590614006565b60185442116115e05760405162461bcd60e51b8152600401610a2590614234565b601354600d54600c5460405163a9059cbb60e01b81526001600160a01b039384169363a9059cbb9361161793911691600401613fb5565b6020604051808303815f875af1158015611633573d5f5f3e3d5ffd5b505050506040513d601f19601f82011682018060405250810190611657919061440a565b50600d80546001600160a01b0319169055565b600260035460ff16600881111561168357611683613e8e565b146116d05760405162461bcd60e51b815260206004820152601f60248201527f5472616465207374617465206973206e6f742027436f6e6669726d6564272e006044820152606401610a25565b6018544211156116f25760405162461bcd60e51b8152600401610a2590614074565b600e546001600160a01b0316331461171c5760405162461bcd60e51b8152600401610a259061426b565b601654601454601554602554604080516333cd77e760e11b815290515f93926001600160a01b03169163679aefce916004828101926020929190829003018188875af115801561176e573d5f5f3e3d5ffd5b505050506040513d601f19601f820116820180604052508101906117929190614452565b61179c9190614469565b90505f60116002015f9054906101000a90046001600160a01b03166001600160a01b031663313ce5676040518163ffffffff1660e01b8152600401602060405180830381865afa1580156117f2573d5f5f3e3d5ffd5b505050506040513d601f19601f820116820180604052508101906118169190614490565b60ff1690505f60255f9054906101000a90046001600160a01b03166001600160a01b031663313ce5676040518163ffffffff1660e01b8152600401602060405180830381865afa15801561186c573d5f5f3e3d5ffd5b505050506040513d601f19601f820116820180604052508101906118909190614490565b60ff1690505f6118a182600a6144b0565b6118ad90618ead6144bb565b6118b884600a6144b0565b6118c287896144bb565b6118cc91906144bb565b6118d79060646144bb565b6118e191906144d2565b90505f6118ef83600a6144b0565b6118fb90618ead6144bb565b61190685600a6144b0565b611910878a6144bb565b61191a91906144bb565b6119259060646144bb565b61192f91906144d2565b90505f858703611967575f51602061487c5f395f51905f5260045f5f60405161195a93929190614425565b60405180910390a1611a73565b858713156119f3576011546001600160a01b03165f9081526020819052604090205461199383856142bf565b915061199f828261412a565b601180546001600160a01b039081165f908152602081905260409081902093909355905491515f51602061487c5f395f51905f52926119e5926004929116908690614425565b60405180910390a150611a73565b6012546001600160a01b03165f90815260208190526040902054611a1784846142bf565b9150611a23828261412a565b601280546001600160a01b039081165f908152602081905260409081902093909355905491515f51602061487c5f395f51905f5292611a69926004929116908690614425565b60405180910390a1505b5050505050505050565b6001600160a01b038216611ad35760405162461bcd60e51b815260206004820152601f60248201527f45524332303a206d696e7420746f20746865207a65726f2061646472657373006044820152606401610a25565b80601b5f828254611ae4919061412a565b9091555050601c54601d54601b54611afc919061412a565b1115611b2a57601b54601c5460405163d6c6ee6f60e01b815260048101929092526024820152604401610a25565b6001600160a01b0382165f818152601960209081526040808320805486019055518481527fddf252ad1be2c89b69c2b068fc378daa952ba7f163c4a11628f55a4df523b3ef910160405180910390a35050565b60135460245460205460405163a9059cbb60e01b81526001600160a01b039384169363a9059cbb93611bb493911691600401613fb5565b6020604051808303815f875af1158015611bd0573d5f5f3e3d5ffd5b505050506040513d601f19601f820116820180604052508101906105eb919061440a565b600160035460ff166008811115611c0d57611c0d613e8e565b14611c5a5760405162461bcd60e51b815260206004820152601e60248201527f5472616465207374617465206973206e6f742027496e636570746564272e00006044820152606401610a25565b601854421115611c7c5760405162461bcd60e51b8152600401610a2590614074565b60405133905f90611c9b908390899089908990899089906020016144f1565b60408051808303601f1901815291815281516020928301205f81815260019093529120549091506001600160a01b03838116911614611cf157818160405163212d5a0d60e11b8152600401610a25929190613fb5565b5f818152600160205260409081902080546001600160a01b03191690556003805460ff19169055517fb97ebea18f48d75569ccb549a1079765ee3a73567c656c017da2aad5e75652b790611d49903390600490614547565b60405180910390a150505050505050565b6040516001620dc37960e31b0319815260040160405180910390fd5b600d54600c546040517f562c219552544ec4c9d7a8eb850f80ea152973e315372bf4999fe7c953ea004f92611db6926001600160a01b0390911691613fb5565b60405180910390a16003805460ff191660081790556040517f752a06f360d89e4ed54e5427b88f42c8fc9bf5d1b79904fe9d12701e029fe48d90610fa090339085908590614572565b600560035460ff166008811115611e1857611e18613e8e565b14611e355760405162461bcd60e51b8152600401610a259061403d565b601854421115611e575760405162461bcd60e51b8152600401610a2590614074565b60405133905f90611e70908690869086906020016140be565b60408051808303601f1901815291815281516020928301205f81815260019093529120549091506001600160a01b03838116911614611ec657818160405163212d5a0d60e11b8152600401610a25929190613fb5565b5f818152600160205260409081902080546001600160a01b0319169055517f0bf0316e30055987a1da1f06c48c2cbd289a8009806806ef4506435c3d565c0c90611f1690339060049087906145a1565b60405180910390a15050505050565b600160035460ff166008811115611f3e57611f3e613e8e565b14611f8b5760405162461bcd60e51b815260206004820152601e60248201527f5472616465207374617465206973206e6f742027496e636570746564272e00006044820152606401610a25565b600954600854611f9b90426142bf565b1115611fe95760405162461bcd60e51b815260206004820152601960248201527f436f6e66696d617274696f6e2074696d65206973206f766572000000000000006044820152606401610a25565b5f611ff26133dd565b90505f863387612001886145d6565b61200a886145d6565b87604051602001612020969594939291906144f1565b60408051808303601f1901815291815281516020928301205f81815260019093529120549091506001600160a01b0383811691161461207657818160405163212d5a0d60e11b8152600401610a25929190613fb5565b5f81815260016020908152604080832080546001600160a01b03191690556003805460ff19166002179055601354815163313ce56760e01b815291516001600160a01b039091169263313ce56792600480820193918290030181865afa1580156120e2573d5f5f3e3d5ffd5b505050506040513d601f19601f820116820180604052508101906121069190614490565b60ff169050604051806040016040528082600a61212391906144b0565b60065461213091906144bb565b815260200161214083600a6144b0565b60075461214d91906144bb565b9052335f90815260026020908152604082208351815592015160019092019190915561217a82600a6144b0565b60075460065461218a919061412a565b61219491906144bb565b6013546040516323b872dd60e01b8152336004820152306024820152604481018390529192506001600160a01b0316906323b872dd906064016020604051808303815f875af11580156121e9573d5f5f3e3d5ffd5b505050506040513d601f19601f8201168201806040525081019061220d919061440a565b6122295760405162461bcd60e51b8152600401610a25906145f0565b7f02f9110550f3374364c85539074b740b7bfed285798d152502c5f2dfd745cf00336004604051611a69929190614547565b602554604080516333cd77e760e11b815290515f926001600160a01b03169163679aefce916004808301926020929190829003018187875af11580156122a3573d5f5f3e3d5ffd5b505050506040513d601f19601f820116820180604052508101906122c79190614452565b905090565b6011546001600160a01b03163314806122ef57506012546001600160a01b031633145b61230b5760405162461bcd60e51b8152600401610a2590614006565b600e80546001600160a01b0319166001600160a01b0383161790556040517fb23d51506296da99ad6dd2be870ac5cd55074216cfdc8eb99e750121131a2e5790610ce99060049033908590614202565b6011546001600160a01b031633148061237e57506012546001600160a01b031633145b61239a5760405162461bcd60e51b8152600401610a2590614006565b6013546040516370a0823160e01b81523060048201525f916001600160a01b0316906370a0823190602401602060405180830381865afa1580156123e0573d5f5f3e3d5ffd5b505050506040513d601f19601f820116820180604052508101906124049190614452565b90505f811161244c5760405162461bcd60e51b8152602060048201526014602482015273496e73756666696369656e742062616c616e636560601b6044820152606401610a25565b60135460405163a9059cbb60e01b81526001600160a01b039091169063a9059cbb9061247e9033908590600401613fb5565b6020604051808303815f875af115801561249a573d5f5f3e3d5ffd5b505050506040513d601f19601f82011682018060405250810190610549919061440a565b60185442116124df5760405162461bcd60e51b8152600401610a2590614234565b6011546001600160a01b031633148061250257506012546001600160a01b031633145b61251e5760405162461bcd60e51b8152600401610a2590614006565b6040516370a0823160e01b815230600482015273779877a7b0d9e8603169ddbd7836e478b462478990819063a9059cbb90339083906370a0823190602401602060405180830381865afa158015612577573d5f5f3e3d5ffd5b505050506040513d601f19601f8201168201806040525081019061259b9190614452565b6040518363ffffffff1660e01b81526004016125b8929190613fb5565b6020604051808303815f875af11580156125d4573d5f5f3e3d5ffd5b505050506040513d601f19601f820116820180604052508101906125f8919061440a565b6126395760405162461bcd60e51b81526020600482015260126024820152712ab730b13632903a37903a3930b739b332b960711b6044820152606401610a25565b6040516370a0823160e01b8152306004828101919091527f584260aae492145046ca839be31eb713a95f49ec336d4e1ec8cb415fb0e076d69133906001600160a01b038516906370a0823190602401602060405180830381865afa1580156126a3573d5f5f3e3d5ffd5b505050506040513d601f19601f820116820180604052508101906126c79190614452565b604051610ce993929190614425565b6040516370a0823160e01b81523060048201525f9073779877a7b0d9e8603169ddbd7836e478b46247899081906370a0823190602401602060405180830381865afa158015612727573d5f5f3e3d5ffd5b505050506040513d601f19601f8201168201806040525081019061274b9190614452565b91505090565b6060601f805461096590613fce565b6011546001600160a01b031633148061278357506012546001600160a01b031633145b61279f5760405162461bcd60e51b8152600401610a2590614006565b60185442116127c05760405162461bcd60e51b8152600401610a2590614234565b335f908152600260205260408120600181015490546127df919061412a565b335f8181526002602052604090819020805460019091015491519394507fe41b6ecc31f95fd2ccb7198df84836bc80dff897c8c7cc6f20d26cf7fce576769361282d9360049390929161464d565b60405180910390a1335f8181526002602052604080822082815560010191909155601354905163a9059cbb60e01b81526001600160a01b039091169163a9059cbb9161287e91908590600401613fb5565b6020604051808303815f875af115801561289a573d5f5f3e3d5ffd5b505050506040513d601f19601f820116820180604052508101906128be919061440a565b6105eb5760405162461bcd60e51b815260206004820152603d60248201527f4661696c656420746f207472616e736665722074686520696e697469616c206d60448201527f617267696e20616e6420746865207465726d696e6174696f6e206665650000006064820152608401610a25565b6001600160a01b0382166129905760405162461bcd60e51b815260206004820152602160248201527f45524332303a206275726e2066726f6d20746865207a65726f206164647265736044820152607360f81b6064820152608401610a25565b6001600160a01b0382165f9081526019602052604090205481811015612a035760405162461bcd60e51b815260206004820152602260248201527f45524332303a206275726e20616d6f756e7420657863656564732062616c616e604482015261636560f01b6064820152608401610a25565b6001600160a01b0383165f8181526019602090815260408083208686039055601b80548790039055601d805487019055518581529192917fddf252ad1be2c89b69c2b068fc378daa952ba7f163c4a11628f55a4df523b3ef91015b60405180910390a35b505050565b5f3381612a798286612dc6565b905083811015612ad95760405162461bcd60e51b815260206004820152602560248201527f45524332303a2064656372656173656420616c6c6f77616e63652062656c6f77604482015264207a65726f60d81b6064820152608401610a25565b6115548286868403613411565b5f33610c4e8185856135c0565b60606005805461096590613fce565b60606010805480602002602001604051908101604052809291908181526020015f905b82821015612b9a575f8481526020908190206040805160c0810182526006860290920180546001600160a01b0390811684526001808301549091168486015260028201549284019290925260038101546060840152600481015460808401526005015460a08301529083529092019101612b25565b50505050905090565b6011546001600160a01b0316331480612bc657506012546001600160a01b031633145b612be25760405162461bcd60e51b8152600401610a2590614006565b600560035460ff166008811115612bfb57612bfb613e8e565b14612c185760405162461bcd60e51b8152600401610a259061403d565b601854421115612c3a5760405162461bcd60e51b8152600401610a2590614074565b6005604051602001612c4c9190614684565b6040516020818303038152906040528051906020012083604051602001612c7391906146f5565b6040516020818303038152906040528051906020012014612ca9578260405163090399b360e41b8152600401610a2591906139d3565b5f838383604051602001612cbf939291906140be565b60408051601f1981840301815282825280516020918201205f818152600190925291902080546001600160a01b031916339081179091559092507f2296534d3df387ae4ae69f41bf423ee65754b1c234537082a084761f0dcaf13891612d2c9190600490879087906141bc565b60405180910390a150505050565b60048054612d4790613fce565b80601f0160208091040260200160405190810160405280929190818152602001828054612d7390613fce565b8015612dbe5780601f10612d9557610100808354040283529160200191612dbe565b820191905f5260205f20905b815481529060010190602001808311612da157829003601f168201915b505050505081565b6001600160a01b039182165f908152601a6020908152604080832093909416825291909152205490565b60606004805461096590613fce565b6011546060906001600160a01b0316331480612e2557506012546001600160a01b031633145b612e415760405162461bcd60e51b8152600401610a2590614006565b5f60035460ff166008811115612e5957612e59613e8e565b14612ea65760405162461bcd60e51b815260206004820152601e60248201527f5472616465207374617465206973206e6f742027496e616374697665272e00006044820152606401610a25565b601854421115612ec85760405162461bcd60e51b8152600401610a2590614074565b336001600160a01b038716612f175760405162461bcd60e51b8152602060048201526015602482015274496e76616c6964207061727479206164647265737360581b6044820152606401610a25565b866001600160a01b0316816001600160a01b031603612f5a57604051636df8875760e01b81523360048201526001600160a01b0388166024820152604401610a25565b6011546001600160a01b0388811691161480612f8357506012546001600160a01b038881169116145b612feb5760405162461bcd60e51b815260206004820152603360248201527f57726f6e6720277769746850617274792720616464726573732c204d5553542060448201527242452074686520636f756e746572706172747960681b6064820152608401610a25565b8460011480612ffa5750845f19145b6130395760405162461bcd60e51b815260206004820152601060248201526f34b73b30b634b2103837b9b4ba34b7b760811b6044820152606401610a25565b8460010361306f5760118054336001600160a01b031991821617909155601280549091166001600160a01b038916179055613099565b60128054336001600160a01b031991821617909155601180549091166001600160a01b0389161790555b6003805460ff191660011790556040515f906130c39033908a908a908a908a908a906020016144f1565b60408051601f1981840301815291815281516020928301205f8181526001909352912080546001600160a01b0319163317905590506131018161383f565b60059061310e9082614756565b50426008556013546040805163313ce56760e01b815290515f926001600160a01b03169163313ce5679160048083019260209291908290030181865afa15801561315a573d5f5f3e3d5ffd5b505050506040513d601f19601f8201168201806040525081019061317e9190614490565b9050604051806040016040528082600a61319891906143b5565b6006546131a591906144bb565b81526020016131b583600a6143b5565b6007546131c291906144bb565b9052335f9081526002602090815260408220835181559201516001909201919091556131ef82600a6143b5565b6007546006546131ff919061412a565b61320991906144bb565b90505f61321783600a6143b5565b61322190896144bb565b905081811461326b5760405162461bcd60e51b8152602060048201526016602482015275125b9d985b1a59081c185e5b595b9d08185b5bdd5b9d60521b6044820152606401610a25565b6013546040516323b872dd60e01b8152336004820152306024820152604481018490526001600160a01b03909116906323b872dd906064016020604051808303815f875af11580156132bf573d5f5f3e3d5ffd5b505050506040513d601f19601f820116820180604052508101906132e3919061440a565b6132ff5760405162461bcd60e51b8152600401610a25906145f0565b7f2a1c9ffcfb612ae02061c9c984da3814098f6cfb22c68895d7bb548ddbfd094e338c600560048d8d8d60405161333c9796959493929190614810565b60405180910390a16005805461335190613fce565b80601f016020809104026020016040519081016040528092919081815260200182805461337d90613fce565b80156133c85780601f1061339f576101008083540402835291602001916133c8565b820191905f5260205f20905b8154815290600101906020018083116133ab57829003601f168201915b50505050509550505050505095945050505050565b6011545f906001600160a01b0316331461340157506011546001600160a01b031690565b506012546001600160a01b031690565b6018544211156134335760405162461bcd60e51b8152600401610a2590614074565b6001600160a01b0383166134955760405162461bcd60e51b8152602060048201526024808201527f45524332303a20617070726f76652066726f6d20746865207a65726f206164646044820152637265737360e01b6064820152608401610a25565b6001600160a01b0382166134f65760405162461bcd60e51b815260206004820152602260248201527f45524332303a20617070726f766520746f20746865207a65726f206164647265604482015261737360f01b6064820152608401610a25565b6001600160a01b038381165f818152601a602090815260408083209487168084529482529182902085905590518481527f8c5be1e5ebec7d5bd14f71427d1e84f3dd0314c0f7b2291e5b200ac8c7c3b9259101612a5e565b5f6135598484612dc6565b90505f19811461058a57818110156135b35760405162461bcd60e51b815260206004820152601d60248201527f45524332303a20696e73756666696369656e7420616c6c6f77616e63650000006044820152606401610a25565b61058a8484848403613411565b6018544211156135e25760405162461bcd60e51b8152600401610a2590614074565b6001600160a01b0383166136465760405162461bcd60e51b815260206004820152602560248201527f45524332303a207472616e736665722066726f6d20746865207a65726f206164604482015264647265737360d81b6064820152608401610a25565b6001600160a01b0382166136a85760405162461bcd60e51b815260206004820152602360248201527f45524332303a207472616e7366657220746f20746865207a65726f206164647260448201526265737360e81b6064820152608401610a25565b6001600160a01b0383165f908152601960205260409020548181146137215760405162461bcd60e51b815260206004820152602960248201527f45524332303a20796f75206d757374207472616e7366657220616c6c20796f75604482015268722062616c616e636560b81b6064820152608401610a25565b6001600160a01b038085165f81815260196020526040808220868603905586841682529020805485019055601154909116900361377857601180546001600160a01b0319166001600160a01b0385161790556137ed565b6012546001600160a01b03908116908516036137ae57601280546001600160a01b0319166001600160a01b0385161790556137ed565b60405162461bcd60e51b8152602060048201526014602482015273696e76616c69642066726f6d206164647265737360601b6044820152606401610a25565b826001600160a01b0316846001600160a01b03167fddf252ad1be2c89b69c2b068fc378daa952ba7f163c4a11628f55a4df523b3ef8460405161383291815260200190565b60405180910390a361058a565b60605f61384b836138ce565b60010190505f816001600160401b03811115613869576138696139ec565b6040519080825280601f01601f191660200182016040528015613893576020820181803683370190505b5090508181016020015b5f19016f181899199a1a9b1b9c1cb0b131b232b360811b600a86061a8153600a850494508461389d57509392505050565b5f8072184f03e93ff9f4daa797ed6e38ed64bf6a1f0160401b831061390c5772184f03e93ff9f4daa797ed6e38ed64bf6a1f0160401b830492506040015b6d04ee2d6d415b85acef81000000008310613938576d04ee2d6d415b85acef8100000000830492506020015b662386f26fc10000831061395657662386f26fc10000830492506010015b6305f5e100831061396e576305f5e100830492506008015b612710831061398257612710830492506004015b60648310613994576064830492506002015b600a8310610c545760010192915050565b5f81518084528060208401602086015e5f602082860101526020601f19601f83011685010191505092915050565b602081525f6139e560208301846139a5565b9392505050565b634e487b7160e01b5f52604160045260245ffd5b5f82601f830112613a0f575f5ffd5b81356001600160401b03811115613a2857613a286139ec565b604051601f8201601f19908116603f011681016001600160401b0381118282101715613a5657613a566139ec565b604052818152838201602001851015613a6d575f5ffd5b816020850160208301375f918101602001919091529392505050565b5f5f5f60608486031215613a9b575f5ffd5b83356001600160401b03811115613ab0575f5ffd5b613abc86828701613a00565b9350506020840135915060408401356001600160401b03811115613ade575f5ffd5b613aea86828701613a00565b9150509250925092565b80356001600160a01b0381168114613b0a575f5ffd5b919050565b5f5f60408385031215613b20575f5ffd5b613b2983613af4565b946020939093013593505050565b5f60208284031215613b47575f5ffd5b6139e582613af4565b5f5f83601f840112613b60575f5ffd5b5081356001600160401b03811115613b76575f5ffd5b6020830191508360208260051b8501011115613b90575f5ffd5b9250929050565b5f5f5f5f60408587031215613baa575f5ffd5b84356001600160401b03811115613bbf575f5ffd5b613bcb87828801613b50565b90955093505060208501356001600160401b03811115613be9575f5ffd5b613bf587828801613b50565b95989497509550505050565b5f5f5f60608486031215613c13575f5ffd5b613c1c84613af4565b9250613c2a60208501613af4565b929592945050506040919091013590565b5f5f5f5f5f5f60608789031215613c50575f5ffd5b86356001600160401b03811115613c65575f5ffd5b613c7189828a01613b50565b90975095505060208701356001600160401b03811115613c8f575f5ffd5b613c9b89828a01613b50565b90955093505060408701356001600160401b03811115613cb9575f5ffd5b613cc589828a01613b50565b979a9699509497509295939492505050565b5f5f5f5f5f60a08688031215613ceb575f5ffd5b613cf486613af4565b945060208601356001600160401b03811115613d0e575f5ffd5b613d1a88828901613a00565b945050604086013592506060860135915060808601356001600160401b03811115613d43575f5ffd5b613d4f88828901613a00565b9150509295509295909350565b80151581146105eb575f5ffd5b5f5f60408385031215613d7a575f5ffd5b8235613d8581613d5c565b915060208301356001600160401b03811115613d9f575f5ffd5b613dab85828601613a00565b9150509250929050565b5f5f60408385031215613dc6575f5ffd5b8235915060208301356001600160401b03811115613d9f575f5ffd5b5f5f5f60608486031215613df4575f5ffd5b613dfd84613af4565b9250613e0b60208501613af4565b9150613e1960408501613af4565b90509250925092565b5f5f60208385031215613e33575f5ffd5b82356001600160401b03811115613e48575f5ffd5b8301601f81018513613e58575f5ffd5b80356001600160401b03811115613e6d575f5ffd5b856020828401011115613e7e575f5ffd5b6020919091019590945092505050565b634e487b7160e01b5f52602160045260245ffd5b6020810160098310613ec257634e487b7160e01b5f52602160045260245ffd5b91905290565b5f5f60408385031215613ed9575f5ffd5b613ee283613af4565b91506020830135613ef281613d5c565b809150509250929050565b602080825282518282018190525f918401906040840190835b81811015613f7957835180516001600160a01b0390811685526020808301519091168186015260408083015190860152606080830151908601526080808301519086015260a091820151918501919091529093019260c090920191600101613f16565b509095945050505050565b5f5f60408385031215613f95575f5ffd5b613f9e83613af4565b9150613fac60208401613af4565b90509250929050565b6001600160a01b03929092168252602082015260400190565b600181811c90821680613fe257607f821691505b60208210810361400057634e487b7160e01b5f52602260045260245ffd5b50919050565b6020808252601b908201527f596f7520617265206e6f74206120636f756e74657270617274792e0000000000604082015260600190565b6020808252601d908201527f5472616465207374617465206973206e6f742027536574746c6564272e000000604082015260600190565b6020808252602a908201527f49525320636f6e747261637420686173207265616368656420746865204d61746040820152697572697479204461746560b01b606082015260800190565b608081525f6140d060808301866139a5565b82810380602085015260098252687465726d696e61746560b81b60208301528560408501526040810160608501525061410c60408201856139a5565b9695505050505050565b634e487b7160e01b5f52601160045260245ffd5b80820180821115610c5457610c54614116565b5f815461414981613fce565b808552600182168015614163576001811461417f576141b3565b60ff1983166020870152602082151560051b87010193506141b3565b845f5260205f205f5b838110156141aa5781546020828a010152600182019150602081019050614188565b87016020019450505b50505092915050565b6001600160a01b03851681526080602082018190525f906141df9083018661413d565b84604084015282810360608401526141f781856139a5565b979650505050505050565b606081525f614214606083018661413d565b6001600160a01b0394851660208401529290931660409091015292915050565b60208082526019908201527f5472616465206973206e6f74206d617475726564207965742e00000000000000604082015260600190565b60208082526034908201527f4f6e6c792074686520736574746c656d656e7420666f72776172646572206361604082015273371031b0b636103a3434b990333ab731ba34b7b760611b606082015260800190565b81810381811115610c5457610c54614116565b6001815b600184111561430d578085048111156142f1576142f1614116565b60018416156142ff57908102905b60019390931c9280026142d6565b935093915050565b5f8261432357506001610c54565b8161432f57505f610c54565b8160018114614345576002811461434f5761436b565b6001915050610c54565b60ff84111561436057614360614116565b50506001821b610c54565b5060208310610133831016604e8410600b841016171561438e575081810a610c54565b61439a5f1984846142d2565b805f19048211156143ad576143ad614116565b029392505050565b5f6139e560ff841683614315565b60c081525f6143d560c083018961413d565b6001600160a01b0397881660208401529590961660408201526060810193909352608083019190915260a09091015292915050565b5f6020828403121561441a575f5ffd5b81516139e581613d5c565b606081525f614437606083018661413d565b6001600160a01b039490941660208301525060400152919050565b5f60208284031215614462575f5ffd5b5051919050565b8082018281125f83128015821682158216171561448857614488614116565b505092915050565b5f602082840312156144a0575f5ffd5b815160ff811681146139e5575f5ffd5b5f6139e58383614315565b8082028115828204841417610c5457610c54614116565b5f826144ec57634e487b7160e01b5f52601260045260245ffd5b500490565b6001600160a01b0387811682528616602082015260c0604082018190525f9061451c908301876139a5565b85606084015284608084015282810360a084015261453a81856139a5565b9998505050505050505050565b6001600160a01b03831681526040602082018190525f9061456a9083018461413d565b949350505050565b60018060a01b0384168152826020820152606060408201525f61459860608301846139a5565b95945050505050565b6001600160a01b03841681526060602082018190525f906145c49083018561413d565b828103604084015261410c81856139a5565b5f600160ff1b82016145ea576145ea614116565b505f0390565b6020808252603b908201527f4661696c656420746f207472616e736665722074686520696e697469616c206d60408201527f617267696e202b20746865207465726d696e6174696f6e206665650000000000606082015260800190565b608081525f61465f608083018761413d565b6001600160a01b03959095166020830152506040810192909252606090910152919050565b5f5f835461469181613fce565b6001821680156146a857600181146146bd576146ea565b60ff19831686528115158202860193506146ea565b865f5260205f205f5b838110156146e2578154888201526001909101906020016146c6565b505081860193505b509195945050505050565b5f82518060208501845e5f920191825250919050565b601f821115612a6757805f5260205f20601f840160051c810160208510156147305750805b601f840160051c820191505b8181101561474f575f815560010161473c565b5050505050565b81516001600160401b0381111561476f5761476f6139ec565b6147838161477d8454613fce565b8461470b565b6020601f8211600181146147b5575f831561479e5750848201515b5f19600385901b1c1916600184901b17845561474f565b5f84815260208120601f198516915b828110156147e457878501518255602094850194600190920191016147c4565b508482101561480157868401515f19600387901b60f8161c191681555b50505050600190811b01905550565b6001600160a01b0388811682528716602082015260e0604082018190525f9061483b9083018861413d565b828103606084015261484d818861413d565b90508560808401528460a084015282810360c084015261486d81856139a5565b9a995050505050505050505056fea3cb1c3211cad18473b251b608fe653906c7671ea49f682d74dd7e75281895cfa2646970667358221220da14e6c428f2862a9501c86465fa82070124e016c3350b302547bf27638922dc64736f6c634300081e0033",
			"opcodes": "PUSH1 0x80 PUSH1 0x40 MSTORE CALLVALUE DUP1 ISZERO PUSH2 0xF JUMPI PUSH0 PUSH0 REVERT JUMPDEST POP PUSH1 0x40 MLOAD PUSH2 0x51C8 CODESIZE SUB DUP1 PUSH2 0x51C8 DUP4 CODECOPY DUP2 ADD PUSH1 0x40 DUP2 SWAP1 MSTORE PUSH2 0x2E SWAP2 PUSH2 0x680 JUMP JUMPDEST DUP8 DUP8 DUP8 DUP6 DUP6 DUP6 DUP6 DUP6 PUSH1 0x1E PUSH2 0x42 DUP4 DUP3 PUSH2 0x7EC JUMP JUMPDEST POP PUSH1 0x1F PUSH2 0x4F DUP3 DUP3 PUSH2 0x7EC JUMP JUMPDEST POP POP DUP5 MLOAD PUSH1 0x11 DUP1 SLOAD PUSH1 0x1 PUSH1 0x1 PUSH1 0xA0 SHL SUB NOT SWAP1 DUP2 AND PUSH1 0x1 PUSH1 0x1 PUSH1 0xA0 SHL SUB SWAP4 DUP5 AND SWAP1 DUP2 OR SWAP1 SWAP3 SSTORE PUSH1 0x20 DUP9 ADD MLOAD PUSH1 0x12 DUP1 SLOAD DUP4 AND SWAP2 DUP6 AND SWAP2 SWAP1 SWAP2 OR SWAP1 SSTORE PUSH1 0x40 DUP9 ADD MLOAD PUSH1 0x13 DUP1 SLOAD DUP4 AND SWAP2 DUP6 AND SWAP2 SWAP1 SWAP2 OR SWAP1 SSTORE PUSH1 0x60 DUP9 ADD MLOAD PUSH1 0x14 SSTORE PUSH1 0x80 DUP9 ADD MLOAD PUSH1 0x15 SSTORE PUSH1 0xA0 DUP9 ADD MLOAD PUSH1 0x16 SSTORE PUSH1 0xC0 DUP9 ADD MLOAD PUSH1 0x17 SSTORE PUSH1 0xE0 DUP9 ADD MLOAD PUSH1 0x18 SSTORE PUSH1 0x21 DUP1 SLOAD DUP3 AND DUP9 DUP6 AND OR SWAP1 SSTORE PUSH1 0x25 DUP1 SLOAD DUP3 AND DUP8 DUP6 AND OR SWAP1 SSTORE PUSH1 0x22 DUP1 SLOAD SWAP1 SWAP2 AND SWAP3 DUP6 AND SWAP3 SWAP1 SWAP3 OR SWAP1 SWAP2 SSTORE SWAP1 POP PUSH2 0x150 JUMPI PUSH1 0x40 MLOAD PUSH3 0x461BCD PUSH1 0xE5 SHL DUP2 MSTORE PUSH1 0x20 PUSH1 0x4 DUP3 ADD MSTORE PUSH1 0x27 PUSH1 0x24 DUP3 ADD MSTORE PUSH32 0x466978656420726174652070617965722063616E6E6F74206265207A65726F20 PUSH1 0x44 DUP3 ADD MSTORE PUSH7 0x61646472657373 PUSH1 0xC8 SHL PUSH1 0x64 DUP3 ADD MSTORE PUSH1 0x84 ADD JUMPDEST PUSH1 0x40 MLOAD DUP1 SWAP2 SUB SWAP1 REVERT JUMPDEST PUSH1 0x20 DUP5 ADD MLOAD PUSH1 0x1 PUSH1 0x1 PUSH1 0xA0 SHL SUB AND PUSH2 0x1BD JUMPI PUSH1 0x40 MLOAD PUSH3 0x461BCD PUSH1 0xE5 SHL DUP2 MSTORE PUSH1 0x20 PUSH1 0x4 DUP3 ADD MSTORE PUSH1 0x2A PUSH1 0x24 DUP3 ADD MSTORE PUSH32 0x466C6F6174696E6720726174652070617965722063616E6E6F74206265207A65 PUSH1 0x44 DUP3 ADD MSTORE PUSH10 0x726F2061646472657373 PUSH1 0xB0 SHL PUSH1 0x64 DUP3 ADD MSTORE PUSH1 0x84 ADD PUSH2 0x147 JUMP JUMPDEST PUSH1 0x40 DUP5 ADD MLOAD PUSH1 0x1 PUSH1 0x1 PUSH1 0xA0 SHL SUB AND PUSH2 0x22A JUMPI PUSH1 0x40 MLOAD PUSH3 0x461BCD PUSH1 0xE5 SHL DUP2 MSTORE PUSH1 0x20 PUSH1 0x4 DUP3 ADD MSTORE PUSH1 0x2A PUSH1 0x24 DUP3 ADD MSTORE PUSH32 0x536574746C656D656E742063757272656E63792063616E6E6F74206265207A65 PUSH1 0x44 DUP3 ADD MSTORE PUSH10 0x726F2061646472657373 PUSH1 0xB0 SHL PUSH1 0x64 DUP3 ADD MSTORE PUSH1 0x84 ADD PUSH2 0x147 JUMP JUMPDEST PUSH0 DUP5 PUSH1 0xA0 ADD MLOAD GT PUSH2 0x28F JUMPI PUSH1 0x40 MLOAD PUSH3 0x461BCD PUSH1 0xE5 SHL DUP2 MSTORE PUSH1 0x20 PUSH1 0x4 DUP3 ADD MSTORE PUSH1 0x29 PUSH1 0x24 DUP3 ADD MSTORE PUSH32 0x4E6F74696F6E616C20616D6F756E74206D757374206265206772656174657220 PUSH1 0x44 DUP3 ADD MSTORE PUSH9 0x7468616E207A65726F PUSH1 0xB8 SHL PUSH1 0x64 DUP3 ADD MSTORE PUSH1 0x84 ADD PUSH2 0x147 JUMP JUMPDEST DUP4 PUSH1 0xE0 ADD MLOAD DUP5 PUSH1 0xC0 ADD MLOAD LT PUSH2 0x2F9 JUMPI PUSH1 0x40 MLOAD PUSH3 0x461BCD PUSH1 0xE5 SHL DUP2 MSTORE PUSH1 0x20 PUSH1 0x4 DUP3 ADD MSTORE PUSH1 0x2A PUSH1 0x24 DUP3 ADD MSTORE PUSH32 0x5374617274696E672064617465206D757374206265206265666F7265206D6174 PUSH1 0x44 DUP3 ADD MSTORE PUSH10 0x75726974792064617465 PUSH1 0xB0 SHL PUSH1 0x64 DUP3 ADD MSTORE PUSH1 0x84 ADD PUSH2 0x147 JUMP JUMPDEST PUSH8 0xDE0B6B3A7640000 PUSH2 0x30D DUP2 PUSH1 0x2 PUSH2 0x8BA JUMP JUMPDEST PUSH1 0x1C SSTORE DUP5 MLOAD PUSH2 0x31C SWAP1 DUP3 PUSH2 0x418 JUMP JUMPDEST PUSH1 0x20 DUP6 ADD MLOAD PUSH2 0x32B SWAP1 DUP3 PUSH2 0x418 JUMP JUMPDEST POP POP DUP11 MLOAD PUSH1 0x40 MLOAD PUSH4 0xE6A9F2AF PUSH1 0xE0 SHL DUP2 MSTORE PUSH1 0x1 PUSH1 0x1 PUSH1 0xA0 SHL SUB SWAP2 DUP3 AND PUSH1 0x4 DUP3 ADD MSTORE SWAP1 DUP10 AND SWAP6 POP PUSH4 0xE6A9F2AF SWAP5 POP PUSH1 0x24 ADD SWAP3 POP PUSH2 0x365 SWAP2 POP POP JUMP JUMPDEST PUSH0 PUSH1 0x40 MLOAD DUP1 DUP4 SUB DUP2 DUP7 DUP1 EXTCODESIZE ISZERO DUP1 ISZERO PUSH2 0x37B JUMPI PUSH0 PUSH0 REVERT JUMPDEST POP GAS STATICCALL ISZERO DUP1 ISZERO PUSH2 0x38D JUMPI RETURNDATASIZE PUSH0 PUSH0 RETURNDATACOPY RETURNDATASIZE PUSH0 REVERT JUMPDEST POP POP POP POP PUSH1 0x20 DUP7 ADD MLOAD PUSH1 0x40 MLOAD PUSH4 0xE6A9F2AF PUSH1 0xE0 SHL DUP2 MSTORE PUSH1 0x1 PUSH1 0x1 PUSH1 0xA0 SHL SUB SWAP2 DUP3 AND PUSH1 0x4 DUP3 ADD MSTORE SWAP1 DUP5 AND SWAP1 PUSH4 0xE6A9F2AF SWAP1 PUSH1 0x24 ADD PUSH0 PUSH1 0x40 MLOAD DUP1 DUP4 SUB DUP2 DUP7 DUP1 EXTCODESIZE ISZERO DUP1 ISZERO PUSH2 0x3D6 JUMPI PUSH0 PUSH0 REVERT JUMPDEST POP GAS STATICCALL ISZERO DUP1 ISZERO PUSH2 0x3E8 JUMPI RETURNDATASIZE PUSH0 PUSH0 RETURNDATACOPY RETURNDATASIZE PUSH0 REVERT JUMPDEST POP POP POP PUSH1 0x6 DUP7 SWAP1 SSTORE POP PUSH1 0x7 DUP5 SWAP1 SSTORE PUSH3 0x15180 PUSH1 0x9 SSTORE PUSH1 0x4 PUSH2 0x409 DUP11 DUP3 PUSH2 0x7EC JUMP JUMPDEST POP POP POP POP POP POP POP POP POP POP PUSH2 0x8EA JUMP JUMPDEST PUSH1 0x1 PUSH1 0x1 PUSH1 0xA0 SHL SUB DUP3 AND PUSH2 0x46E JUMPI PUSH1 0x40 MLOAD PUSH3 0x461BCD PUSH1 0xE5 SHL DUP2 MSTORE PUSH1 0x20 PUSH1 0x4 DUP3 ADD MSTORE PUSH1 0x1F PUSH1 0x24 DUP3 ADD MSTORE PUSH32 0x45524332303A206D696E7420746F20746865207A65726F206164647265737300 PUSH1 0x44 DUP3 ADD MSTORE PUSH1 0x64 ADD PUSH2 0x147 JUMP JUMPDEST DUP1 PUSH1 0x1B PUSH0 DUP3 DUP3 SLOAD PUSH2 0x47F SWAP2 SWAP1 PUSH2 0x8D7 JUMP JUMPDEST SWAP1 SWAP2 SSTORE POP POP PUSH1 0x1C SLOAD PUSH1 0x1D SLOAD PUSH1 0x1B SLOAD PUSH2 0x497 SWAP2 SWAP1 PUSH2 0x8D7 JUMP JUMPDEST GT ISZERO PUSH2 0x4C5 JUMPI PUSH1 0x1B SLOAD PUSH1 0x1C SLOAD PUSH1 0x40 MLOAD PUSH4 0xD6C6EE6F PUSH1 0xE0 SHL DUP2 MSTORE PUSH1 0x4 DUP2 ADD SWAP3 SWAP1 SWAP3 MSTORE PUSH1 0x24 DUP3 ADD MSTORE PUSH1 0x44 ADD PUSH2 0x147 JUMP JUMPDEST PUSH1 0x1 PUSH1 0x1 PUSH1 0xA0 SHL SUB DUP3 AND PUSH0 DUP2 DUP2 MSTORE PUSH1 0x19 PUSH1 0x20 SWAP1 DUP2 MSTORE PUSH1 0x40 DUP1 DUP4 KECCAK256 DUP1 SLOAD DUP7 ADD SWAP1 SSTORE MLOAD DUP5 DUP2 MSTORE PUSH32 0xDDF252AD1BE2C89B69C2B068FC378DAA952BA7F163C4A11628F55A4DF523B3EF SWAP2 ADD PUSH1 0x40 MLOAD DUP1 SWAP2 SUB SWAP1 LOG3 POP POP JUMP JUMPDEST POP POP POP JUMP JUMPDEST PUSH4 0x4E487B71 PUSH1 0xE0 SHL PUSH0 MSTORE PUSH1 0x41 PUSH1 0x4 MSTORE PUSH1 0x24 PUSH0 REVERT JUMPDEST PUSH1 0x40 MLOAD PUSH2 0x100 DUP2 ADD PUSH1 0x1 PUSH1 0x1 PUSH1 0x40 SHL SUB DUP2 GT DUP3 DUP3 LT OR ISZERO PUSH2 0x554 JUMPI PUSH2 0x554 PUSH2 0x51D JUMP JUMPDEST PUSH1 0x40 MSTORE SWAP1 JUMP JUMPDEST PUSH0 DUP3 PUSH1 0x1F DUP4 ADD SLT PUSH2 0x569 JUMPI PUSH0 PUSH0 REVERT JUMPDEST DUP2 MLOAD PUSH1 0x1 PUSH1 0x1 PUSH1 0x40 SHL SUB DUP2 GT ISZERO PUSH2 0x582 JUMPI PUSH2 0x582 PUSH2 0x51D JUMP JUMPDEST PUSH1 0x40 MLOAD PUSH1 0x1F DUP3 ADD PUSH1 0x1F NOT SWAP1 DUP2 AND PUSH1 0x3F ADD AND DUP2 ADD PUSH1 0x1 PUSH1 0x1 PUSH1 0x40 SHL SUB DUP2 GT DUP3 DUP3 LT OR ISZERO PUSH2 0x5B0 JUMPI PUSH2 0x5B0 PUSH2 0x51D JUMP JUMPDEST PUSH1 0x40 MSTORE DUP2 DUP2 MSTORE DUP4 DUP3 ADD PUSH1 0x20 ADD DUP6 LT ISZERO PUSH2 0x5C7 JUMPI PUSH0 PUSH0 REVERT JUMPDEST DUP2 PUSH1 0x20 DUP6 ADD PUSH1 0x20 DUP4 ADD MCOPY PUSH0 SWAP2 DUP2 ADD PUSH1 0x20 ADD SWAP2 SWAP1 SWAP2 MSTORE SWAP4 SWAP3 POP POP POP JUMP JUMPDEST DUP1 MLOAD PUSH1 0x1 PUSH1 0x1 PUSH1 0xA0 SHL SUB DUP2 AND DUP2 EQ PUSH2 0x5F9 JUMPI PUSH0 PUSH0 REVERT JUMPDEST SWAP2 SWAP1 POP JUMP JUMPDEST PUSH0 PUSH2 0x100 DUP3 DUP5 SUB SLT ISZERO PUSH2 0x60F JUMPI PUSH0 PUSH0 REVERT JUMPDEST PUSH2 0x617 PUSH2 0x531 JUMP JUMPDEST SWAP1 POP PUSH2 0x622 DUP3 PUSH2 0x5E3 JUMP JUMPDEST DUP2 MSTORE PUSH2 0x630 PUSH1 0x20 DUP4 ADD PUSH2 0x5E3 JUMP JUMPDEST PUSH1 0x20 DUP3 ADD MSTORE PUSH2 0x641 PUSH1 0x40 DUP4 ADD PUSH2 0x5E3 JUMP JUMPDEST PUSH1 0x40 DUP3 ADD MSTORE PUSH1 0x60 DUP3 DUP2 ADD MLOAD SWAP1 DUP3 ADD MSTORE PUSH1 0x80 DUP1 DUP4 ADD MLOAD SWAP1 DUP3 ADD MSTORE PUSH1 0xA0 DUP1 DUP4 ADD MLOAD SWAP1 DUP3 ADD MSTORE PUSH1 0xC0 DUP1 DUP4 ADD MLOAD SWAP1 DUP3 ADD MSTORE PUSH1 0xE0 SWAP2 DUP3 ADD MLOAD SWAP2 DUP2 ADD SWAP2 SWAP1 SWAP2 MSTORE SWAP2 SWAP1 POP JUMP JUMPDEST PUSH0 PUSH0 PUSH0 PUSH0 PUSH0 PUSH0 PUSH0 PUSH0 PUSH0 PUSH2 0x200 DUP11 DUP13 SUB SLT ISZERO PUSH2 0x699 JUMPI PUSH0 PUSH0 REVERT JUMPDEST DUP10 MLOAD PUSH1 0x1 PUSH1 0x1 PUSH1 0x40 SHL SUB DUP2 GT ISZERO PUSH2 0x6AE JUMPI PUSH0 PUSH0 REVERT JUMPDEST PUSH2 0x6BA DUP13 DUP3 DUP14 ADD PUSH2 0x55A JUMP JUMPDEST PUSH1 0x20 DUP13 ADD MLOAD SWAP1 SWAP11 POP SWAP1 POP PUSH1 0x1 PUSH1 0x1 PUSH1 0x40 SHL SUB DUP2 GT ISZERO PUSH2 0x6D7 JUMPI PUSH0 PUSH0 REVERT JUMPDEST PUSH2 0x6E3 DUP13 DUP3 DUP14 ADD PUSH2 0x55A JUMP JUMPDEST PUSH1 0x40 DUP13 ADD MLOAD SWAP1 SWAP10 POP SWAP1 POP PUSH1 0x1 PUSH1 0x1 PUSH1 0x40 SHL SUB DUP2 GT ISZERO PUSH2 0x700 JUMPI PUSH0 PUSH0 REVERT JUMPDEST PUSH2 0x70C DUP13 DUP3 DUP14 ADD PUSH2 0x55A JUMP JUMPDEST SWAP8 POP POP PUSH2 0x71C DUP12 PUSH1 0x60 DUP13 ADD PUSH2 0x5FE JUMP JUMPDEST PUSH2 0x160 DUP12 ADD MLOAD PUSH2 0x180 DUP13 ADD MLOAD SWAP2 SWAP8 POP SWAP6 POP SWAP4 POP PUSH2 0x73C PUSH2 0x1A0 DUP12 ADD PUSH2 0x5E3 JUMP JUMPDEST SWAP3 POP PUSH2 0x74B PUSH2 0x1C0 DUP12 ADD PUSH2 0x5E3 JUMP JUMPDEST SWAP2 POP PUSH2 0x75A PUSH2 0x1E0 DUP12 ADD PUSH2 0x5E3 JUMP JUMPDEST SWAP1 POP SWAP3 SWAP6 SWAP9 POP SWAP3 SWAP6 SWAP9 POP SWAP3 SWAP6 SWAP9 JUMP JUMPDEST PUSH1 0x1 DUP2 DUP2 SHR SWAP1 DUP3 AND DUP1 PUSH2 0x77D JUMPI PUSH1 0x7F DUP3 AND SWAP2 POP JUMPDEST PUSH1 0x20 DUP3 LT DUP2 SUB PUSH2 0x79B JUMPI PUSH4 0x4E487B71 PUSH1 0xE0 SHL PUSH0 MSTORE PUSH1 0x22 PUSH1 0x4 MSTORE PUSH1 0x24 PUSH0 REVERT JUMPDEST POP SWAP2 SWAP1 POP JUMP JUMPDEST PUSH1 0x1F DUP3 GT ISZERO PUSH2 0x518 JUMPI DUP1 PUSH0 MSTORE PUSH1 0x20 PUSH0 KECCAK256 PUSH1 0x1F DUP5 ADD PUSH1 0x5 SHR DUP2 ADD PUSH1 0x20 DUP6 LT ISZERO PUSH2 0x7C6 JUMPI POP DUP1 JUMPDEST PUSH1 0x1F DUP5 ADD PUSH1 0x5 SHR DUP3 ADD SWAP2 POP JUMPDEST DUP2 DUP2 LT ISZERO PUSH2 0x7E5 JUMPI PUSH0 DUP2 SSTORE PUSH1 0x1 ADD PUSH2 0x7D2 JUMP JUMPDEST POP POP POP POP POP JUMP JUMPDEST DUP2 MLOAD PUSH1 0x1 PUSH1 0x1 PUSH1 0x40 SHL SUB DUP2 GT ISZERO PUSH2 0x805 JUMPI PUSH2 0x805 PUSH2 0x51D JUMP JUMPDEST PUSH2 0x819 DUP2 PUSH2 0x813 DUP5 SLOAD PUSH2 0x769 JUMP JUMPDEST DUP5 PUSH2 0x7A1 JUMP JUMPDEST PUSH1 0x20 PUSH1 0x1F DUP3 GT PUSH1 0x1 DUP2 EQ PUSH2 0x84B JUMPI PUSH0 DUP4 ISZERO PUSH2 0x834 JUMPI POP DUP5 DUP3 ADD MLOAD JUMPDEST PUSH0 NOT PUSH1 0x3 DUP6 SWAP1 SHL SHR NOT AND PUSH1 0x1 DUP5 SWAP1 SHL OR DUP5 SSTORE PUSH2 0x7E5 JUMP JUMPDEST PUSH0 DUP5 DUP2 MSTORE PUSH1 0x20 DUP2 KECCAK256 PUSH1 0x1F NOT DUP6 AND SWAP2 JUMPDEST DUP3 DUP2 LT ISZERO PUSH2 0x87A JUMPI DUP8 DUP6 ADD MLOAD DUP3 SSTORE PUSH1 0x20 SWAP5 DUP6 ADD SWAP5 PUSH1 0x1 SWAP1 SWAP3 ADD SWAP2 ADD PUSH2 0x85A JUMP JUMPDEST POP DUP5 DUP3 LT ISZERO PUSH2 0x897 JUMPI DUP7 DUP5 ADD MLOAD PUSH0 NOT PUSH1 0x3 DUP8 SWAP1 SHL PUSH1 0xF8 AND SHR NOT AND DUP2 SSTORE JUMPDEST POP POP POP POP PUSH1 0x1 SWAP1 DUP2 SHL ADD SWAP1 SSTORE POP JUMP JUMPDEST PUSH4 0x4E487B71 PUSH1 0xE0 SHL PUSH0 MSTORE PUSH1 0x11 PUSH1 0x4 MSTORE PUSH1 0x24 PUSH0 REVERT JUMPDEST DUP1 DUP3 MUL DUP2 ISZERO DUP3 DUP3 DIV DUP5 EQ OR PUSH2 0x8D1 JUMPI PUSH2 0x8D1 PUSH2 0x8A6 JUMP JUMPDEST SWAP3 SWAP2 POP POP JUMP JUMPDEST DUP1 DUP3 ADD DUP1 DUP3 GT ISZERO PUSH2 0x8D1 JUMPI PUSH2 0x8D1 PUSH2 0x8A6 JUMP JUMPDEST PUSH2 0x48D1 DUP1 PUSH2 0x8F7 PUSH0 CODECOPY PUSH0 RETURN INVALID PUSH1 0x80 PUSH1 0x40 MSTORE CALLVALUE DUP1 ISZERO PUSH2 0xF JUMPI PUSH0 PUSH0 REVERT JUMPDEST POP PUSH1 0x4 CALLDATASIZE LT PUSH2 0x49B JUMPI PUSH0 CALLDATALOAD PUSH1 0xE0 SHR DUP1 PUSH4 0x88D695B2 GT PUSH2 0x263 JUMPI DUP1 PUSH4 0xABAD3E74 GT PUSH2 0x14B JUMPI DUP1 PUSH4 0xD59624B4 GT PUSH2 0xCA JUMPI DUP1 PUSH4 0xE6746EB7 GT PUSH2 0x8F JUMPI DUP1 PUSH4 0xE6746EB7 EQ PUSH2 0x905 JUMPI DUP1 PUSH4 0xE805156E EQ PUSH2 0x916 JUMPI DUP1 PUSH4 0xE9F748D4 EQ PUSH2 0x93B JUMPI DUP1 PUSH4 0xEC11C4E9 EQ PUSH2 0x943 JUMPI DUP1 PUSH4 0xF8981789 EQ PUSH2 0x5DD JUMPI DUP1 PUSH4 0xFC7E5FA8 EQ PUSH2 0x57C JUMPI PUSH0 PUSH0 REVERT JUMPDEST DUP1 PUSH4 0xD59624B4 EQ PUSH2 0x8CC JUMPI DUP1 PUSH4 0xD5ABEB01 EQ PUSH2 0x8D4 JUMPI DUP1 PUSH4 0xDCA0BAAD EQ PUSH2 0x8DC JUMPI DUP1 PUSH4 0xDD62ED3E EQ PUSH2 0x8E4 JUMPI DUP1 PUSH4 0xE5839836 EQ PUSH2 0x8F7 JUMPI PUSH0 PUSH0 REVERT JUMPDEST DUP1 PUSH4 0xC69C09CF GT PUSH2 0x110 JUMPI DUP1 PUSH4 0xC69C09CF EQ PUSH2 0x88E JUMPI DUP1 PUSH4 0xC6E91317 EQ PUSH2 0x89C JUMPI DUP1 PUSH4 0xC78B432E EQ PUSH2 0x8B1 JUMPI DUP1 PUSH4 0xCBF3F861 EQ PUSH2 0x5DD JUMPI DUP1 PUSH4 0xD19E5133 EQ PUSH2 0x8B9 JUMPI PUSH0 PUSH0 REVERT JUMPDEST DUP1 PUSH4 0xABAD3E74 EQ PUSH2 0x854 JUMPI DUP1 PUSH4 0xB84C8246 EQ PUSH2 0x85C JUMPI DUP1 PUSH4 0xBE43BEF5 EQ PUSH2 0x86A JUMPI DUP1 PUSH4 0xBEAD103E EQ PUSH2 0x87D JUMPI DUP1 PUSH4 0xC47F0027 EQ PUSH2 0x85C JUMPI PUSH0 PUSH0 REVERT JUMPDEST DUP1 PUSH4 0x9AACC0FB GT PUSH2 0x1E2 JUMPI DUP1 PUSH4 0xA457C2D7 GT PUSH2 0x1A7 JUMPI DUP1 PUSH4 0xA457C2D7 EQ PUSH2 0x7F6 JUMPI DUP1 PUSH4 0xA623FE86 EQ PUSH2 0x809 JUMPI DUP1 PUSH4 0xA9059CBB EQ PUSH2 0x831 JUMPI DUP1 PUSH4 0xA979FB89 EQ PUSH2 0x844 JUMPI DUP1 PUSH4 0xAAD5C2AF EQ PUSH2 0x84C JUMPI DUP1 PUSH4 0xABA63705 EQ PUSH2 0x54D JUMPI PUSH0 PUSH0 REVERT JUMPDEST DUP1 PUSH4 0x9AACC0FB EQ PUSH2 0x7B2 JUMPI DUP1 PUSH4 0x9DC29FAC EQ PUSH2 0x7BA JUMPI DUP1 PUSH4 0x9FC1D0E7 EQ PUSH2 0x7CD JUMPI DUP1 PUSH4 0xA2552571 EQ PUSH2 0x7DB JUMPI DUP1 PUSH4 0xA26C1AA2 EQ PUSH2 0x7EE JUMPI PUSH0 PUSH0 REVERT JUMPDEST DUP1 PUSH4 0x9285948A GT PUSH2 0x228 JUMPI DUP1 PUSH4 0x9285948A EQ PUSH2 0x70D JUMPI DUP1 PUSH4 0x92B002FA EQ PUSH2 0x723 JUMPI DUP1 PUSH4 0x94789FAF EQ PUSH2 0x734 JUMPI DUP1 PUSH4 0x95076801 EQ PUSH2 0x73C JUMPI DUP1 PUSH4 0x95D89B41 EQ PUSH2 0x7AA JUMPI PUSH0 PUSH0 REVERT JUMPDEST DUP1 PUSH4 0x88D695B2 EQ PUSH2 0x57C JUMPI DUP1 PUSH4 0x8903C5A2 EQ PUSH2 0x6E2 JUMPI DUP1 PUSH4 0x8D71833E EQ PUSH2 0x6EA JUMPI DUP1 PUSH4 0x8D8F2ADB EQ PUSH2 0x6FD JUMPI DUP1 PUSH4 0x8DC654A2 EQ PUSH2 0x705 JUMPI PUSH0 PUSH0 REVERT JUMPDEST DUP1 PUSH4 0x3FE0A83D GT PUSH2 0x386 JUMPI DUP1 PUSH4 0x6290865D GT PUSH2 0x305 JUMPI DUP1 PUSH4 0x70A08231 GT PUSH2 0x2CA JUMPI DUP1 PUSH4 0x70A08231 EQ PUSH2 0x685 JUMPI DUP1 PUSH4 0x7514B7ED EQ PUSH2 0x6AD JUMPI DUP1 PUSH4 0x8119C065 EQ PUSH2 0x6B5 JUMPI DUP1 PUSH4 0x838A3B92 EQ PUSH2 0x6BC JUMPI DUP1 PUSH4 0x8456CB59 EQ PUSH2 0x4D0 JUMPI DUP1 PUSH4 0x858F0E93 EQ PUSH2 0x6CF JUMPI PUSH0 PUSH0 REVERT JUMPDEST DUP1 PUSH4 0x6290865D EQ PUSH2 0x54D JUMPI DUP1 PUSH4 0x68573107 EQ PUSH2 0x57C JUMPI DUP1 PUSH4 0x698518E5 EQ PUSH2 0x657 JUMPI DUP1 PUSH4 0x6B7E8648 EQ PUSH2 0x65F JUMPI DUP1 PUSH4 0x6BA63956 EQ PUSH2 0x672 JUMPI PUSH0 PUSH0 REVERT JUMPDEST DUP1 PUSH4 0x4A6CC677 GT PUSH2 0x34B JUMPI DUP1 PUSH4 0x4A6CC677 EQ PUSH2 0x57C JUMPI DUP1 PUSH4 0x54FD4D50 EQ PUSH2 0x62F JUMPI DUP1 PUSH4 0x5C25C76C EQ PUSH2 0x636 JUMPI DUP1 PUSH4 0x5C975ABB EQ PUSH2 0x63E JUMPI DUP1 PUSH4 0x5CCC3114 EQ PUSH2 0x644 JUMPI PUSH0 PUSH0 REVERT JUMPDEST DUP1 PUSH4 0x3FE0A83D EQ PUSH2 0x5F6 JUMPI DUP1 PUSH4 0x40C10F19 EQ PUSH2 0x5FE JUMPI DUP1 PUSH4 0x42A47ABC EQ PUSH2 0x611 JUMPI DUP1 PUSH4 0x442447CA EQ PUSH2 0x627 JUMPI DUP1 PUSH4 0x4710362D EQ PUSH2 0x57C JUMPI PUSH0 PUSH0 REVERT JUMPDEST DUP1 PUSH4 0x1A7AF379 GT PUSH2 0x41D JUMPI DUP1 PUSH4 0x313CE567 GT PUSH2 0x3E2 JUMPI DUP1 PUSH4 0x313CE567 EQ PUSH2 0x5B3 JUMPI DUP1 PUSH4 0x39509351 EQ PUSH2 0x5C2 JUMPI DUP1 PUSH4 0x3CCFD60B EQ PUSH2 0x5D5 JUMPI DUP1 PUSH4 0x3D1DDC5B EQ PUSH2 0x5DD JUMPI DUP1 PUSH4 0x3E3FF7B6 EQ PUSH2 0x5EE JUMPI DUP1 PUSH4 0x3F4BA83A EQ PUSH2 0x4D0 JUMPI PUSH0 PUSH0 REVERT JUMPDEST DUP1 PUSH4 0x1A7AF379 EQ PUSH2 0x57C JUMPI DUP1 PUSH4 0x1FE56F7D EQ PUSH2 0x53B JUMPI DUP1 PUSH4 0x21C3CBC2 EQ PUSH2 0x590 JUMPI DUP1 PUSH4 0x23B872DD EQ PUSH2 0x598 JUMPI DUP1 PUSH4 0x27CBF376 EQ PUSH2 0x5AB JUMPI PUSH0 PUSH0 REVERT JUMPDEST DUP1 PUSH4 0x11DA60B4 GT PUSH2 0x463 JUMPI DUP1 PUSH4 0x11DA60B4 EQ PUSH2 0x533 JUMPI DUP1 PUSH4 0x125C4A33 EQ PUSH2 0x53B JUMPI DUP1 PUSH4 0x134E18F4 EQ PUSH2 0x54D JUMPI DUP1 PUSH4 0x158B1A57 EQ PUSH2 0x553 JUMPI DUP1 PUSH4 0x18160DDD EQ PUSH2 0x574 JUMPI PUSH0 PUSH0 REVERT JUMPDEST DUP1 PUSH4 0x6FDDE03 EQ PUSH2 0x49F JUMPI DUP1 PUSH4 0x8F7490C EQ PUSH2 0x4BD JUMPI DUP1 PUSH4 0x95EA7B3 EQ PUSH2 0x4D2 JUMPI DUP1 PUSH4 0xB6F20CC EQ PUSH2 0x4F5 JUMPI DUP1 PUSH4 0xD084EB8 EQ PUSH2 0x508 JUMPI JUMPDEST PUSH0 PUSH0 REVERT JUMPDEST PUSH2 0x4A7 PUSH2 0x956 JUMP JUMPDEST PUSH1 0x40 MLOAD PUSH2 0x4B4 SWAP2 SWAP1 PUSH2 0x39D3 JUMP JUMPDEST PUSH1 0x40 MLOAD DUP1 SWAP2 SUB SWAP1 RETURN JUMPDEST PUSH2 0x4D0 PUSH2 0x4CB CALLDATASIZE PUSH1 0x4 PUSH2 0x3A89 JUMP JUMPDEST PUSH2 0x9E6 JUMP JUMPDEST STOP JUMPDEST PUSH2 0x4E5 PUSH2 0x4E0 CALLDATASIZE PUSH1 0x4 PUSH2 0x3B0F JUMP JUMPDEST PUSH2 0xC41 JUMP JUMPDEST PUSH1 0x40 MLOAD SWAP1 ISZERO ISZERO DUP2 MSTORE PUSH1 0x20 ADD PUSH2 0x4B4 JUMP JUMPDEST PUSH2 0x4D0 PUSH2 0x503 CALLDATASIZE PUSH1 0x4 PUSH2 0x3B37 JUMP JUMPDEST PUSH2 0xC5A JUMP JUMPDEST PUSH1 0xF SLOAD PUSH2 0x51B SWAP1 PUSH1 0x1 PUSH1 0x1 PUSH1 0xA0 SHL SUB AND DUP2 JUMP JUMPDEST PUSH1 0x40 MLOAD PUSH1 0x1 PUSH1 0x1 PUSH1 0xA0 SHL SUB SWAP1 SWAP2 AND DUP2 MSTORE PUSH1 0x20 ADD PUSH2 0x4B4 JUMP JUMPDEST PUSH2 0x4D0 PUSH2 0xCF4 JUMP JUMPDEST PUSH2 0x4D0 PUSH2 0x549 CALLDATASIZE PUSH1 0x4 PUSH2 0x3B0F JUMP JUMPDEST POP POP JUMP JUMPDEST PUSH0 PUSH2 0x51B JUMP JUMPDEST PUSH2 0x566 PUSH2 0x561 CALLDATASIZE PUSH1 0x4 PUSH2 0x3B37 JUMP JUMPDEST POP PUSH0 SWAP1 JUMP JUMPDEST PUSH1 0x40 MLOAD SWAP1 DUP2 MSTORE PUSH1 0x20 ADD PUSH2 0x4B4 JUMP JUMPDEST PUSH1 0x1B SLOAD PUSH2 0x566 JUMP JUMPDEST PUSH2 0x4D0 PUSH2 0x58A CALLDATASIZE PUSH1 0x4 PUSH2 0x3B97 JUMP JUMPDEST POP POP POP POP JUMP JUMPDEST PUSH2 0x4D0 PUSH2 0x1339 JUMP JUMPDEST PUSH2 0x4E5 PUSH2 0x5A6 CALLDATASIZE PUSH1 0x4 PUSH2 0x3C01 JUMP JUMPDEST PUSH2 0x153C JUMP JUMPDEST PUSH1 0x6 SLOAD PUSH2 0x566 JUMP JUMPDEST PUSH1 0x40 MLOAD PUSH1 0x12 DUP2 MSTORE PUSH1 0x20 ADD PUSH2 0x4B4 JUMP JUMPDEST PUSH2 0x4E5 PUSH2 0x5D0 CALLDATASIZE PUSH1 0x4 PUSH2 0x3B0F JUMP JUMPDEST PUSH2 0x155F JUMP JUMPDEST PUSH2 0x4D0 PUSH2 0x1580 JUMP JUMPDEST PUSH2 0x4D0 PUSH2 0x5EB CALLDATASIZE PUSH1 0x4 PUSH2 0x3B37 JUMP JUMPDEST POP JUMP JUMPDEST PUSH1 0x17 SLOAD PUSH2 0x566 JUMP JUMPDEST PUSH2 0x4D0 PUSH2 0x166A JUMP JUMPDEST PUSH2 0x4D0 PUSH2 0x60C CALLDATASIZE PUSH1 0x4 PUSH2 0x3B0F JUMP JUMPDEST PUSH2 0x1A7D JUMP JUMPDEST PUSH2 0x4D0 PUSH2 0x61F CALLDATASIZE PUSH1 0x4 PUSH2 0x3C3B JUMP JUMPDEST POP POP POP POP POP POP JUMP JUMPDEST PUSH2 0x4D0 PUSH2 0x1B7D JUMP JUMPDEST PUSH1 0x60 PUSH2 0x4A7 JUMP JUMPDEST PUSH1 0x15 SLOAD PUSH2 0x566 JUMP JUMPDEST PUSH0 PUSH2 0x4E5 JUMP JUMPDEST PUSH2 0x4D0 PUSH2 0x652 CALLDATASIZE PUSH1 0x4 PUSH2 0x3CD7 JUMP JUMPDEST PUSH2 0x1BF4 JUMP JUMPDEST PUSH1 0x14 SLOAD PUSH2 0x566 JUMP JUMPDEST PUSH2 0x4D0 PUSH2 0x66D CALLDATASIZE PUSH1 0x4 PUSH2 0x3D69 JUMP JUMPDEST PUSH2 0x1D5A JUMP JUMPDEST PUSH2 0x4D0 PUSH2 0x680 CALLDATASIZE PUSH1 0x4 PUSH2 0x3DB5 JUMP JUMPDEST PUSH2 0x1D76 JUMP JUMPDEST PUSH2 0x566 PUSH2 0x693 CALLDATASIZE PUSH1 0x4 PUSH2 0x3B37 JUMP JUMPDEST PUSH1 0x1 PUSH1 0x1 PUSH1 0xA0 SHL SUB AND PUSH0 SWAP1 DUP2 MSTORE PUSH1 0x19 PUSH1 0x20 MSTORE PUSH1 0x40 SWAP1 KECCAK256 SLOAD SWAP1 JUMP JUMPDEST PUSH1 0x9 SLOAD PUSH2 0x566 JUMP JUMPDEST PUSH1 0x1 PUSH2 0x4E5 JUMP JUMPDEST PUSH2 0x4D0 PUSH2 0x6CA CALLDATASIZE PUSH1 0x4 PUSH2 0x3A89 JUMP JUMPDEST PUSH2 0x1DFF JUMP JUMPDEST PUSH2 0x4D0 PUSH2 0x6DD CALLDATASIZE PUSH1 0x4 PUSH2 0x3CD7 JUMP JUMPDEST PUSH2 0x1F25 JUMP JUMPDEST PUSH2 0x566 PUSH2 0x225B JUMP JUMPDEST PUSH2 0x4D0 PUSH2 0x6F8 CALLDATASIZE PUSH1 0x4 PUSH2 0x3B37 JUMP JUMPDEST PUSH2 0x22CC JUMP JUMPDEST PUSH2 0x4D0 PUSH2 0x235B JUMP JUMPDEST PUSH2 0x4D0 PUSH2 0x24BE JUMP JUMPDEST PUSH2 0x4E5 PUSH2 0x71B CALLDATASIZE PUSH1 0x4 PUSH2 0x3DE2 JUMP JUMPDEST PUSH0 SWAP4 SWAP3 POP POP POP JUMP JUMPDEST PUSH1 0x12 SLOAD PUSH1 0x1 PUSH1 0x1 PUSH1 0xA0 SHL SUB AND PUSH2 0x51B JUMP JUMPDEST PUSH2 0x566 PUSH2 0x26D6 JUMP JUMPDEST PUSH2 0x78F PUSH2 0x74A CALLDATASIZE PUSH1 0x4 PUSH2 0x3B37 JUMP JUMPDEST PUSH1 0x40 DUP1 MLOAD DUP1 DUP3 ADD SWAP1 SWAP2 MSTORE PUSH0 DUP1 DUP3 MSTORE PUSH1 0x20 DUP3 ADD MSTORE POP PUSH1 0x1 PUSH1 0x1 PUSH1 0xA0 SHL SUB AND PUSH0 SWAP1 DUP2 MSTORE PUSH1 0x2 PUSH1 0x20 SWAP1 DUP2 MSTORE PUSH1 0x40 SWAP2 DUP3 SWAP1 KECCAK256 DUP3 MLOAD DUP1 DUP5 ADD SWAP1 SWAP4 MSTORE DUP1 SLOAD DUP4 MSTORE PUSH1 0x1 ADD SLOAD SWAP1 DUP3 ADD MSTORE SWAP1 JUMP JUMPDEST PUSH1 0x40 DUP1 MLOAD DUP3 MLOAD DUP2 MSTORE PUSH1 0x20 SWAP3 DUP4 ADD MLOAD SWAP3 DUP2 ADD SWAP3 SWAP1 SWAP3 MSTORE ADD PUSH2 0x4B4 JUMP JUMPDEST PUSH2 0x4A7 PUSH2 0x2751 JUMP JUMPDEST PUSH2 0x4D0 PUSH2 0x2760 JUMP JUMPDEST PUSH2 0x4D0 PUSH2 0x7C8 CALLDATASIZE PUSH1 0x4 PUSH2 0x3B0F JUMP JUMPDEST PUSH2 0x2930 JUMP JUMPDEST PUSH2 0x4E5 PUSH2 0x71B CALLDATASIZE PUSH1 0x4 PUSH2 0x3C01 JUMP JUMPDEST PUSH1 0xE SLOAD PUSH2 0x51B SWAP1 PUSH1 0x1 PUSH1 0x1 PUSH1 0xA0 SHL SUB AND DUP2 JUMP JUMPDEST PUSH1 0x16 SLOAD PUSH2 0x566 JUMP JUMPDEST PUSH2 0x4E5 PUSH2 0x804 CALLDATASIZE PUSH1 0x4 PUSH2 0x3B0F JUMP JUMPDEST PUSH2 0x2A6C JUMP JUMPDEST PUSH2 0x566 PUSH2 0x817 CALLDATASIZE PUSH1 0x4 PUSH2 0x3B37 JUMP JUMPDEST PUSH1 0x1 PUSH1 0x1 PUSH1 0xA0 SHL SUB AND PUSH0 SWAP1 DUP2 MSTORE PUSH1 0x20 DUP2 SWAP1 MSTORE PUSH1 0x40 SWAP1 KECCAK256 SLOAD SWAP1 JUMP JUMPDEST PUSH2 0x4E5 PUSH2 0x83F CALLDATASIZE PUSH1 0x4 PUSH2 0x3B0F JUMP JUMPDEST PUSH2 0x2AE6 JUMP JUMPDEST PUSH2 0x4A7 PUSH2 0x2AF3 JUMP JUMPDEST PUSH1 0x7 SLOAD PUSH2 0x566 JUMP JUMPDEST PUSH1 0x8 SLOAD PUSH2 0x566 JUMP JUMPDEST PUSH2 0x4D0 PUSH2 0x549 CALLDATASIZE PUSH1 0x4 PUSH2 0x3E22 JUMP JUMPDEST PUSH1 0x3 SLOAD PUSH1 0xFF AND PUSH1 0x40 MLOAD PUSH2 0x4B4 SWAP2 SWAP1 PUSH2 0x3EA2 JUMP JUMPDEST PUSH1 0x13 SLOAD PUSH1 0x1 PUSH1 0x1 PUSH1 0xA0 SHL SUB AND PUSH2 0x51B JUMP JUMPDEST PUSH2 0x4D0 PUSH2 0x549 CALLDATASIZE PUSH1 0x4 PUSH2 0x3EC8 JUMP JUMPDEST PUSH2 0x8A4 PUSH2 0x2B02 JUMP JUMPDEST PUSH1 0x40 MLOAD PUSH2 0x4B4 SWAP2 SWAP1 PUSH2 0x3EFD JUMP JUMPDEST PUSH2 0x4D0 PUSH2 0x1D5A JUMP JUMPDEST PUSH2 0x4D0 PUSH2 0x8C7 CALLDATASIZE PUSH1 0x4 PUSH2 0x3A89 JUMP JUMPDEST PUSH2 0x2BA3 JUMP JUMPDEST PUSH1 0x18 SLOAD PUSH2 0x566 JUMP JUMPDEST PUSH1 0x1C SLOAD PUSH2 0x566 JUMP JUMPDEST PUSH2 0x4A7 PUSH2 0x2D3A JUMP JUMPDEST PUSH2 0x566 PUSH2 0x8F2 CALLDATASIZE PUSH1 0x4 PUSH2 0x3F84 JUMP JUMPDEST PUSH2 0x2DC6 JUMP JUMPDEST PUSH2 0x4E5 PUSH2 0x561 CALLDATASIZE PUSH1 0x4 PUSH2 0x3B37 JUMP JUMPDEST PUSH1 0x11 SLOAD PUSH1 0x1 PUSH1 0x1 PUSH1 0xA0 SHL SUB AND PUSH2 0x51B JUMP JUMPDEST PUSH2 0x92D PUSH1 0xD SLOAD PUSH1 0xC SLOAD PUSH1 0x1 PUSH1 0x1 PUSH1 0xA0 SHL SUB SWAP1 SWAP2 AND SWAP2 JUMP JUMPDEST PUSH1 0x40 MLOAD PUSH2 0x4B4 SWAP3 SWAP2 SWAP1 PUSH2 0x3FB5 JUMP JUMPDEST PUSH2 0x4A7 PUSH2 0x2DF0 JUMP JUMPDEST PUSH2 0x4A7 PUSH2 0x951 CALLDATASIZE PUSH1 0x4 PUSH2 0x3CD7 JUMP JUMPDEST PUSH2 0x2DFF JUMP JUMPDEST PUSH1 0x60 PUSH1 0x1E DUP1 SLOAD PUSH2 0x965 SWAP1 PUSH2 0x3FCE JUMP JUMPDEST DUP1 PUSH1 0x1F ADD PUSH1 0x20 DUP1 SWAP2 DIV MUL PUSH1 0x20 ADD PUSH1 0x40 MLOAD SWAP1 DUP2 ADD PUSH1 0x40 MSTORE DUP1 SWAP3 SWAP2 SWAP1 DUP2 DUP2 MSTORE PUSH1 0x20 ADD DUP3 DUP1 SLOAD PUSH2 0x991 SWAP1 PUSH2 0x3FCE JUMP JUMPDEST DUP1 ISZERO PUSH2 0x9DC JUMPI DUP1 PUSH1 0x1F LT PUSH2 0x9B3 JUMPI PUSH2 0x100 DUP1 DUP4 SLOAD DIV MUL DUP4 MSTORE SWAP2 PUSH1 0x20 ADD SWAP2 PUSH2 0x9DC JUMP JUMPDEST DUP3 ADD SWAP2 SWAP1 PUSH0 MSTORE PUSH1 0x20 PUSH0 KECCAK256 SWAP1 JUMPDEST DUP2 SLOAD DUP2 MSTORE SWAP1 PUSH1 0x1 ADD SWAP1 PUSH1 0x20 ADD DUP1 DUP4 GT PUSH2 0x9BF JUMPI DUP3 SWAP1 SUB PUSH1 0x1F AND DUP3 ADD SWAP2 JUMPDEST POP POP POP POP POP SWAP1 POP SWAP1 JUMP JUMPDEST PUSH1 0x11 SLOAD PUSH1 0x1 PUSH1 0x1 PUSH1 0xA0 SHL SUB AND CALLER EQ DUP1 PUSH2 0xA09 JUMPI POP PUSH1 0x12 SLOAD PUSH1 0x1 PUSH1 0x1 PUSH1 0xA0 SHL SUB AND CALLER EQ JUMPDEST PUSH2 0xA2E JUMPI PUSH1 0x40 MLOAD PUSH3 0x461BCD PUSH1 0xE5 SHL DUP2 MSTORE PUSH1 0x4 ADD PUSH2 0xA25 SWAP1 PUSH2 0x4006 JUMP JUMPDEST PUSH1 0x40 MLOAD DUP1 SWAP2 SUB SWAP1 REVERT JUMPDEST PUSH1 0x5 PUSH1 0x3 SLOAD PUSH1 0xFF AND PUSH1 0x8 DUP2 GT ISZERO PUSH2 0xA47 JUMPI PUSH2 0xA47 PUSH2 0x3E8E JUMP JUMPDEST EQ PUSH2 0xA64 JUMPI PUSH1 0x40 MLOAD PUSH3 0x461BCD PUSH1 0xE5 SHL DUP2 MSTORE PUSH1 0x4 ADD PUSH2 0xA25 SWAP1 PUSH2 0x403D JUMP JUMPDEST PUSH1 0x18 SLOAD TIMESTAMP GT ISZERO PUSH2 0xA86 JUMPI PUSH1 0x40 MLOAD PUSH3 0x461BCD PUSH1 0xE5 SHL DUP2 MSTORE PUSH1 0x4 ADD PUSH2 0xA25 SWAP1 PUSH2 0x4074 JUMP JUMPDEST PUSH0 PUSH2 0xA8F PUSH2 0x33DD JUMP JUMPDEST SWAP1 POP PUSH0 DUP5 DUP5 DUP5 PUSH1 0x40 MLOAD PUSH1 0x20 ADD PUSH2 0xAA7 SWAP4 SWAP3 SWAP2 SWAP1 PUSH2 0x40BE JUMP JUMPDEST PUSH1 0x40 DUP1 MLOAD DUP1 DUP4 SUB PUSH1 0x1F NOT ADD DUP2 MSTORE SWAP2 DUP2 MSTORE DUP2 MLOAD PUSH1 0x20 SWAP3 DUP4 ADD KECCAK256 PUSH0 DUP2 DUP2 MSTORE PUSH1 0x1 SWAP1 SWAP4 MSTORE SWAP2 KECCAK256 SLOAD SWAP1 SWAP2 POP PUSH1 0x1 PUSH1 0x1 PUSH1 0xA0 SHL SUB DUP4 DUP2 AND SWAP2 AND EQ PUSH2 0xAFD JUMPI DUP2 DUP2 PUSH1 0x40 MLOAD PUSH4 0x212D5A0D PUSH1 0xE1 SHL DUP2 MSTORE PUSH1 0x4 ADD PUSH2 0xA25 SWAP3 SWAP2 SWAP1 PUSH2 0x3FB5 JUMP JUMPDEST PUSH0 DUP2 DUP2 MSTORE PUSH1 0x1 PUSH1 0x20 MSTORE PUSH1 0x40 DUP2 KECCAK256 DUP1 SLOAD PUSH1 0x1 PUSH1 0x1 PUSH1 0xA0 SHL SUB NOT AND SWAP1 SSTORE PUSH2 0xB20 PUSH2 0x33DD JUMP JUMPDEST PUSH1 0x24 DUP1 SLOAD PUSH1 0x1 PUSH1 0x1 PUSH1 0xA0 SHL SUB NOT AND CALLER SWAP1 DUP2 OR SWAP1 SWAP2 SSTORE PUSH1 0x1 PUSH1 0x1 PUSH1 0xA0 SHL SUB DUP3 AND PUSH0 SWAP1 DUP2 MSTORE PUSH1 0x2 PUSH1 0x20 MSTORE PUSH1 0x40 DUP1 DUP3 KECCAK256 SLOAD SWAP3 DUP3 MSTORE DUP2 KECCAK256 SLOAD SWAP3 SWAP4 POP SWAP2 PUSH2 0xB62 SWAP2 SWAP1 PUSH2 0x412A JUMP JUMPDEST PUSH1 0x1 PUSH1 0x1 PUSH1 0xA0 SHL SUB DUP1 DUP5 AND PUSH0 SWAP1 DUP2 MSTORE PUSH1 0x2 PUSH1 0x20 MSTORE PUSH1 0x40 DUP1 DUP3 KECCAK256 PUSH1 0x1 SWAP1 DUP2 ADD SLOAD PUSH1 0x24 SLOAD SWAP1 SWAP5 AND DUP4 MSTORE SWAP1 DUP3 KECCAK256 ADD SLOAD SWAP3 SWAP4 POP SWAP2 PUSH2 0xB9C SWAP2 SWAP1 PUSH2 0x412A JUMP JUMPDEST SWAP1 POP PUSH2 0xBA8 DUP2 DUP4 PUSH2 0x412A JUMP JUMPDEST PUSH1 0x20 SWAP1 DUP2 SSTORE PUSH1 0x24 SLOAD PUSH1 0x1 PUSH1 0x1 PUSH1 0xA0 SHL SUB DUP1 DUP7 AND PUSH0 SWAP1 DUP2 MSTORE PUSH1 0x2 SWAP1 SWAP4 MSTORE PUSH1 0x40 DUP1 DUP5 KECCAK256 DUP5 DUP2 SSTORE PUSH1 0x1 SWAP1 DUP2 ADD DUP6 SWAP1 SSTORE SWAP2 SWAP1 SWAP3 AND DUP4 MSTORE SWAP1 DUP3 KECCAK256 DUP3 DUP2 SSTORE ADD SSTORE PUSH2 0xBEA PUSH2 0x1B7D JUMP JUMPDEST PUSH1 0x3 DUP1 SLOAD PUSH1 0xFF NOT AND PUSH1 0x7 OR SWAP1 SSTORE PUSH1 0x20 SLOAD PUSH1 0x40 MLOAD PUSH32 0xC953DBF4723A8AC8A4D5B8A1EB3E75FD09A147CFBF9EFBF39782E8D257A7FFA0 SWAP2 PUSH2 0xC2F SWAP2 CALLER SWAP2 PUSH1 0x4 SWAP2 DUP12 SWAP1 PUSH2 0x41BC JUMP JUMPDEST PUSH1 0x40 MLOAD DUP1 SWAP2 SUB SWAP1 LOG1 POP POP POP POP POP POP POP POP JUMP JUMPDEST PUSH0 CALLER PUSH2 0xC4E DUP2 DUP6 DUP6 PUSH2 0x3411 JUMP JUMPDEST PUSH1 0x1 SWAP2 POP POP JUMPDEST SWAP3 SWAP2 POP POP JUMP JUMPDEST PUSH1 0x11 SLOAD PUSH1 0x1 PUSH1 0x1 PUSH1 0xA0 SHL SUB AND CALLER EQ DUP1 PUSH2 0xC7D JUMPI POP PUSH1 0x12 SLOAD PUSH1 0x1 PUSH1 0x1 PUSH1 0xA0 SHL SUB AND CALLER EQ JUMPDEST PUSH2 0xC99 JUMPI PUSH1 0x40 MLOAD PUSH3 0x461BCD PUSH1 0xE5 SHL DUP2 MSTORE PUSH1 0x4 ADD PUSH2 0xA25 SWAP1 PUSH2 0x4006 JUMP JUMPDEST PUSH1 0xF DUP1 SLOAD PUSH1 0x1 PUSH1 0x1 PUSH1 0xA0 SHL SUB NOT AND PUSH1 0x1 PUSH1 0x1 PUSH1 0xA0 SHL SUB DUP4 AND OR SWAP1 SSTORE PUSH1 0x40 MLOAD PUSH32 0xFC38FD749EAB320F0D4F8B271C0368CA8D4B1697FA0AAD2CB82FC8233444FEE8 SWAP1 PUSH2 0xCE9 SWAP1 PUSH1 0x4 SWAP1 CALLER SWAP1 DUP6 SWAP1 PUSH2 0x4202 JUMP JUMPDEST PUSH1 0x40 MLOAD DUP1 SWAP2 SUB SWAP1 LOG1 POP JUMP JUMPDEST PUSH1 0x18 SLOAD TIMESTAMP GT PUSH2 0xD15 JUMPI PUSH1 0x40 MLOAD PUSH3 0x461BCD PUSH1 0xE5 SHL DUP2 MSTORE PUSH1 0x4 ADD PUSH2 0xA25 SWAP1 PUSH2 0x4234 JUMP JUMPDEST PUSH1 0xF SLOAD PUSH1 0x1 PUSH1 0x1 PUSH1 0xA0 SHL SUB AND CALLER EQ PUSH2 0xD3F JUMPI PUSH1 0x40 MLOAD PUSH3 0x461BCD PUSH1 0xE5 SHL DUP2 MSTORE PUSH1 0x4 ADD PUSH2 0xA25 SWAP1 PUSH2 0x426B JUMP JUMPDEST PUSH1 0x6 SLOAD PUSH1 0x11 SLOAD PUSH1 0x1 PUSH1 0x1 PUSH1 0xA0 SHL SUB AND PUSH0 SWAP1 DUP2 MSTORE PUSH1 0x2 PUSH1 0x20 MSTORE PUSH1 0x40 SWAP1 KECCAK256 SLOAD PUSH2 0xD66 SWAP2 SWAP1 PUSH2 0x42BF JUMP JUMPDEST PUSH1 0xA SSTORE PUSH1 0x6 SLOAD PUSH1 0x12 SLOAD PUSH1 0x1 PUSH1 0x1 PUSH1 0xA0 SHL SUB AND PUSH0 SWAP1 DUP2 MSTORE PUSH1 0x2 PUSH1 0x20 MSTORE PUSH1 0x40 SWAP1 KECCAK256 SLOAD PUSH2 0xD90 SWAP2 SWAP1 PUSH2 0x42BF JUMP JUMPDEST PUSH1 0xB DUP2 SWAP1 SSTORE PUSH1 0xA SLOAD PUSH1 0x12 SWAP2 SWAP1 SUB PUSH2 0xFAC JUMPI PUSH0 PUSH2 0xDAD DUP3 PUSH1 0xA PUSH2 0x43B5 JUMP JUMPDEST PUSH1 0x11 SLOAD SWAP1 SWAP2 POP PUSH2 0xDC6 SWAP1 PUSH1 0x1 PUSH1 0x1 PUSH1 0xA0 SHL SUB AND DUP3 PUSH2 0x2930 JUMP JUMPDEST PUSH1 0x12 SLOAD PUSH2 0xDDC SWAP1 PUSH1 0x1 PUSH1 0x1 PUSH1 0xA0 SHL SUB AND DUP3 PUSH2 0x2930 JUMP JUMPDEST PUSH1 0x3 DUP1 SLOAD PUSH1 0x8 PUSH1 0xFF NOT SWAP1 SWAP2 AND OR SWAP1 SSTORE PUSH1 0x11 SLOAD PUSH1 0x1 PUSH1 0x1 PUSH1 0xA0 SHL SUB SWAP1 DUP2 AND PUSH0 SWAP1 DUP2 MSTORE PUSH1 0x20 DUP2 DUP2 MSTORE PUSH1 0x40 DUP1 DUP4 KECCAK256 DUP4 SWAP1 SSTORE PUSH1 0x12 SLOAD DUP5 AND DUP4 MSTORE DUP1 DUP4 KECCAK256 DUP4 SWAP1 SSTORE DUP1 MLOAD PUSH1 0xC0 DUP2 ADD DUP3 MSTORE DUP4 DUP2 MSTORE SWAP2 DUP3 ADD DUP4 DUP2 MSTORE DUP3 DUP3 ADD DUP5 DUP2 MSTORE TIMESTAMP PUSH1 0x60 DUP6 ADD SWAP1 DUP2 MSTORE PUSH1 0xA DUP1 SLOAD PUSH1 0x80 DUP8 ADD SWAP1 DUP2 MSTORE PUSH1 0xB DUP1 SLOAD PUSH1 0xA0 DUP10 ADD SWAP1 DUP2 MSTORE PUSH1 0x10 DUP1 SLOAD PUSH1 0x1 DUP2 ADD DUP3 SSTORE SWAP1 DUP12 MSTORE SWAP9 MLOAD PUSH1 0x6 SWAP1 SWAP10 MUL PUSH32 0x1B6847DC741A1B0CD08D278845F9D819D87B734759AFB55FE2DE5CB82A9AE672 DUP2 ADD DUP1 SLOAD SWAP11 DUP14 AND PUSH1 0x1 PUSH1 0x1 PUSH1 0xA0 SHL SUB NOT SWAP12 DUP13 AND OR SWAP1 SSTORE SWAP7 MLOAD PUSH32 0x1B6847DC741A1B0CD08D278845F9D819D87B734759AFB55FE2DE5CB82A9AE673 DUP9 ADD DUP1 SLOAD SWAP2 SWAP1 SWAP13 AND SWAP10 AND SWAP9 SWAP1 SWAP9 OR SWAP1 SWAP10 SSTORE SWAP3 MLOAD PUSH32 0x1B6847DC741A1B0CD08D278845F9D819D87B734759AFB55FE2DE5CB82A9AE674 DUP6 ADD SSTORE SWAP1 MLOAD PUSH32 0x1B6847DC741A1B0CD08D278845F9D819D87B734759AFB55FE2DE5CB82A9AE675 DUP5 ADD SSTORE SWAP1 MLOAD PUSH32 0x1B6847DC741A1B0CD08D278845F9D819D87B734759AFB55FE2DE5CB82A9AE676 DUP4 ADD SSTORE SWAP3 MLOAD PUSH32 0x1B6847DC741A1B0CD08D278845F9D819D87B734759AFB55FE2DE5CB82A9AE677 SWAP1 SWAP2 ADD SSTORE SWAP1 SLOAD SWAP3 SLOAD SWAP1 MLOAD PUSH32 0xC2E77EF815A40A7ACF35F639836ECC092A752D681C8F8E8BEAA1BF23280B6AB4 SWAP4 PUSH2 0xFA0 SWAP4 PUSH1 0x4 SWAP4 SWAP1 SWAP3 DUP4 SWAP3 DUP4 SWAP3 SWAP1 SWAP2 PUSH2 0x43C3 JUMP JUMPDEST PUSH1 0x40 MLOAD DUP1 SWAP2 SUB SWAP1 LOG1 POP POP JUMP JUMPDEST PUSH1 0xB SLOAD PUSH1 0xA SLOAD GT ISZERO PUSH2 0x12D8 JUMPI PUSH1 0xB SLOAD PUSH1 0xA SLOAD PUSH2 0xFC8 SWAP2 SWAP1 PUSH2 0x42BF JUMP JUMPDEST PUSH1 0xC DUP2 SWAP1 SSTORE PUSH1 0x11 SLOAD PUSH1 0x23 DUP1 SLOAD PUSH1 0x1 PUSH1 0x1 PUSH1 0xA0 SHL SUB SWAP3 DUP4 AND PUSH1 0x1 PUSH1 0x1 PUSH1 0xA0 SHL SUB NOT SWAP2 DUP3 AND DUP2 OR SWAP1 SWAP3 SSTORE PUSH1 0x12 SLOAD PUSH1 0xD DUP1 SLOAD SWAP2 SWAP1 SWAP5 AND SWAP2 AND OR SWAP1 SWAP2 SSTORE PUSH0 SWAP1 DUP2 MSTORE PUSH1 0x2 PUSH1 0x20 MSTORE PUSH1 0x40 SWAP1 KECCAK256 SLOAD PUSH2 0x1019 SWAP2 SWAP1 PUSH2 0x42BF JUMP JUMPDEST PUSH1 0x23 DUP1 SLOAD PUSH1 0x1 PUSH1 0x1 PUSH1 0xA0 SHL SUB SWAP1 DUP2 AND PUSH0 SWAP1 DUP2 MSTORE PUSH1 0x2 PUSH1 0x20 SWAP1 DUP2 MSTORE PUSH1 0x40 DUP1 DUP4 KECCAK256 SWAP6 SWAP1 SWAP6 SSTORE SWAP3 SLOAD SWAP1 SWAP2 AND DUP2 MSTORE SWAP1 DUP2 SWAP1 MSTORE SWAP1 DUP2 KECCAK256 DUP2 SWAP1 SSTORE PUSH2 0x1058 DUP3 PUSH1 0xA PUSH2 0x43B5 JUMP JUMPDEST PUSH1 0x11 SLOAD SWAP1 SWAP2 POP PUSH2 0x1071 SWAP1 PUSH1 0x1 PUSH1 0x1 PUSH1 0xA0 SHL SUB AND DUP3 PUSH2 0x2930 JUMP JUMPDEST PUSH1 0x12 SLOAD PUSH2 0x1087 SWAP1 PUSH1 0x1 PUSH1 0x1 PUSH1 0xA0 SHL SUB AND DUP3 PUSH2 0x2930 JUMP JUMPDEST PUSH2 0x11F1 PUSH1 0xC SLOAD PUSH1 0x40 DUP1 MLOAD PUSH1 0xC0 DUP2 ADD DUP3 MSTORE PUSH1 0x23 SLOAD PUSH1 0x1 PUSH1 0x1 PUSH1 0xA0 SHL SUB SWAP1 DUP2 AND DUP3 MSTORE PUSH1 0xD SLOAD DUP2 AND PUSH1 0x20 DUP4 ADD SWAP1 DUP2 MSTORE SWAP3 DUP3 ADD SWAP4 DUP5 MSTORE TIMESTAMP PUSH1 0x60 DUP4 ADD SWAP1 DUP2 MSTORE PUSH1 0xA SLOAD PUSH1 0x80 DUP5 ADD SWAP1 DUP2 MSTORE PUSH1 0xB SLOAD PUSH1 0xA0 DUP6 ADD SWAP1 DUP2 MSTORE PUSH1 0x10 DUP1 SLOAD PUSH1 0x1 DUP2 ADD DUP3 SSTORE PUSH0 SWAP2 SWAP1 SWAP2 MSTORE SWAP5 MLOAD PUSH1 0x6 SWAP1 SWAP6 MUL PUSH32 0x1B6847DC741A1B0CD08D278845F9D819D87B734759AFB55FE2DE5CB82A9AE672 DUP2 ADD DUP1 SLOAD SWAP7 DUP7 AND PUSH1 0x1 PUSH1 0x1 PUSH1 0xA0 SHL SUB NOT SWAP8 DUP9 AND OR SWAP1 SSTORE SWAP6 MLOAD PUSH32 0x1B6847DC741A1B0CD08D278845F9D819D87B734759AFB55FE2DE5CB82A9AE673 DUP8 ADD DUP1 SLOAD SWAP2 SWAP1 SWAP6 AND SWAP6 AND SWAP5 SWAP1 SWAP5 OR SWAP1 SWAP3 SSTORE SWAP4 MLOAD PUSH32 0x1B6847DC741A1B0CD08D278845F9D819D87B734759AFB55FE2DE5CB82A9AE674 DUP5 ADD SSTORE SWAP3 MLOAD PUSH32 0x1B6847DC741A1B0CD08D278845F9D819D87B734759AFB55FE2DE5CB82A9AE675 DUP4 ADD SSTORE SWAP2 MLOAD PUSH32 0x1B6847DC741A1B0CD08D278845F9D819D87B734759AFB55FE2DE5CB82A9AE676 DUP3 ADD SSTORE SWAP1 MLOAD PUSH32 0x1B6847DC741A1B0CD08D278845F9D819D87B734759AFB55FE2DE5CB82A9AE677 SWAP1 SWAP2 ADD SSTORE JUMP JUMPDEST PUSH2 0x1285 PUSH1 0xC SLOAD PUSH1 0x4 DUP1 SLOAD PUSH2 0x1204 SWAP1 PUSH2 0x3FCE JUMP JUMPDEST DUP1 PUSH1 0x1F ADD PUSH1 0x20 DUP1 SWAP2 DIV MUL PUSH1 0x20 ADD PUSH1 0x40 MLOAD SWAP1 DUP2 ADD PUSH1 0x40 MSTORE DUP1 SWAP3 SWAP2 SWAP1 DUP2 DUP2 MSTORE PUSH1 0x20 ADD DUP3 DUP1 SLOAD PUSH2 0x1230 SWAP1 PUSH2 0x3FCE JUMP JUMPDEST DUP1 ISZERO PUSH2 0x127B JUMPI DUP1 PUSH1 0x1F LT PUSH2 0x1252 JUMPI PUSH2 0x100 DUP1 DUP4 SLOAD DIV MUL DUP4 MSTORE SWAP2 PUSH1 0x20 ADD SWAP2 PUSH2 0x127B JUMP JUMPDEST DUP3 ADD SWAP2 SWAP1 PUSH0 MSTORE PUSH1 0x20 PUSH0 KECCAK256 SWAP1 JUMPDEST DUP2 SLOAD DUP2 MSTORE SWAP1 PUSH1 0x1 ADD SWAP1 PUSH1 0x20 ADD DUP1 DUP4 GT PUSH2 0x125E JUMPI DUP3 SWAP1 SUB PUSH1 0x1F AND DUP3 ADD SWAP2 JUMPDEST POP POP POP POP POP PUSH2 0x1D76 JUMP JUMPDEST PUSH1 0x23 SLOAD PUSH1 0xD SLOAD PUSH1 0xC SLOAD PUSH1 0xA SLOAD PUSH1 0xB SLOAD PUSH1 0x40 MLOAD PUSH32 0xC2E77EF815A40A7ACF35F639836ECC092A752D681C8F8E8BEAA1BF23280B6AB4 SWAP6 PUSH2 0xFA0 SWAP6 PUSH1 0x4 SWAP6 PUSH1 0x1 PUSH1 0x1 PUSH1 0xA0 SHL SUB SWAP3 DUP4 AND SWAP6 SWAP3 SWAP1 SWAP2 AND SWAP4 SWAP1 SWAP3 PUSH2 0x43C3 JUMP JUMPDEST PUSH1 0xA SLOAD PUSH1 0xB SLOAD PUSH2 0x12E8 SWAP2 SWAP1 PUSH2 0x42BF JUMP JUMPDEST PUSH1 0xC DUP2 SWAP1 SSTORE PUSH1 0x12 SLOAD PUSH1 0x23 DUP1 SLOAD PUSH1 0x1 PUSH1 0x1 PUSH1 0xA0 SHL SUB SWAP3 DUP4 AND PUSH1 0x1 PUSH1 0x1 PUSH1 0xA0 SHL SUB NOT SWAP2 DUP3 AND DUP2 OR SWAP1 SWAP3 SSTORE PUSH1 0x11 SLOAD PUSH1 0xD DUP1 SLOAD SWAP2 SWAP1 SWAP5 AND SWAP2 AND OR SWAP1 SWAP2 SSTORE PUSH0 SWAP1 DUP2 MSTORE PUSH1 0x2 PUSH1 0x20 MSTORE PUSH1 0x40 SWAP1 KECCAK256 SLOAD PUSH2 0x1019 SWAP2 SWAP1 PUSH2 0x42BF JUMP JUMPDEST PUSH1 0x11 SLOAD PUSH1 0x1 PUSH1 0x1 PUSH1 0xA0 SHL SUB AND CALLER EQ DUP1 PUSH2 0x135C JUMPI POP PUSH1 0x12 SLOAD PUSH1 0x1 PUSH1 0x1 PUSH1 0xA0 SHL SUB AND CALLER EQ JUMPDEST PUSH2 0x1378 JUMPI PUSH1 0x40 MLOAD PUSH3 0x461BCD PUSH1 0xE5 SHL DUP2 MSTORE PUSH1 0x4 ADD PUSH2 0xA25 SWAP1 PUSH2 0x4006 JUMP JUMPDEST PUSH1 0x2 PUSH1 0x3 SLOAD PUSH1 0xFF AND PUSH1 0x8 DUP2 GT ISZERO PUSH2 0x1391 JUMPI PUSH2 0x1391 PUSH2 0x3E8E JUMP JUMPDEST EQ PUSH2 0x13DE JUMPI PUSH1 0x40 MLOAD PUSH3 0x461BCD PUSH1 0xE5 SHL DUP2 MSTORE PUSH1 0x20 PUSH1 0x4 DUP3 ADD MSTORE PUSH1 0x1F PUSH1 0x24 DUP3 ADD MSTORE PUSH32 0x5472616465207374617465206973206E6F742027436F6E6669726D6564272E00 PUSH1 0x44 DUP3 ADD MSTORE PUSH1 0x64 ADD PUSH2 0xA25 JUMP JUMPDEST PUSH1 0x18 SLOAD TIMESTAMP GT ISZERO PUSH2 0x1400 JUMPI PUSH1 0x40 MLOAD PUSH3 0x461BCD PUSH1 0xE5 SHL DUP2 MSTORE PUSH1 0x4 ADD PUSH2 0xA25 SWAP1 PUSH2 0x4074 JUMP JUMPDEST CALLER PUSH0 SWAP1 DUP2 MSTORE PUSH1 0x20 DUP2 DUP2 MSTORE PUSH1 0x40 DUP1 DUP4 KECCAK256 DUP1 SLOAD PUSH1 0x2 DUP5 MSTORE SWAP2 DUP5 KECCAK256 SLOAD SWAP3 DUP5 SWAP1 MSTORE SWAP3 SWAP1 SWAP3 SSTORE PUSH2 0x142B DUP3 DUP3 PUSH2 0x412A JUMP JUMPDEST CALLER PUSH0 DUP2 DUP2 MSTORE PUSH1 0x2 PUSH1 0x20 MSTORE PUSH1 0x40 SWAP1 DUP2 SWAP1 KECCAK256 SWAP3 SWAP1 SWAP3 SSTORE PUSH1 0x13 SLOAD SWAP2 MLOAD PUSH4 0x23B872DD PUSH1 0xE0 SHL DUP2 MSTORE PUSH1 0x4 DUP2 ADD SWAP2 SWAP1 SWAP2 MSTORE ADDRESS PUSH1 0x24 DUP3 ADD MSTORE PUSH1 0x44 DUP2 ADD DUP5 SWAP1 MSTORE PUSH1 0x1 PUSH1 0x1 PUSH1 0xA0 SHL SUB SWAP1 SWAP2 AND SWAP1 PUSH4 0x23B872DD SWAP1 PUSH1 0x64 ADD PUSH1 0x20 PUSH1 0x40 MLOAD DUP1 DUP4 SUB DUP2 PUSH0 DUP8 GAS CALL ISZERO DUP1 ISZERO PUSH2 0x1494 JUMPI RETURNDATASIZE PUSH0 PUSH0 RETURNDATACOPY RETURNDATASIZE PUSH0 REVERT JUMPDEST POP POP POP POP PUSH1 0x40 MLOAD RETURNDATASIZE PUSH1 0x1F NOT PUSH1 0x1F DUP3 ADD AND DUP3 ADD DUP1 PUSH1 0x40 MSTORE POP DUP2 ADD SWAP1 PUSH2 0x14B8 SWAP2 SWAP1 PUSH2 0x440A JUMP JUMPDEST PUSH2 0x150E JUMPI PUSH1 0x40 MLOAD PUSH3 0x461BCD PUSH1 0xE5 SHL DUP2 MSTORE PUSH1 0x20 PUSH1 0x4 DUP3 ADD MSTORE PUSH1 0x21 PUSH1 0x24 DUP3 ADD MSTORE PUSH32 0x4661696C656420746F207472616E736665722074686520636F6C6C6174657261 PUSH1 0x44 DUP3 ADD MSTORE PUSH1 0x1B PUSH1 0xFA SHL PUSH1 0x64 DUP3 ADD MSTORE PUSH1 0x84 ADD PUSH2 0xA25 JUMP JUMPDEST CALLER PUSH0 DUP2 DUP2 MSTORE PUSH1 0x2 PUSH1 0x20 MSTORE PUSH1 0x40 SWAP1 DUP2 SWAP1 KECCAK256 SLOAD SWAP1 MLOAD PUSH0 MLOAD PUSH1 0x20 PUSH2 0x487C PUSH0 CODECOPY PUSH0 MLOAD SWAP1 PUSH0 MSTORE SWAP3 PUSH2 0xFA0 SWAP3 PUSH1 0x4 SWAP3 PUSH2 0x4425 JUMP JUMPDEST PUSH0 CALLER PUSH2 0x1549 DUP6 DUP3 DUP6 PUSH2 0x354E JUMP JUMPDEST PUSH2 0x1554 DUP6 DUP6 DUP6 PUSH2 0x35C0 JUMP JUMPDEST POP PUSH1 0x1 SWAP5 SWAP4 POP POP POP POP JUMP JUMPDEST PUSH0 CALLER PUSH2 0xC4E DUP2 DUP6 DUP6 PUSH2 0x1571 DUP4 DUP4 PUSH2 0x2DC6 JUMP JUMPDEST PUSH2 0x157B SWAP2 SWAP1 PUSH2 0x412A JUMP JUMPDEST PUSH2 0x3411 JUMP JUMPDEST PUSH1 0x11 SLOAD PUSH1 0x1 PUSH1 0x1 PUSH1 0xA0 SHL SUB AND CALLER EQ DUP1 PUSH2 0x15A3 JUMPI POP PUSH1 0x12 SLOAD PUSH1 0x1 PUSH1 0x1 PUSH1 0xA0 SHL SUB AND CALLER EQ JUMPDEST PUSH2 0x15BF JUMPI PUSH1 0x40 MLOAD PUSH3 0x461BCD PUSH1 0xE5 SHL DUP2 MSTORE PUSH1 0x4 ADD PUSH2 0xA25 SWAP1 PUSH2 0x4006 JUMP JUMPDEST PUSH1 0x18 SLOAD TIMESTAMP GT PUSH2 0x15E0 JUMPI PUSH1 0x40 MLOAD PUSH3 0x461BCD PUSH1 0xE5 SHL DUP2 MSTORE PUSH1 0x4 ADD PUSH2 0xA25 SWAP1 PUSH2 0x4234 JUMP JUMPDEST PUSH1 0x13 SLOAD PUSH1 0xD SLOAD PUSH1 0xC SLOAD PUSH1 0x40 MLOAD PUSH4 0xA9059CBB PUSH1 0xE0 SHL DUP2 MSTORE PUSH1 0x1 PUSH1 0x1 PUSH1 0xA0 SHL SUB SWAP4 DUP5 AND SWAP4 PUSH4 0xA9059CBB SWAP4 PUSH2 0x1617 SWAP4 SWAP2 AND SWAP2 PUSH1 0x4 ADD PUSH2 0x3FB5 JUMP JUMPDEST PUSH1 0x20 PUSH1 0x40 MLOAD DUP1 DUP4 SUB DUP2 PUSH0 DUP8 GAS CALL ISZERO DUP1 ISZERO PUSH2 0x1633 JUMPI RETURNDATASIZE PUSH0 PUSH0 RETURNDATACOPY RETURNDATASIZE PUSH0 REVERT JUMPDEST POP POP POP POP PUSH1 0x40 MLOAD RETURNDATASIZE PUSH1 0x1F NOT PUSH1 0x1F DUP3 ADD AND DUP3 ADD DUP1 PUSH1 0x40 MSTORE POP DUP2 ADD SWAP1 PUSH2 0x1657 SWAP2 SWAP1 PUSH2 0x440A JUMP JUMPDEST POP PUSH1 0xD DUP1 SLOAD PUSH1 0x1 PUSH1 0x1 PUSH1 0xA0 SHL SUB NOT AND SWAP1 SSTORE JUMP JUMPDEST PUSH1 0x2 PUSH1 0x3 SLOAD PUSH1 0xFF AND PUSH1 0x8 DUP2 GT ISZERO PUSH2 0x1683 JUMPI PUSH2 0x1683 PUSH2 0x3E8E JUMP JUMPDEST EQ PUSH2 0x16D0 JUMPI PUSH1 0x40 MLOAD PUSH3 0x461BCD PUSH1 0xE5 SHL DUP2 MSTORE PUSH1 0x20 PUSH1 0x4 DUP3 ADD MSTORE PUSH1 0x1F PUSH1 0x24 DUP3 ADD MSTORE PUSH32 0x5472616465207374617465206973206E6F742027436F6E6669726D6564272E00 PUSH1 0x44 DUP3 ADD MSTORE PUSH1 0x64 ADD PUSH2 0xA25 JUMP JUMPDEST PUSH1 0x18 SLOAD TIMESTAMP GT ISZERO PUSH2 0x16F2 JUMPI PUSH1 0x40 MLOAD PUSH3 0x461BCD PUSH1 0xE5 SHL DUP2 MSTORE PUSH1 0x4 ADD PUSH2 0xA25 SWAP1 PUSH2 0x4074 JUMP JUMPDEST PUSH1 0xE SLOAD PUSH1 0x1 PUSH1 0x1 PUSH1 0xA0 SHL SUB AND CALLER EQ PUSH2 0x171C JUMPI PUSH1 0x40 MLOAD PUSH3 0x461BCD PUSH1 0xE5 SHL DUP2 MSTORE PUSH1 0x4 ADD PUSH2 0xA25 SWAP1 PUSH2 0x426B JUMP JUMPDEST PUSH1 0x16 SLOAD PUSH1 0x14 SLOAD PUSH1 0x15 SLOAD PUSH1 0x25 SLOAD PUSH1 0x40 DUP1 MLOAD PUSH4 0x33CD77E7 PUSH1 0xE1 SHL DUP2 MSTORE SWAP1 MLOAD PUSH0 SWAP4 SWAP3 PUSH1 0x1 PUSH1 0x1 PUSH1 0xA0 SHL SUB AND SWAP2 PUSH4 0x679AEFCE SWAP2 PUSH1 0x4 DUP3 DUP2 ADD SWAP3 PUSH1 0x20 SWAP3 SWAP2 SWAP1 DUP3 SWAP1 SUB ADD DUP2 DUP9 DUP8 GAS CALL ISZERO DUP1 ISZERO PUSH2 0x176E JUMPI RETURNDATASIZE PUSH0 PUSH0 RETURNDATACOPY RETURNDATASIZE PUSH0 REVERT JUMPDEST POP POP POP POP PUSH1 0x40 MLOAD RETURNDATASIZE PUSH1 0x1F NOT PUSH1 0x1F DUP3 ADD AND DUP3 ADD DUP1 PUSH1 0x40 MSTORE POP DUP2 ADD SWAP1 PUSH2 0x1792 SWAP2 SWAP1 PUSH2 0x4452 JUMP JUMPDEST PUSH2 0x179C SWAP2 SWAP1 PUSH2 0x4469 JUMP JUMPDEST SWAP1 POP PUSH0 PUSH1 0x11 PUSH1 0x2 ADD PUSH0 SWAP1 SLOAD SWAP1 PUSH2 0x100 EXP SWAP1 DIV PUSH1 0x1 PUSH1 0x1 PUSH1 0xA0 SHL SUB AND PUSH1 0x1 PUSH1 0x1 PUSH1 0xA0 SHL SUB AND PUSH4 0x313CE567 PUSH1 0x40 MLOAD DUP2 PUSH4 0xFFFFFFFF AND PUSH1 0xE0 SHL DUP2 MSTORE PUSH1 0x4 ADD PUSH1 0x20 PUSH1 0x40 MLOAD DUP1 DUP4 SUB DUP2 DUP7 GAS STATICCALL ISZERO DUP1 ISZERO PUSH2 0x17F2 JUMPI RETURNDATASIZE PUSH0 PUSH0 RETURNDATACOPY RETURNDATASIZE PUSH0 REVERT JUMPDEST POP POP POP POP PUSH1 0x40 MLOAD RETURNDATASIZE PUSH1 0x1F NOT PUSH1 0x1F DUP3 ADD AND DUP3 ADD DUP1 PUSH1 0x40 MSTORE POP DUP2 ADD SWAP1 PUSH2 0x1816 SWAP2 SWAP1 PUSH2 0x4490 JUMP JUMPDEST PUSH1 0xFF AND SWAP1 POP PUSH0 PUSH1 0x25 PUSH0 SWAP1 SLOAD SWAP1 PUSH2 0x100 EXP SWAP1 DIV PUSH1 0x1 PUSH1 0x1 PUSH1 0xA0 SHL SUB AND PUSH1 0x1 PUSH1 0x1 PUSH1 0xA0 SHL SUB AND PUSH4 0x313CE567 PUSH1 0x40 MLOAD DUP2 PUSH4 0xFFFFFFFF AND PUSH1 0xE0 SHL DUP2 MSTORE PUSH1 0x4 ADD PUSH1 0x20 PUSH1 0x40 MLOAD DUP1 DUP4 SUB DUP2 DUP7 GAS STATICCALL ISZERO DUP1 ISZERO PUSH2 0x186C JUMPI RETURNDATASIZE PUSH0 PUSH0 RETURNDATACOPY RETURNDATASIZE PUSH0 REVERT JUMPDEST POP POP POP POP PUSH1 0x40 MLOAD RETURNDATASIZE PUSH1 0x1F NOT PUSH1 0x1F DUP3 ADD AND DUP3 ADD DUP1 PUSH1 0x40 MSTORE POP DUP2 ADD SWAP1 PUSH2 0x1890 SWAP2 SWAP1 PUSH2 0x4490 JUMP JUMPDEST PUSH1 0xFF AND SWAP1 POP PUSH0 PUSH2 0x18A1 DUP3 PUSH1 0xA PUSH2 0x44B0 JUMP JUMPDEST PUSH2 0x18AD SWAP1 PUSH2 0x8EAD PUSH2 0x44BB JUMP JUMPDEST PUSH2 0x18B8 DUP5 PUSH1 0xA PUSH2 0x44B0 JUMP JUMPDEST PUSH2 0x18C2 DUP8 DUP10 PUSH2 0x44BB JUMP JUMPDEST PUSH2 0x18CC SWAP2 SWAP1 PUSH2 0x44BB JUMP JUMPDEST PUSH2 0x18D7 SWAP1 PUSH1 0x64 PUSH2 0x44BB JUMP JUMPDEST PUSH2 0x18E1 SWAP2 SWAP1 PUSH2 0x44D2 JUMP JUMPDEST SWAP1 POP PUSH0 PUSH2 0x18EF DUP4 PUSH1 0xA PUSH2 0x44B0 JUMP JUMPDEST PUSH2 0x18FB SWAP1 PUSH2 0x8EAD PUSH2 0x44BB JUMP JUMPDEST PUSH2 0x1906 DUP6 PUSH1 0xA PUSH2 0x44B0 JUMP JUMPDEST PUSH2 0x1910 DUP8 DUP11 PUSH2 0x44BB JUMP JUMPDEST PUSH2 0x191A SWAP2 SWAP1 PUSH2 0x44BB JUMP JUMPDEST PUSH2 0x1925 SWAP1 PUSH1 0x64 PUSH2 0x44BB JUMP JUMPDEST PUSH2 0x192F SWAP2 SWAP1 PUSH2 0x44D2 JUMP JUMPDEST SWAP1 POP PUSH0 DUP6 DUP8 SUB PUSH2 0x1967 JUMPI PUSH0 MLOAD PUSH1 0x20 PUSH2 0x487C PUSH0 CODECOPY PUSH0 MLOAD SWAP1 PUSH0 MSTORE PUSH1 0x4 PUSH0 PUSH0 PUSH1 0x40 MLOAD PUSH2 0x195A SWAP4 SWAP3 SWAP2 SWAP1 PUSH2 0x4425 JUMP JUMPDEST PUSH1 0x40 MLOAD DUP1 SWAP2 SUB SWAP1 LOG1 PUSH2 0x1A73 JUMP JUMPDEST DUP6 DUP8 SGT ISZERO PUSH2 0x19F3 JUMPI PUSH1 0x11 SLOAD PUSH1 0x1 PUSH1 0x1 PUSH1 0xA0 SHL SUB AND PUSH0 SWAP1 DUP2 MSTORE PUSH1 0x20 DUP2 SWAP1 MSTORE PUSH1 0x40 SWAP1 KECCAK256 SLOAD PUSH2 0x1993 DUP4 DUP6 PUSH2 0x42BF JUMP JUMPDEST SWAP2 POP PUSH2 0x199F DUP3 DUP3 PUSH2 0x412A JUMP JUMPDEST PUSH1 0x11 DUP1 SLOAD PUSH1 0x1 PUSH1 0x1 PUSH1 0xA0 SHL SUB SWAP1 DUP2 AND PUSH0 SWAP1 DUP2 MSTORE PUSH1 0x20 DUP2 SWAP1 MSTORE PUSH1 0x40 SWAP1 DUP2 SWAP1 KECCAK256 SWAP4 SWAP1 SWAP4 SSTORE SWAP1 SLOAD SWAP2 MLOAD PUSH0 MLOAD PUSH1 0x20 PUSH2 0x487C PUSH0 CODECOPY PUSH0 MLOAD SWAP1 PUSH0 MSTORE SWAP3 PUSH2 0x19E5 SWAP3 PUSH1 0x4 SWAP3 SWAP2 AND SWAP1 DUP7 SWAP1 PUSH2 0x4425 JUMP JUMPDEST PUSH1 0x40 MLOAD DUP1 SWAP2 SUB SWAP1 LOG1 POP PUSH2 0x1A73 JUMP JUMPDEST PUSH1 0x12 SLOAD PUSH1 0x1 PUSH1 0x1 PUSH1 0xA0 SHL SUB AND PUSH0 SWAP1 DUP2 MSTORE PUSH1 0x20 DUP2 SWAP1 MSTORE PUSH1 0x40 SWAP1 KECCAK256 SLOAD PUSH2 0x1A17 DUP5 DUP5 PUSH2 0x42BF JUMP JUMPDEST SWAP2 POP PUSH2 0x1A23 DUP3 DUP3 PUSH2 0x412A JUMP JUMPDEST PUSH1 0x12 DUP1 SLOAD PUSH1 0x1 PUSH1 0x1 PUSH1 0xA0 SHL SUB SWAP1 DUP2 AND PUSH0 SWAP1 DUP2 MSTORE PUSH1 0x20 DUP2 SWAP1 MSTORE PUSH1 0x40 SWAP1 DUP2 SWAP1 KECCAK256 SWAP4 SWAP1 SWAP4 SSTORE SWAP1 SLOAD SWAP2 MLOAD PUSH0 MLOAD PUSH1 0x20 PUSH2 0x487C PUSH0 CODECOPY PUSH0 MLOAD SWAP1 PUSH0 MSTORE SWAP3 PUSH2 0x1A69 SWAP3 PUSH1 0x4 SWAP3 SWAP2 AND SWAP1 DUP7 SWAP1 PUSH2 0x4425 JUMP JUMPDEST PUSH1 0x40 MLOAD DUP1 SWAP2 SUB SWAP1 LOG1 POP JUMPDEST POP POP POP POP POP POP POP POP JUMP JUMPDEST PUSH1 0x1 PUSH1 0x1 PUSH1 0xA0 SHL SUB DUP3 AND PUSH2 0x1AD3 JUMPI PUSH1 0x40 MLOAD PUSH3 0x461BCD PUSH1 0xE5 SHL DUP2 MSTORE PUSH1 0x20 PUSH1 0x4 DUP3 ADD MSTORE PUSH1 0x1F PUSH1 0x24 DUP3 ADD MSTORE PUSH32 0x45524332303A206D696E7420746F20746865207A65726F206164647265737300 PUSH1 0x44 DUP3 ADD MSTORE PUSH1 0x64 ADD PUSH2 0xA25 JUMP JUMPDEST DUP1 PUSH1 0x1B PUSH0 DUP3 DUP3 SLOAD PUSH2 0x1AE4 SWAP2 SWAP1 PUSH2 0x412A JUMP JUMPDEST SWAP1 SWAP2 SSTORE POP POP PUSH1 0x1C SLOAD PUSH1 0x1D SLOAD PUSH1 0x1B SLOAD PUSH2 0x1AFC SWAP2 SWAP1 PUSH2 0x412A JUMP JUMPDEST GT ISZERO PUSH2 0x1B2A JUMPI PUSH1 0x1B SLOAD PUSH1 0x1C SLOAD PUSH1 0x40 MLOAD PUSH4 0xD6C6EE6F PUSH1 0xE0 SHL DUP2 MSTORE PUSH1 0x4 DUP2 ADD SWAP3 SWAP1 SWAP3 MSTORE PUSH1 0x24 DUP3 ADD MSTORE PUSH1 0x44 ADD PUSH2 0xA25 JUMP JUMPDEST PUSH1 0x1 PUSH1 0x1 PUSH1 0xA0 SHL SUB DUP3 AND PUSH0 DUP2 DUP2 MSTORE PUSH1 0x19 PUSH1 0x20 SWAP1 DUP2 MSTORE PUSH1 0x40 DUP1 DUP4 KECCAK256 DUP1 SLOAD DUP7 ADD SWAP1 SSTORE MLOAD DUP5 DUP2 MSTORE PUSH32 0xDDF252AD1BE2C89B69C2B068FC378DAA952BA7F163C4A11628F55A4DF523B3EF SWAP2 ADD PUSH1 0x40 MLOAD DUP1 SWAP2 SUB SWAP1 LOG3 POP POP JUMP JUMPDEST PUSH1 0x13 SLOAD PUSH1 0x24 SLOAD PUSH1 0x20 SLOAD PUSH1 0x40 MLOAD PUSH4 0xA9059CBB PUSH1 0xE0 SHL DUP2 MSTORE PUSH1 0x1 PUSH1 0x1 PUSH1 0xA0 SHL SUB SWAP4 DUP5 AND SWAP4 PUSH4 0xA9059CBB SWAP4 PUSH2 0x1BB4 SWAP4 SWAP2 AND SWAP2 PUSH1 0x4 ADD PUSH2 0x3FB5 JUMP JUMPDEST PUSH1 0x20 PUSH1 0x40 MLOAD DUP1 DUP4 SUB DUP2 PUSH0 DUP8 GAS CALL ISZERO DUP1 ISZERO PUSH2 0x1BD0 JUMPI RETURNDATASIZE PUSH0 PUSH0 RETURNDATACOPY RETURNDATASIZE PUSH0 REVERT JUMPDEST POP POP POP POP PUSH1 0x40 MLOAD RETURNDATASIZE PUSH1 0x1F NOT PUSH1 0x1F DUP3 ADD AND DUP3 ADD DUP1 PUSH1 0x40 MSTORE POP DUP2 ADD SWAP1 PUSH2 0x5EB SWAP2 SWAP1 PUSH2 0x440A JUMP JUMPDEST PUSH1 0x1 PUSH1 0x3 SLOAD PUSH1 0xFF AND PUSH1 0x8 DUP2 GT ISZERO PUSH2 0x1C0D JUMPI PUSH2 0x1C0D PUSH2 0x3E8E JUMP JUMPDEST EQ PUSH2 0x1C5A JUMPI PUSH1 0x40 MLOAD PUSH3 0x461BCD PUSH1 0xE5 SHL DUP2 MSTORE PUSH1 0x20 PUSH1 0x4 DUP3 ADD MSTORE PUSH1 0x1E PUSH1 0x24 DUP3 ADD MSTORE PUSH32 0x5472616465207374617465206973206E6F742027496E636570746564272E0000 PUSH1 0x44 DUP3 ADD MSTORE PUSH1 0x64 ADD PUSH2 0xA25 JUMP JUMPDEST PUSH1 0x18 SLOAD TIMESTAMP GT ISZERO PUSH2 0x1C7C JUMPI PUSH1 0x40 MLOAD PUSH3 0x461BCD PUSH1 0xE5 SHL DUP2 MSTORE PUSH1 0x4 ADD PUSH2 0xA25 SWAP1 PUSH2 0x4074 JUMP JUMPDEST PUSH1 0x40 MLOAD CALLER SWAP1 PUSH0 SWAP1 PUSH2 0x1C9B SWAP1 DUP4 SWAP1 DUP10 SWAP1 DUP10 SWAP1 DUP10 SWAP1 DUP10 SWAP1 DUP10 SWAP1 PUSH1 0x20 ADD PUSH2 0x44F1 JUMP JUMPDEST PUSH1 0x40 DUP1 MLOAD DUP1 DUP4 SUB PUSH1 0x1F NOT ADD DUP2 MSTORE SWAP2 DUP2 MSTORE DUP2 MLOAD PUSH1 0x20 SWAP3 DUP4 ADD KECCAK256 PUSH0 DUP2 DUP2 MSTORE PUSH1 0x1 SWAP1 SWAP4 MSTORE SWAP2 KECCAK256 SLOAD SWAP1 SWAP2 POP PUSH1 0x1 PUSH1 0x1 PUSH1 0xA0 SHL SUB DUP4 DUP2 AND SWAP2 AND EQ PUSH2 0x1CF1 JUMPI DUP2 DUP2 PUSH1 0x40 MLOAD PUSH4 0x212D5A0D PUSH1 0xE1 SHL DUP2 MSTORE PUSH1 0x4 ADD PUSH2 0xA25 SWAP3 SWAP2 SWAP1 PUSH2 0x3FB5 JUMP JUMPDEST PUSH0 DUP2 DUP2 MSTORE PUSH1 0x1 PUSH1 0x20 MSTORE PUSH1 0x40 SWAP1 DUP2 SWAP1 KECCAK256 DUP1 SLOAD PUSH1 0x1 PUSH1 0x1 PUSH1 0xA0 SHL SUB NOT AND SWAP1 SSTORE PUSH1 0x3 DUP1 SLOAD PUSH1 0xFF NOT AND SWAP1 SSTORE MLOAD PUSH32 0xB97EBEA18F48D75569CCB549A1079765EE3A73567C656C017DA2AAD5E75652B7 SWAP1 PUSH2 0x1D49 SWAP1 CALLER SWAP1 PUSH1 0x4 SWAP1 PUSH2 0x4547 JUMP JUMPDEST PUSH1 0x40 MLOAD DUP1 SWAP2 SUB SWAP1 LOG1 POP POP POP POP POP POP POP JUMP JUMPDEST PUSH1 0x40 MLOAD PUSH1 0x1 PUSH3 0xDC379 PUSH1 0xE3 SHL SUB NOT DUP2 MSTORE PUSH1 0x4 ADD PUSH1 0x40 MLOAD DUP1 SWAP2 SUB SWAP1 REVERT JUMPDEST PUSH1 0xD SLOAD PUSH1 0xC SLOAD PUSH1 0x40 MLOAD PUSH32 0x562C219552544EC4C9D7A8EB850F80EA152973E315372BF4999FE7C953EA004F SWAP3 PUSH2 0x1DB6 SWAP3 PUSH1 0x1 PUSH1 0x1 PUSH1 0xA0 SHL SUB SWAP1 SWAP2 AND SWAP2 PUSH2 0x3FB5 JUMP JUMPDEST PUSH1 0x40 MLOAD DUP1 SWAP2 SUB SWAP1 LOG1 PUSH1 0x3 DUP1 SLOAD PUSH1 0xFF NOT AND PUSH1 0x8 OR SWAP1 SSTORE PUSH1 0x40 MLOAD PUSH32 0x752A06F360D89E4ED54E5427B88F42C8FC9BF5D1B79904FE9D12701E029FE48D SWAP1 PUSH2 0xFA0 SWAP1 CALLER SWAP1 DUP6 SWAP1 DUP6 SWAP1 PUSH2 0x4572 JUMP JUMPDEST PUSH1 0x5 PUSH1 0x3 SLOAD PUSH1 0xFF AND PUSH1 0x8 DUP2 GT ISZERO PUSH2 0x1E18 JUMPI PUSH2 0x1E18 PUSH2 0x3E8E JUMP JUMPDEST EQ PUSH2 0x1E35 JUMPI PUSH1 0x40 MLOAD PUSH3 0x461BCD PUSH1 0xE5 SHL DUP2 MSTORE PUSH1 0x4 ADD PUSH2 0xA25 SWAP1 PUSH2 0x403D JUMP JUMPDEST PUSH1 0x18 SLOAD TIMESTAMP GT ISZERO PUSH2 0x1E57 JUMPI PUSH1 0x40 MLOAD PUSH3 0x461BCD PUSH1 0xE5 SHL DUP2 MSTORE PUSH1 0x4 ADD PUSH2 0xA25 SWAP1 PUSH2 0x4074 JUMP JUMPDEST PUSH1 0x40 MLOAD CALLER SWAP1 PUSH0 SWAP1 PUSH2 0x1E70 SWAP1 DUP7 SWAP1 DUP7 SWAP1 DUP7 SWAP1 PUSH1 0x20 ADD PUSH2 0x40BE JUMP JUMPDEST PUSH1 0x40 DUP1 MLOAD DUP1 DUP4 SUB PUSH1 0x1F NOT ADD DUP2 MSTORE SWAP2 DUP2 MSTORE DUP2 MLOAD PUSH1 0x20 SWAP3 DUP4 ADD KECCAK256 PUSH0 DUP2 DUP2 MSTORE PUSH1 0x1 SWAP1 SWAP4 MSTORE SWAP2 KECCAK256 SLOAD SWAP1 SWAP2 POP PUSH1 0x1 PUSH1 0x1 PUSH1 0xA0 SHL SUB DUP4 DUP2 AND SWAP2 AND EQ PUSH2 0x1EC6 JUMPI DUP2 DUP2 PUSH1 0x40 MLOAD PUSH4 0x212D5A0D PUSH1 0xE1 SHL DUP2 MSTORE PUSH1 0x4 ADD PUSH2 0xA25 SWAP3 SWAP2 SWAP1 PUSH2 0x3FB5 JUMP JUMPDEST PUSH0 DUP2 DUP2 MSTORE PUSH1 0x1 PUSH1 0x20 MSTORE PUSH1 0x40 SWAP1 DUP2 SWAP1 KECCAK256 DUP1 SLOAD PUSH1 0x1 PUSH1 0x1 PUSH1 0xA0 SHL SUB NOT AND SWAP1 SSTORE MLOAD PUSH32 0xBF0316E30055987A1DA1F06C48C2CBD289A8009806806EF4506435C3D565C0C SWAP1 PUSH2 0x1F16 SWAP1 CALLER SWAP1 PUSH1 0x4 SWAP1 DUP8 SWAP1 PUSH2 0x45A1 JUMP JUMPDEST PUSH1 0x40 MLOAD DUP1 SWAP2 SUB SWAP1 LOG1 POP POP POP POP POP JUMP JUMPDEST PUSH1 0x1 PUSH1 0x3 SLOAD PUSH1 0xFF AND PUSH1 0x8 DUP2 GT ISZERO PUSH2 0x1F3E JUMPI PUSH2 0x1F3E PUSH2 0x3E8E JUMP JUMPDEST EQ PUSH2 0x1F8B JUMPI PUSH1 0x40 MLOAD PUSH3 0x461BCD PUSH1 0xE5 SHL DUP2 MSTORE PUSH1 0x20 PUSH1 0x4 DUP3 ADD MSTORE PUSH1 0x1E PUSH1 0x24 DUP3 ADD MSTORE PUSH32 0x5472616465207374617465206973206E6F742027496E636570746564272E0000 PUSH1 0x44 DUP3 ADD MSTORE PUSH1 0x64 ADD PUSH2 0xA25 JUMP JUMPDEST PUSH1 0x9 SLOAD PUSH1 0x8 SLOAD PUSH2 0x1F9B SWAP1 TIMESTAMP PUSH2 0x42BF JUMP JUMPDEST GT ISZERO PUSH2 0x1FE9 JUMPI PUSH1 0x40 MLOAD PUSH3 0x461BCD PUSH1 0xE5 SHL DUP2 MSTORE PUSH1 0x20 PUSH1 0x4 DUP3 ADD MSTORE PUSH1 0x19 PUSH1 0x24 DUP3 ADD MSTORE PUSH32 0x436F6E66696D617274696F6E2074696D65206973206F76657200000000000000 PUSH1 0x44 DUP3 ADD MSTORE PUSH1 0x64 ADD PUSH2 0xA25 JUMP JUMPDEST PUSH0 PUSH2 0x1FF2 PUSH2 0x33DD JUMP JUMPDEST SWAP1 POP PUSH0 DUP7 CALLER DUP8 PUSH2 0x2001 DUP9 PUSH2 0x45D6 JUMP JUMPDEST PUSH2 0x200A DUP9 PUSH2 0x45D6 JUMP JUMPDEST DUP8 PUSH1 0x40 MLOAD PUSH1 0x20 ADD PUSH2 0x2020 SWAP7 SWAP6 SWAP5 SWAP4 SWAP3 SWAP2 SWAP1 PUSH2 0x44F1 JUMP JUMPDEST PUSH1 0x40 DUP1 MLOAD DUP1 DUP4 SUB PUSH1 0x1F NOT ADD DUP2 MSTORE SWAP2 DUP2 MSTORE DUP2 MLOAD PUSH1 0x20 SWAP3 DUP4 ADD KECCAK256 PUSH0 DUP2 DUP2 MSTORE PUSH1 0x1 SWAP1 SWAP4 MSTORE SWAP2 KECCAK256 SLOAD SWAP1 SWAP2 POP PUSH1 0x1 PUSH1 0x1 PUSH1 0xA0 SHL SUB DUP4 DUP2 AND SWAP2 AND EQ PUSH2 0x2076 JUMPI DUP2 DUP2 PUSH1 0x40 MLOAD PUSH4 0x212D5A0D PUSH1 0xE1 SHL DUP2 MSTORE PUSH1 0x4 ADD PUSH2 0xA25 SWAP3 SWAP2 SWAP1 PUSH2 0x3FB5 JUMP JUMPDEST PUSH0 DUP2 DUP2 MSTORE PUSH1 0x1 PUSH1 0x20 SWAP1 DUP2 MSTORE PUSH1 0x40 DUP1 DUP4 KECCAK256 DUP1 SLOAD PUSH1 0x1 PUSH1 0x1 PUSH1 0xA0 SHL SUB NOT AND SWAP1 SSTORE PUSH1 0x3 DUP1 SLOAD PUSH1 0xFF NOT AND PUSH1 0x2 OR SWAP1 SSTORE PUSH1 0x13 SLOAD DUP2 MLOAD PUSH4 0x313CE567 PUSH1 0xE0 SHL DUP2 MSTORE SWAP2 MLOAD PUSH1 0x1 PUSH1 0x1 PUSH1 0xA0 SHL SUB SWAP1 SWAP2 AND SWAP3 PUSH4 0x313CE567 SWAP3 PUSH1 0x4 DUP1 DUP3 ADD SWAP4 SWAP2 DUP3 SWAP1 SUB ADD DUP2 DUP7 GAS STATICCALL ISZERO DUP1 ISZERO PUSH2 0x20E2 JUMPI RETURNDATASIZE PUSH0 PUSH0 RETURNDATACOPY RETURNDATASIZE PUSH0 REVERT JUMPDEST POP POP POP POP PUSH1 0x40 MLOAD RETURNDATASIZE PUSH1 0x1F NOT PUSH1 0x1F DUP3 ADD AND DUP3 ADD DUP1 PUSH1 0x40 MSTORE POP DUP2 ADD SWAP1 PUSH2 0x2106 SWAP2 SWAP1 PUSH2 0x4490 JUMP JUMPDEST PUSH1 0xFF AND SWAP1 POP PUSH1 0x40 MLOAD DUP1 PUSH1 0x40 ADD PUSH1 0x40 MSTORE DUP1 DUP3 PUSH1 0xA PUSH2 0x2123 SWAP2 SWAP1 PUSH2 0x44B0 JUMP JUMPDEST PUSH1 0x6 SLOAD PUSH2 0x2130 SWAP2 SWAP1 PUSH2 0x44BB JUMP JUMPDEST DUP2 MSTORE PUSH1 0x20 ADD PUSH2 0x2140 DUP4 PUSH1 0xA PUSH2 0x44B0 JUMP JUMPDEST PUSH1 0x7 SLOAD PUSH2 0x214D SWAP2 SWAP1 PUSH2 0x44BB JUMP JUMPDEST SWAP1 MSTORE CALLER PUSH0 SWAP1 DUP2 MSTORE PUSH1 0x2 PUSH1 0x20 SWAP1 DUP2 MSTORE PUSH1 0x40 DUP3 KECCAK256 DUP4 MLOAD DUP2 SSTORE SWAP3 ADD MLOAD PUSH1 0x1 SWAP1 SWAP3 ADD SWAP2 SWAP1 SWAP2 SSTORE PUSH2 0x217A DUP3 PUSH1 0xA PUSH2 0x44B0 JUMP JUMPDEST PUSH1 0x7 SLOAD PUSH1 0x6 SLOAD PUSH2 0x218A SWAP2 SWAP1 PUSH2 0x412A JUMP JUMPDEST PUSH2 0x2194 SWAP2 SWAP1 PUSH2 0x44BB JUMP JUMPDEST PUSH1 0x13 SLOAD PUSH1 0x40 MLOAD PUSH4 0x23B872DD PUSH1 0xE0 SHL DUP2 MSTORE CALLER PUSH1 0x4 DUP3 ADD MSTORE ADDRESS PUSH1 0x24 DUP3 ADD MSTORE PUSH1 0x44 DUP2 ADD DUP4 SWAP1 MSTORE SWAP2 SWAP3 POP PUSH1 0x1 PUSH1 0x1 PUSH1 0xA0 SHL SUB AND SWAP1 PUSH4 0x23B872DD SWAP1 PUSH1 0x64 ADD PUSH1 0x20 PUSH1 0x40 MLOAD DUP1 DUP4 SUB DUP2 PUSH0 DUP8 GAS CALL ISZERO DUP1 ISZERO PUSH2 0x21E9 JUMPI RETURNDATASIZE PUSH0 PUSH0 RETURNDATACOPY RETURNDATASIZE PUSH0 REVERT JUMPDEST POP POP POP POP PUSH1 0x40 MLOAD RETURNDATASIZE PUSH1 0x1F NOT PUSH1 0x1F DUP3 ADD AND DUP3 ADD DUP1 PUSH1 0x40 MSTORE POP DUP2 ADD SWAP1 PUSH2 0x220D SWAP2 SWAP1 PUSH2 0x440A JUMP JUMPDEST PUSH2 0x2229 JUMPI PUSH1 0x40 MLOAD PUSH3 0x461BCD PUSH1 0xE5 SHL DUP2 MSTORE PUSH1 0x4 ADD PUSH2 0xA25 SWAP1 PUSH2 0x45F0 JUMP JUMPDEST PUSH32 0x2F9110550F3374364C85539074B740B7BFED285798D152502C5F2DFD745CF00 CALLER PUSH1 0x4 PUSH1 0x40 MLOAD PUSH2 0x1A69 SWAP3 SWAP2 SWAP1 PUSH2 0x4547 JUMP JUMPDEST PUSH1 0x25 SLOAD PUSH1 0x40 DUP1 MLOAD PUSH4 0x33CD77E7 PUSH1 0xE1 SHL DUP2 MSTORE SWAP1 MLOAD PUSH0 SWAP3 PUSH1 0x1 PUSH1 0x1 PUSH1 0xA0 SHL SUB AND SWAP2 PUSH4 0x679AEFCE SWAP2 PUSH1 0x4 DUP1 DUP4 ADD SWAP3 PUSH1 0x20 SWAP3 SWAP2 SWAP1 DUP3 SWAP1 SUB ADD DUP2 DUP8 DUP8 GAS CALL ISZERO DUP1 ISZERO PUSH2 0x22A3 JUMPI RETURNDATASIZE PUSH0 PUSH0 RETURNDATACOPY RETURNDATASIZE PUSH0 REVERT JUMPDEST POP POP POP POP PUSH1 0x40 MLOAD RETURNDATASIZE PUSH1 0x1F NOT PUSH1 0x1F DUP3 ADD AND DUP3 ADD DUP1 PUSH1 0x40 MSTORE POP DUP2 ADD SWAP1 PUSH2 0x22C7 SWAP2 SWAP1 PUSH2 0x4452 JUMP JUMPDEST SWAP1 POP SWAP1 JUMP JUMPDEST PUSH1 0x11 SLOAD PUSH1 0x1 PUSH1 0x1 PUSH1 0xA0 SHL SUB AND CALLER EQ DUP1 PUSH2 0x22EF JUMPI POP PUSH1 0x12 SLOAD PUSH1 0x1 PUSH1 0x1 PUSH1 0xA0 SHL SUB AND CALLER EQ JUMPDEST PUSH2 0x230B JUMPI PUSH1 0x40 MLOAD PUSH3 0x461BCD PUSH1 0xE5 SHL DUP2 MSTORE PUSH1 0x4 ADD PUSH2 0xA25 SWAP1 PUSH2 0x4006 JUMP JUMPDEST PUSH1 0xE DUP1 SLOAD PUSH1 0x1 PUSH1 0x1 PUSH1 0xA0 SHL SUB NOT AND PUSH1 0x1 PUSH1 0x1 PUSH1 0xA0 SHL SUB DUP4 AND OR SWAP1 SSTORE PUSH1 0x40 MLOAD PUSH32 0xB23D51506296DA99AD6DD2BE870AC5CD55074216CFDC8EB99E750121131A2E57 SWAP1 PUSH2 0xCE9 SWAP1 PUSH1 0x4 SWAP1 CALLER SWAP1 DUP6 SWAP1 PUSH2 0x4202 JUMP JUMPDEST PUSH1 0x11 SLOAD PUSH1 0x1 PUSH1 0x1 PUSH1 0xA0 SHL SUB AND CALLER EQ DUP1 PUSH2 0x237E JUMPI POP PUSH1 0x12 SLOAD PUSH1 0x1 PUSH1 0x1 PUSH1 0xA0 SHL SUB AND CALLER EQ JUMPDEST PUSH2 0x239A JUMPI PUSH1 0x40 MLOAD PUSH3 0x461BCD PUSH1 0xE5 SHL DUP2 MSTORE PUSH1 0x4 ADD PUSH2 0xA25 SWAP1 PUSH2 0x4006 JUMP JUMPDEST PUSH1 0x13 SLOAD PUSH1 0x40 MLOAD PUSH4 0x70A08231 PUSH1 0xE0 SHL DUP2 MSTORE ADDRESS PUSH1 0x4 DUP3 ADD MSTORE PUSH0 SWAP2 PUSH1 0x1 PUSH1 0x1 PUSH1 0xA0 SHL SUB AND SWAP1 PUSH4 0x70A08231 SWAP1 PUSH1 0x24 ADD PUSH1 0x20 PUSH1 0x40 MLOAD DUP1 DUP4 SUB DUP2 DUP7 GAS STATICCALL ISZERO DUP1 ISZERO PUSH2 0x23E0 JUMPI RETURNDATASIZE PUSH0 PUSH0 RETURNDATACOPY RETURNDATASIZE PUSH0 REVERT JUMPDEST POP POP POP POP PUSH1 0x40 MLOAD RETURNDATASIZE PUSH1 0x1F NOT PUSH1 0x1F DUP3 ADD AND DUP3 ADD DUP1 PUSH1 0x40 MSTORE POP DUP2 ADD SWAP1 PUSH2 0x2404 SWAP2 SWAP1 PUSH2 0x4452 JUMP JUMPDEST SWAP1 POP PUSH0 DUP2 GT PUSH2 0x244C JUMPI PUSH1 0x40 MLOAD PUSH3 0x461BCD PUSH1 0xE5 SHL DUP2 MSTORE PUSH1 0x20 PUSH1 0x4 DUP3 ADD MSTORE PUSH1 0x14 PUSH1 0x24 DUP3 ADD MSTORE PUSH20 0x496E73756666696369656E742062616C616E6365 PUSH1 0x60 SHL PUSH1 0x44 DUP3 ADD MSTORE PUSH1 0x64 ADD PUSH2 0xA25 JUMP JUMPDEST PUSH1 0x13 SLOAD PUSH1 0x40 MLOAD PUSH4 0xA9059CBB PUSH1 0xE0 SHL DUP2 MSTORE PUSH1 0x1 PUSH1 0x1 PUSH1 0xA0 SHL SUB SWAP1 SWAP2 AND SWAP1 PUSH4 0xA9059CBB SWAP1 PUSH2 0x247E SWAP1 CALLER SWAP1 DUP6 SWAP1 PUSH1 0x4 ADD PUSH2 0x3FB5 JUMP JUMPDEST PUSH1 0x20 PUSH1 0x40 MLOAD DUP1 DUP4 SUB DUP2 PUSH0 DUP8 GAS CALL ISZERO DUP1 ISZERO PUSH2 0x249A JUMPI RETURNDATASIZE PUSH0 PUSH0 RETURNDATACOPY RETURNDATASIZE PUSH0 REVERT JUMPDEST POP POP POP POP PUSH1 0x40 MLOAD RETURNDATASIZE PUSH1 0x1F NOT PUSH1 0x1F DUP3 ADD AND DUP3 ADD DUP1 PUSH1 0x40 MSTORE POP DUP2 ADD SWAP1 PUSH2 0x549 SWAP2 SWAP1 PUSH2 0x440A JUMP JUMPDEST PUSH1 0x18 SLOAD TIMESTAMP GT PUSH2 0x24DF JUMPI PUSH1 0x40 MLOAD PUSH3 0x461BCD PUSH1 0xE5 SHL DUP2 MSTORE PUSH1 0x4 ADD PUSH2 0xA25 SWAP1 PUSH2 0x4234 JUMP JUMPDEST PUSH1 0x11 SLOAD PUSH1 0x1 PUSH1 0x1 PUSH1 0xA0 SHL SUB AND CALLER EQ DUP1 PUSH2 0x2502 JUMPI POP PUSH1 0x12 SLOAD PUSH1 0x1 PUSH1 0x1 PUSH1 0xA0 SHL SUB AND CALLER EQ JUMPDEST PUSH2 0x251E JUMPI PUSH1 0x40 MLOAD PUSH3 0x461BCD PUSH1 0xE5 SHL DUP2 MSTORE PUSH1 0x4 ADD PUSH2 0xA25 SWAP1 PUSH2 0x4006 JUMP JUMPDEST PUSH1 0x40 MLOAD PUSH4 0x70A08231 PUSH1 0xE0 SHL DUP2 MSTORE ADDRESS PUSH1 0x4 DUP3 ADD MSTORE PUSH20 0x779877A7B0D9E8603169DDBD7836E478B4624789 SWAP1 DUP2 SWAP1 PUSH4 0xA9059CBB SWAP1 CALLER SWAP1 DUP4 SWAP1 PUSH4 0x70A08231 SWAP1 PUSH1 0x24 ADD PUSH1 0x20 PUSH1 0x40 MLOAD DUP1 DUP4 SUB DUP2 DUP7 GAS STATICCALL ISZERO DUP1 ISZERO PUSH2 0x2577 JUMPI RETURNDATASIZE PUSH0 PUSH0 RETURNDATACOPY RETURNDATASIZE PUSH0 REVERT JUMPDEST POP POP POP POP PUSH1 0x40 MLOAD RETURNDATASIZE PUSH1 0x1F NOT PUSH1 0x1F DUP3 ADD AND DUP3 ADD DUP1 PUSH1 0x40 MSTORE POP DUP2 ADD SWAP1 PUSH2 0x259B SWAP2 SWAP1 PUSH2 0x4452 JUMP JUMPDEST PUSH1 0x40 MLOAD DUP4 PUSH4 0xFFFFFFFF AND PUSH1 0xE0 SHL DUP2 MSTORE PUSH1 0x4 ADD PUSH2 0x25B8 SWAP3 SWAP2 SWAP1 PUSH2 0x3FB5 JUMP JUMPDEST PUSH1 0x20 PUSH1 0x40 MLOAD DUP1 DUP4 SUB DUP2 PUSH0 DUP8 GAS CALL ISZERO DUP1 ISZERO PUSH2 0x25D4 JUMPI RETURNDATASIZE PUSH0 PUSH0 RETURNDATACOPY RETURNDATASIZE PUSH0 REVERT JUMPDEST POP POP POP POP PUSH1 0x40 MLOAD RETURNDATASIZE PUSH1 0x1F NOT PUSH1 0x1F DUP3 ADD AND DUP3 ADD DUP1 PUSH1 0x40 MSTORE POP DUP2 ADD SWAP1 PUSH2 0x25F8 SWAP2 SWAP1 PUSH2 0x440A JUMP JUMPDEST PUSH2 0x2639 JUMPI PUSH1 0x40 MLOAD PUSH3 0x461BCD PUSH1 0xE5 SHL DUP2 MSTORE PUSH1 0x20 PUSH1 0x4 DUP3 ADD MSTORE PUSH1 0x12 PUSH1 0x24 DUP3 ADD MSTORE PUSH18 0x2AB730B13632903A37903A3930B739B332B9 PUSH1 0x71 SHL PUSH1 0x44 DUP3 ADD MSTORE PUSH1 0x64 ADD PUSH2 0xA25 JUMP JUMPDEST PUSH1 0x40 MLOAD PUSH4 0x70A08231 PUSH1 0xE0 SHL DUP2 MSTORE ADDRESS PUSH1 0x4 DUP3 DUP2 ADD SWAP2 SWAP1 SWAP2 MSTORE PUSH32 0x584260AAE492145046CA839BE31EB713A95F49EC336D4E1EC8CB415FB0E076D6 SWAP2 CALLER SWAP1 PUSH1 0x1 PUSH1 0x1 PUSH1 0xA0 SHL SUB DUP6 AND SWAP1 PUSH4 0x70A08231 SWAP1 PUSH1 0x24 ADD PUSH1 0x20 PUSH1 0x40 MLOAD DUP1 DUP4 SUB DUP2 DUP7 GAS STATICCALL ISZERO DUP1 ISZERO PUSH2 0x26A3 JUMPI RETURNDATASIZE PUSH0 PUSH0 RETURNDATACOPY RETURNDATASIZE PUSH0 REVERT JUMPDEST POP POP POP POP PUSH1 0x40 MLOAD RETURNDATASIZE PUSH1 0x1F NOT PUSH1 0x1F DUP3 ADD AND DUP3 ADD DUP1 PUSH1 0x40 MSTORE POP DUP2 ADD SWAP1 PUSH2 0x26C7 SWAP2 SWAP1 PUSH2 0x4452 JUMP JUMPDEST PUSH1 0x40 MLOAD PUSH2 0xCE9 SWAP4 SWAP3 SWAP2 SWAP1 PUSH2 0x4425 JUMP JUMPDEST PUSH1 0x40 MLOAD PUSH4 0x70A08231 PUSH1 0xE0 SHL DUP2 MSTORE ADDRESS PUSH1 0x4 DUP3 ADD MSTORE PUSH0 SWAP1 PUSH20 0x779877A7B0D9E8603169DDBD7836E478B4624789 SWAP1 DUP2 SWAP1 PUSH4 0x70A08231 SWAP1 PUSH1 0x24 ADD PUSH1 0x20 PUSH1 0x40 MLOAD DUP1 DUP4 SUB DUP2 DUP7 GAS STATICCALL ISZERO DUP1 ISZERO PUSH2 0x2727 JUMPI RETURNDATASIZE PUSH0 PUSH0 RETURNDATACOPY RETURNDATASIZE PUSH0 REVERT JUMPDEST POP POP POP POP PUSH1 0x40 MLOAD RETURNDATASIZE PUSH1 0x1F NOT PUSH1 0x1F DUP3 ADD AND DUP3 ADD DUP1 PUSH1 0x40 MSTORE POP DUP2 ADD SWAP1 PUSH2 0x274B SWAP2 SWAP1 PUSH2 0x4452 JUMP JUMPDEST SWAP2 POP POP SWAP1 JUMP JUMPDEST PUSH1 0x60 PUSH1 0x1F DUP1 SLOAD PUSH2 0x965 SWAP1 PUSH2 0x3FCE JUMP JUMPDEST PUSH1 0x11 SLOAD PUSH1 0x1 PUSH1 0x1 PUSH1 0xA0 SHL SUB AND CALLER EQ DUP1 PUSH2 0x2783 JUMPI POP PUSH1 0x12 SLOAD PUSH1 0x1 PUSH1 0x1 PUSH1 0xA0 SHL SUB AND CALLER EQ JUMPDEST PUSH2 0x279F JUMPI PUSH1 0x40 MLOAD PUSH3 0x461BCD PUSH1 0xE5 SHL DUP2 MSTORE PUSH1 0x4 ADD PUSH2 0xA25 SWAP1 PUSH2 0x4006 JUMP JUMPDEST PUSH1 0x18 SLOAD TIMESTAMP GT PUSH2 0x27C0 JUMPI PUSH1 0x40 MLOAD PUSH3 0x461BCD PUSH1 0xE5 SHL DUP2 MSTORE PUSH1 0x4 ADD PUSH2 0xA25 SWAP1 PUSH2 0x4234 JUMP JUMPDEST CALLER PUSH0 SWAP1 DUP2 MSTORE PUSH1 0x2 PUSH1 0x20 MSTORE PUSH1 0x40 DUP2 KECCAK256 PUSH1 0x1 DUP2 ADD SLOAD SWAP1 SLOAD PUSH2 0x27DF SWAP2 SWAP1 PUSH2 0x412A JUMP JUMPDEST CALLER PUSH0 DUP2 DUP2 MSTORE PUSH1 0x2 PUSH1 0x20 MSTORE PUSH1 0x40 SWAP1 DUP2 SWAP1 KECCAK256 DUP1 SLOAD PUSH1 0x1 SWAP1 SWAP2 ADD SLOAD SWAP2 MLOAD SWAP4 SWAP5 POP PUSH32 0xE41B6ECC31F95FD2CCB7198DF84836BC80DFF897C8C7CC6F20D26CF7FCE57676 SWAP4 PUSH2 0x282D SWAP4 PUSH1 0x4 SWAP4 SWAP1 SWAP3 SWAP2 PUSH2 0x464D JUMP JUMPDEST PUSH1 0x40 MLOAD DUP1 SWAP2 SUB SWAP1 LOG1 CALLER PUSH0 DUP2 DUP2 MSTORE PUSH1 0x2 PUSH1 0x20 MSTORE PUSH1 0x40 DUP1 DUP3 KECCAK256 DUP3 DUP2 SSTORE PUSH1 0x1 ADD SWAP2 SWAP1 SWAP2 SSTORE PUSH1 0x13 SLOAD SWAP1 MLOAD PUSH4 0xA9059CBB PUSH1 0xE0 SHL DUP2 MSTORE PUSH1 0x1 PUSH1 0x1 PUSH1 0xA0 SHL SUB SWAP1 SWAP2 AND SWAP2 PUSH4 0xA9059CBB SWAP2 PUSH2 0x287E SWAP2 SWAP1 DUP6 SWAP1 PUSH1 0x4 ADD PUSH2 0x3FB5 JUMP JUMPDEST PUSH1 0x20 PUSH1 0x40 MLOAD DUP1 DUP4 SUB DUP2 PUSH0 DUP8 GAS CALL ISZERO DUP1 ISZERO PUSH2 0x289A JUMPI RETURNDATASIZE PUSH0 PUSH0 RETURNDATACOPY RETURNDATASIZE PUSH0 REVERT JUMPDEST POP POP POP POP PUSH1 0x40 MLOAD RETURNDATASIZE PUSH1 0x1F NOT PUSH1 0x1F DUP3 ADD AND DUP3 ADD DUP1 PUSH1 0x40 MSTORE POP DUP2 ADD SWAP1 PUSH2 0x28BE SWAP2 SWAP1 PUSH2 0x440A JUMP JUMPDEST PUSH2 0x5EB JUMPI PUSH1 0x40 MLOAD PUSH3 0x461BCD PUSH1 0xE5 SHL DUP2 MSTORE PUSH1 0x20 PUSH1 0x4 DUP3 ADD MSTORE PUSH1 0x3D PUSH1 0x24 DUP3 ADD MSTORE PUSH32 0x4661696C656420746F207472616E736665722074686520696E697469616C206D PUSH1 0x44 DUP3 ADD MSTORE PUSH32 0x617267696E20616E6420746865207465726D696E6174696F6E20666565000000 PUSH1 0x64 DUP3 ADD MSTORE PUSH1 0x84 ADD PUSH2 0xA25 JUMP JUMPDEST PUSH1 0x1 PUSH1 0x1 PUSH1 0xA0 SHL SUB DUP3 AND PUSH2 0x2990 JUMPI PUSH1 0x40 MLOAD PUSH3 0x461BCD PUSH1 0xE5 SHL DUP2 MSTORE PUSH1 0x20 PUSH1 0x4 DUP3 ADD MSTORE PUSH1 0x21 PUSH1 0x24 DUP3 ADD MSTORE PUSH32 0x45524332303A206275726E2066726F6D20746865207A65726F20616464726573 PUSH1 0x44 DUP3 ADD MSTORE PUSH1 0x73 PUSH1 0xF8 SHL PUSH1 0x64 DUP3 ADD MSTORE PUSH1 0x84 ADD PUSH2 0xA25 JUMP JUMPDEST PUSH1 0x1 PUSH1 0x1 PUSH1 0xA0 SHL SUB DUP3 AND PUSH0 SWAP1 DUP2 MSTORE PUSH1 0x19 PUSH1 0x20 MSTORE PUSH1 0x40 SWAP1 KECCAK256 SLOAD DUP2 DUP2 LT ISZERO PUSH2 0x2A03 JUMPI PUSH1 0x40 MLOAD PUSH3 0x461BCD PUSH1 0xE5 SHL DUP2 MSTORE PUSH1 0x20 PUSH1 0x4 DUP3 ADD MSTORE PUSH1 0x22 PUSH1 0x24 DUP3 ADD MSTORE PUSH32 0x45524332303A206275726E20616D6F756E7420657863656564732062616C616E PUSH1 0x44 DUP3 ADD MSTORE PUSH2 0x6365 PUSH1 0xF0 SHL PUSH1 0x64 DUP3 ADD MSTORE PUSH1 0x84 ADD PUSH2 0xA25 JUMP JUMPDEST PUSH1 0x1 PUSH1 0x1 PUSH1 0xA0 SHL SUB DUP4 AND PUSH0 DUP2 DUP2 MSTORE PUSH1 0x19 PUSH1 0x20 SWAP1 DUP2 MSTORE PUSH1 0x40 DUP1 DUP4 KECCAK256 DUP7 DUP7 SUB SWAP1 SSTORE PUSH1 0x1B DUP1 SLOAD DUP8 SWAP1 SUB SWAP1 SSTORE PUSH1 0x1D DUP1 SLOAD DUP8 ADD SWAP1 SSTORE MLOAD DUP6 DUP2 MSTORE SWAP2 SWAP3 SWAP2 PUSH32 0xDDF252AD1BE2C89B69C2B068FC378DAA952BA7F163C4A11628F55A4DF523B3EF SWAP2 ADD JUMPDEST PUSH1 0x40 MLOAD DUP1 SWAP2 SUB SWAP1 LOG3 JUMPDEST POP POP POP JUMP JUMPDEST PUSH0 CALLER DUP2 PUSH2 0x2A79 DUP3 DUP7 PUSH2 0x2DC6 JUMP JUMPDEST SWAP1 POP DUP4 DUP2 LT ISZERO PUSH2 0x2AD9 JUMPI PUSH1 0x40 MLOAD PUSH3 0x461BCD PUSH1 0xE5 SHL DUP2 MSTORE PUSH1 0x20 PUSH1 0x4 DUP3 ADD MSTORE PUSH1 0x25 PUSH1 0x24 DUP3 ADD MSTORE PUSH32 0x45524332303A2064656372656173656420616C6C6F77616E63652062656C6F77 PUSH1 0x44 DUP3 ADD MSTORE PUSH5 0x207A65726F PUSH1 0xD8 SHL PUSH1 0x64 DUP3 ADD MSTORE PUSH1 0x84 ADD PUSH2 0xA25 JUMP JUMPDEST PUSH2 0x1554 DUP3 DUP7 DUP7 DUP5 SUB PUSH2 0x3411 JUMP JUMPDEST PUSH0 CALLER PUSH2 0xC4E DUP2 DUP6 DUP6 PUSH2 0x35C0 JUMP JUMPDEST PUSH1 0x60 PUSH1 0x5 DUP1 SLOAD PUSH2 0x965 SWAP1 PUSH2 0x3FCE JUMP JUMPDEST PUSH1 0x60 PUSH1 0x10 DUP1 SLOAD DUP1 PUSH1 0x20 MUL PUSH1 0x20 ADD PUSH1 0x40 MLOAD SWAP1 DUP2 ADD PUSH1 0x40 MSTORE DUP1 SWAP3 SWAP2 SWAP1 DUP2 DUP2 MSTORE PUSH1 0x20 ADD PUSH0 SWAP1 JUMPDEST DUP3 DUP3 LT ISZERO PUSH2 0x2B9A JUMPI PUSH0 DUP5 DUP2 MSTORE PUSH1 0x20 SWAP1 DUP2 SWAP1 KECCAK256 PUSH1 0x40 DUP1 MLOAD PUSH1 0xC0 DUP2 ADD DUP3 MSTORE PUSH1 0x6 DUP7 MUL SWAP1 SWAP3 ADD DUP1 SLOAD PUSH1 0x1 PUSH1 0x1 PUSH1 0xA0 SHL SUB SWAP1 DUP2 AND DUP5 MSTORE PUSH1 0x1 DUP1 DUP4 ADD SLOAD SWAP1 SWAP2 AND DUP5 DUP7 ADD MSTORE PUSH1 0x2 DUP3 ADD SLOAD SWAP3 DUP5 ADD SWAP3 SWAP1 SWAP3 MSTORE PUSH1 0x3 DUP2 ADD SLOAD PUSH1 0x60 DUP5 ADD MSTORE PUSH1 0x4 DUP2 ADD SLOAD PUSH1 0x80 DUP5 ADD MSTORE PUSH1 0x5 ADD SLOAD PUSH1 0xA0 DUP4 ADD MSTORE SWAP1 DUP4 MSTORE SWAP1 SWAP3 ADD SWAP2 ADD PUSH2 0x2B25 JUMP JUMPDEST POP POP POP POP SWAP1 POP SWAP1 JUMP JUMPDEST PUSH1 0x11 SLOAD PUSH1 0x1 PUSH1 0x1 PUSH1 0xA0 SHL SUB AND CALLER EQ DUP1 PUSH2 0x2BC6 JUMPI POP PUSH1 0x12 SLOAD PUSH1 0x1 PUSH1 0x1 PUSH1 0xA0 SHL SUB AND CALLER EQ JUMPDEST PUSH2 0x2BE2 JUMPI PUSH1 0x40 MLOAD PUSH3 0x461BCD PUSH1 0xE5 SHL DUP2 MSTORE PUSH1 0x4 ADD PUSH2 0xA25 SWAP1 PUSH2 0x4006 JUMP JUMPDEST PUSH1 0x5 PUSH1 0x3 SLOAD PUSH1 0xFF AND PUSH1 0x8 DUP2 GT ISZERO PUSH2 0x2BFB JUMPI PUSH2 0x2BFB PUSH2 0x3E8E JUMP JUMPDEST EQ PUSH2 0x2C18 JUMPI PUSH1 0x40 MLOAD PUSH3 0x461BCD PUSH1 0xE5 SHL DUP2 MSTORE PUSH1 0x4 ADD PUSH2 0xA25 SWAP1 PUSH2 0x403D JUMP JUMPDEST PUSH1 0x18 SLOAD TIMESTAMP GT ISZERO PUSH2 0x2C3A JUMPI PUSH1 0x40 MLOAD PUSH3 0x461BCD PUSH1 0xE5 SHL DUP2 MSTORE PUSH1 0x4 ADD PUSH2 0xA25 SWAP1 PUSH2 0x4074 JUMP JUMPDEST PUSH1 0x5 PUSH1 0x40 MLOAD PUSH1 0x20 ADD PUSH2 0x2C4C SWAP2 SWAP1 PUSH2 0x4684 JUMP JUMPDEST PUSH1 0x40 MLOAD PUSH1 0x20 DUP2 DUP4 SUB SUB DUP2 MSTORE SWAP1 PUSH1 0x40 MSTORE DUP1 MLOAD SWAP1 PUSH1 0x20 ADD KECCAK256 DUP4 PUSH1 0x40 MLOAD PUSH1 0x20 ADD PUSH2 0x2C73 SWAP2 SWAP1 PUSH2 0x46F5 JUMP JUMPDEST PUSH1 0x40 MLOAD PUSH1 0x20 DUP2 DUP4 SUB SUB DUP2 MSTORE SWAP1 PUSH1 0x40 MSTORE DUP1 MLOAD SWAP1 PUSH1 0x20 ADD KECCAK256 EQ PUSH2 0x2CA9 JUMPI DUP3 PUSH1 0x40 MLOAD PUSH4 0x90399B3 PUSH1 0xE4 SHL DUP2 MSTORE PUSH1 0x4 ADD PUSH2 0xA25 SWAP2 SWAP1 PUSH2 0x39D3 JUMP JUMPDEST PUSH0 DUP4 DUP4 DUP4 PUSH1 0x40 MLOAD PUSH1 0x20 ADD PUSH2 0x2CBF SWAP4 SWAP3 SWAP2 SWAP1 PUSH2 0x40BE JUMP JUMPDEST PUSH1 0x40 DUP1 MLOAD PUSH1 0x1F NOT DUP2 DUP5 SUB ADD DUP2 MSTORE DUP3 DUP3 MSTORE DUP1 MLOAD PUSH1 0x20 SWAP2 DUP3 ADD KECCAK256 PUSH0 DUP2 DUP2 MSTORE PUSH1 0x1 SWAP1 SWAP3 MSTORE SWAP2 SWAP1 KECCAK256 DUP1 SLOAD PUSH1 0x1 PUSH1 0x1 PUSH1 0xA0 SHL SUB NOT AND CALLER SWAP1 DUP2 OR SWAP1 SWAP2 SSTORE SWAP1 SWAP3 POP PUSH32 0x2296534D3DF387AE4AE69F41BF423EE65754B1C234537082A084761F0DCAF138 SWAP2 PUSH2 0x2D2C SWAP2 SWAP1 PUSH1 0x4 SWAP1 DUP8 SWAP1 DUP8 SWAP1 PUSH2 0x41BC JUMP JUMPDEST PUSH1 0x40 MLOAD DUP1 SWAP2 SUB SWAP1 LOG1 POP POP POP POP JUMP JUMPDEST PUSH1 0x4 DUP1 SLOAD PUSH2 0x2D47 SWAP1 PUSH2 0x3FCE JUMP JUMPDEST DUP1 PUSH1 0x1F ADD PUSH1 0x20 DUP1 SWAP2 DIV MUL PUSH1 0x20 ADD PUSH1 0x40 MLOAD SWAP1 DUP2 ADD PUSH1 0x40 MSTORE DUP1 SWAP3 SWAP2 SWAP1 DUP2 DUP2 MSTORE PUSH1 0x20 ADD DUP3 DUP1 SLOAD PUSH2 0x2D73 SWAP1 PUSH2 0x3FCE JUMP JUMPDEST DUP1 ISZERO PUSH2 0x2DBE JUMPI DUP1 PUSH1 0x1F LT PUSH2 0x2D95 JUMPI PUSH2 0x100 DUP1 DUP4 SLOAD DIV MUL DUP4 MSTORE SWAP2 PUSH1 0x20 ADD SWAP2 PUSH2 0x2DBE JUMP JUMPDEST DUP3 ADD SWAP2 SWAP1 PUSH0 MSTORE PUSH1 0x20 PUSH0 KECCAK256 SWAP1 JUMPDEST DUP2 SLOAD DUP2 MSTORE SWAP1 PUSH1 0x1 ADD SWAP1 PUSH1 0x20 ADD DUP1 DUP4 GT PUSH2 0x2DA1 JUMPI DUP3 SWAP1 SUB PUSH1 0x1F AND DUP3 ADD SWAP2 JUMPDEST POP POP POP POP POP DUP2 JUMP JUMPDEST PUSH1 0x1 PUSH1 0x1 PUSH1 0xA0 SHL SUB SWAP2 DUP3 AND PUSH0 SWAP1 DUP2 MSTORE PUSH1 0x1A PUSH1 0x20 SWAP1 DUP2 MSTORE PUSH1 0x40 DUP1 DUP4 KECCAK256 SWAP4 SWAP1 SWAP5 AND DUP3 MSTORE SWAP2 SWAP1 SWAP2 MSTORE KECCAK256 SLOAD SWAP1 JUMP JUMPDEST PUSH1 0x60 PUSH1 0x4 DUP1 SLOAD PUSH2 0x965 SWAP1 PUSH2 0x3FCE JUMP JUMPDEST PUSH1 0x11 SLOAD PUSH1 0x60 SWAP1 PUSH1 0x1 PUSH1 0x1 PUSH1 0xA0 SHL SUB AND CALLER EQ DUP1 PUSH2 0x2E25 JUMPI POP PUSH1 0x12 SLOAD PUSH1 0x1 PUSH1 0x1 PUSH1 0xA0 SHL SUB AND CALLER EQ JUMPDEST PUSH2 0x2E41 JUMPI PUSH1 0x40 MLOAD PUSH3 0x461BCD PUSH1 0xE5 SHL DUP2 MSTORE PUSH1 0x4 ADD PUSH2 0xA25 SWAP1 PUSH2 0x4006 JUMP JUMPDEST PUSH0 PUSH1 0x3 SLOAD PUSH1 0xFF AND PUSH1 0x8 DUP2 GT ISZERO PUSH2 0x2E59 JUMPI PUSH2 0x2E59 PUSH2 0x3E8E JUMP JUMPDEST EQ PUSH2 0x2EA6 JUMPI PUSH1 0x40 MLOAD PUSH3 0x461BCD PUSH1 0xE5 SHL DUP2 MSTORE PUSH1 0x20 PUSH1 0x4 DUP3 ADD MSTORE PUSH1 0x1E PUSH1 0x24 DUP3 ADD MSTORE PUSH32 0x5472616465207374617465206973206E6F742027496E616374697665272E0000 PUSH1 0x44 DUP3 ADD MSTORE PUSH1 0x64 ADD PUSH2 0xA25 JUMP JUMPDEST PUSH1 0x18 SLOAD TIMESTAMP GT ISZERO PUSH2 0x2EC8 JUMPI PUSH1 0x40 MLOAD PUSH3 0x461BCD PUSH1 0xE5 SHL DUP2 MSTORE PUSH1 0x4 ADD PUSH2 0xA25 SWAP1 PUSH2 0x4074 JUMP JUMPDEST CALLER PUSH1 0x1 PUSH1 0x1 PUSH1 0xA0 SHL SUB DUP8 AND PUSH2 0x2F17 JUMPI PUSH1 0x40 MLOAD PUSH3 0x461BCD PUSH1 0xE5 SHL DUP2 MSTORE PUSH1 0x20 PUSH1 0x4 DUP3 ADD MSTORE PUSH1 0x15 PUSH1 0x24 DUP3 ADD MSTORE PUSH21 0x496E76616C69642070617274792061646472657373 PUSH1 0x58 SHL PUSH1 0x44 DUP3 ADD MSTORE PUSH1 0x64 ADD PUSH2 0xA25 JUMP JUMPDEST DUP7 PUSH1 0x1 PUSH1 0x1 PUSH1 0xA0 SHL SUB AND DUP2 PUSH1 0x1 PUSH1 0x1 PUSH1 0xA0 SHL SUB AND SUB PUSH2 0x2F5A JUMPI PUSH1 0x40 MLOAD PUSH4 0x6DF88757 PUSH1 0xE0 SHL DUP2 MSTORE CALLER PUSH1 0x4 DUP3 ADD MSTORE PUSH1 0x1 PUSH1 0x1 PUSH1 0xA0 SHL SUB DUP9 AND PUSH1 0x24 DUP3 ADD MSTORE PUSH1 0x44 ADD PUSH2 0xA25 JUMP JUMPDEST PUSH1 0x11 SLOAD PUSH1 0x1 PUSH1 0x1 PUSH1 0xA0 SHL SUB DUP9 DUP2 AND SWAP2 AND EQ DUP1 PUSH2 0x2F83 JUMPI POP PUSH1 0x12 SLOAD PUSH1 0x1 PUSH1 0x1 PUSH1 0xA0 SHL SUB DUP9 DUP2 AND SWAP2 AND EQ JUMPDEST PUSH2 0x2FEB JUMPI PUSH1 0x40 MLOAD PUSH3 0x461BCD PUSH1 0xE5 SHL DUP2 MSTORE PUSH1 0x20 PUSH1 0x4 DUP3 ADD MSTORE PUSH1 0x33 PUSH1 0x24 DUP3 ADD MSTORE PUSH32 0x57726F6E6720277769746850617274792720616464726573732C204D55535420 PUSH1 0x44 DUP3 ADD MSTORE PUSH19 0x42452074686520636F756E7465727061727479 PUSH1 0x68 SHL PUSH1 0x64 DUP3 ADD MSTORE PUSH1 0x84 ADD PUSH2 0xA25 JUMP JUMPDEST DUP5 PUSH1 0x1 EQ DUP1 PUSH2 0x2FFA JUMPI POP DUP5 PUSH0 NOT EQ JUMPDEST PUSH2 0x3039 JUMPI PUSH1 0x40 MLOAD PUSH3 0x461BCD PUSH1 0xE5 SHL DUP2 MSTORE PUSH1 0x20 PUSH1 0x4 DUP3 ADD MSTORE PUSH1 0x10 PUSH1 0x24 DUP3 ADD MSTORE PUSH16 0x34B73B30B634B2103837B9B4BA34B7B7 PUSH1 0x81 SHL PUSH1 0x44 DUP3 ADD MSTORE PUSH1 0x64 ADD PUSH2 0xA25 JUMP JUMPDEST DUP5 PUSH1 0x1 SUB PUSH2 0x306F JUMPI PUSH1 0x11 DUP1 SLOAD CALLER PUSH1 0x1 PUSH1 0x1 PUSH1 0xA0 SHL SUB NOT SWAP2 DUP3 AND OR SWAP1 SWAP2 SSTORE PUSH1 0x12 DUP1 SLOAD SWAP1 SWAP2 AND PUSH1 0x1 PUSH1 0x1 PUSH1 0xA0 SHL SUB DUP10 AND OR SWAP1 SSTORE PUSH2 0x3099 JUMP JUMPDEST PUSH1 0x12 DUP1 SLOAD CALLER PUSH1 0x1 PUSH1 0x1 PUSH1 0xA0 SHL SUB NOT SWAP2 DUP3 AND OR SWAP1 SWAP2 SSTORE PUSH1 0x11 DUP1 SLOAD SWAP1 SWAP2 AND PUSH1 0x1 PUSH1 0x1 PUSH1 0xA0 SHL SUB DUP10 AND OR SWAP1 SSTORE JUMPDEST PUSH1 0x3 DUP1 SLOAD PUSH1 0xFF NOT AND PUSH1 0x1 OR SWAP1 SSTORE PUSH1 0x40 MLOAD PUSH0 SWAP1 PUSH2 0x30C3 SWAP1 CALLER SWAP1 DUP11 SWAP1 DUP11 SWAP1 DUP11 SWAP1 DUP11 SWAP1 DUP11 SWAP1 PUSH1 0x20 ADD PUSH2 0x44F1 JUMP JUMPDEST PUSH1 0x40 DUP1 MLOAD PUSH1 0x1F NOT DUP2 DUP5 SUB ADD DUP2 MSTORE SWAP2 DUP2 MSTORE DUP2 MLOAD PUSH1 0x20 SWAP3 DUP4 ADD KECCAK256 PUSH0 DUP2 DUP2 MSTORE PUSH1 0x1 SWAP1 SWAP4 MSTORE SWAP2 KECCAK256 DUP1 SLOAD PUSH1 0x1 PUSH1 0x1 PUSH1 0xA0 SHL SUB NOT AND CALLER OR SWAP1 SSTORE SWAP1 POP PUSH2 0x3101 DUP2 PUSH2 0x383F JUMP JUMPDEST PUSH1 0x5 SWAP1 PUSH2 0x310E SWAP1 DUP3 PUSH2 0x4756 JUMP JUMPDEST POP TIMESTAMP PUSH1 0x8 SSTORE PUSH1 0x13 SLOAD PUSH1 0x40 DUP1 MLOAD PUSH4 0x313CE567 PUSH1 0xE0 SHL DUP2 MSTORE SWAP1 MLOAD PUSH0 SWAP3 PUSH1 0x1 PUSH1 0x1 PUSH1 0xA0 SHL SUB AND SWAP2 PUSH4 0x313CE567 SWAP2 PUSH1 0x4 DUP1 DUP4 ADD SWAP3 PUSH1 0x20 SWAP3 SWAP2 SWAP1 DUP3 SWAP1 SUB ADD DUP2 DUP7 GAS STATICCALL ISZERO DUP1 ISZERO PUSH2 0x315A JUMPI RETURNDATASIZE PUSH0 PUSH0 RETURNDATACOPY RETURNDATASIZE PUSH0 REVERT JUMPDEST POP POP POP POP PUSH1 0x40 MLOAD RETURNDATASIZE PUSH1 0x1F NOT PUSH1 0x1F DUP3 ADD AND DUP3 ADD DUP1 PUSH1 0x40 MSTORE POP DUP2 ADD SWAP1 PUSH2 0x317E SWAP2 SWAP1 PUSH2 0x4490 JUMP JUMPDEST SWAP1 POP PUSH1 0x40 MLOAD DUP1 PUSH1 0x40 ADD PUSH1 0x40 MSTORE DUP1 DUP3 PUSH1 0xA PUSH2 0x3198 SWAP2 SWAP1 PUSH2 0x43B5 JUMP JUMPDEST PUSH1 0x6 SLOAD PUSH2 0x31A5 SWAP2 SWAP1 PUSH2 0x44BB JUMP JUMPDEST DUP2 MSTORE PUSH1 0x20 ADD PUSH2 0x31B5 DUP4 PUSH1 0xA PUSH2 0x43B5 JUMP JUMPDEST PUSH1 0x7 SLOAD PUSH2 0x31C2 SWAP2 SWAP1 PUSH2 0x44BB JUMP JUMPDEST SWAP1 MSTORE CALLER PUSH0 SWAP1 DUP2 MSTORE PUSH1 0x2 PUSH1 0x20 SWAP1 DUP2 MSTORE PUSH1 0x40 DUP3 KECCAK256 DUP4 MLOAD DUP2 SSTORE SWAP3 ADD MLOAD PUSH1 0x1 SWAP1 SWAP3 ADD SWAP2 SWAP1 SWAP2 SSTORE PUSH2 0x31EF DUP3 PUSH1 0xA PUSH2 0x43B5 JUMP JUMPDEST PUSH1 0x7 SLOAD PUSH1 0x6 SLOAD PUSH2 0x31FF SWAP2 SWAP1 PUSH2 0x412A JUMP JUMPDEST PUSH2 0x3209 SWAP2 SWAP1 PUSH2 0x44BB JUMP JUMPDEST SWAP1 POP PUSH0 PUSH2 0x3217 DUP4 PUSH1 0xA PUSH2 0x43B5 JUMP JUMPDEST PUSH2 0x3221 SWAP1 DUP10 PUSH2 0x44BB JUMP JUMPDEST SWAP1 POP DUP2 DUP2 EQ PUSH2 0x326B JUMPI PUSH1 0x40 MLOAD PUSH3 0x461BCD PUSH1 0xE5 SHL DUP2 MSTORE PUSH1 0x20 PUSH1 0x4 DUP3 ADD MSTORE PUSH1 0x16 PUSH1 0x24 DUP3 ADD MSTORE PUSH22 0x125B9D985B1A59081C185E5B595B9D08185B5BDD5B9D PUSH1 0x52 SHL PUSH1 0x44 DUP3 ADD MSTORE PUSH1 0x64 ADD PUSH2 0xA25 JUMP JUMPDEST PUSH1 0x13 SLOAD PUSH1 0x40 MLOAD PUSH4 0x23B872DD PUSH1 0xE0 SHL DUP2 MSTORE CALLER PUSH1 0x4 DUP3 ADD MSTORE ADDRESS PUSH1 0x24 DUP3 ADD MSTORE PUSH1 0x44 DUP2 ADD DUP5 SWAP1 MSTORE PUSH1 0x1 PUSH1 0x1 PUSH1 0xA0 SHL SUB SWAP1 SWAP2 AND SWAP1 PUSH4 0x23B872DD SWAP1 PUSH1 0x64 ADD PUSH1 0x20 PUSH1 0x40 MLOAD DUP1 DUP4 SUB DUP2 PUSH0 DUP8 GAS CALL ISZERO DUP1 ISZERO PUSH2 0x32BF JUMPI RETURNDATASIZE PUSH0 PUSH0 RETURNDATACOPY RETURNDATASIZE PUSH0 REVERT JUMPDEST POP POP POP POP PUSH1 0x40 MLOAD RETURNDATASIZE PUSH1 0x1F NOT PUSH1 0x1F DUP3 ADD AND DUP3 ADD DUP1 PUSH1 0x40 MSTORE POP DUP2 ADD SWAP1 PUSH2 0x32E3 SWAP2 SWAP1 PUSH2 0x440A JUMP JUMPDEST PUSH2 0x32FF JUMPI PUSH1 0x40 MLOAD PUSH3 0x461BCD PUSH1 0xE5 SHL DUP2 MSTORE PUSH1 0x4 ADD PUSH2 0xA25 SWAP1 PUSH2 0x45F0 JUMP JUMPDEST PUSH32 0x2A1C9FFCFB612AE02061C9C984DA3814098F6CFB22C68895D7BB548DDBFD094E CALLER DUP13 PUSH1 0x5 PUSH1 0x4 DUP14 DUP14 DUP14 PUSH1 0x40 MLOAD PUSH2 0x333C SWAP8 SWAP7 SWAP6 SWAP5 SWAP4 SWAP3 SWAP2 SWAP1 PUSH2 0x4810 JUMP JUMPDEST PUSH1 0x40 MLOAD DUP1 SWAP2 SUB SWAP1 LOG1 PUSH1 0x5 DUP1 SLOAD PUSH2 0x3351 SWAP1 PUSH2 0x3FCE JUMP JUMPDEST DUP1 PUSH1 0x1F ADD PUSH1 0x20 DUP1 SWAP2 DIV MUL PUSH1 0x20 ADD PUSH1 0x40 MLOAD SWAP1 DUP2 ADD PUSH1 0x40 MSTORE DUP1 SWAP3 SWAP2 SWAP1 DUP2 DUP2 MSTORE PUSH1 0x20 ADD DUP3 DUP1 SLOAD PUSH2 0x337D SWAP1 PUSH2 0x3FCE JUMP JUMPDEST DUP1 ISZERO PUSH2 0x33C8 JUMPI DUP1 PUSH1 0x1F LT PUSH2 0x339F JUMPI PUSH2 0x100 DUP1 DUP4 SLOAD DIV MUL DUP4 MSTORE SWAP2 PUSH1 0x20 ADD SWAP2 PUSH2 0x33C8 JUMP JUMPDEST DUP3 ADD SWAP2 SWAP1 PUSH0 MSTORE PUSH1 0x20 PUSH0 KECCAK256 SWAP1 JUMPDEST DUP2 SLOAD DUP2 MSTORE SWAP1 PUSH1 0x1 ADD SWAP1 PUSH1 0x20 ADD DUP1 DUP4 GT PUSH2 0x33AB JUMPI DUP3 SWAP1 SUB PUSH1 0x1F AND DUP3 ADD SWAP2 JUMPDEST POP POP POP POP POP SWAP6 POP POP POP POP POP POP SWAP6 SWAP5 POP POP POP POP POP JUMP JUMPDEST PUSH1 0x11 SLOAD PUSH0 SWAP1 PUSH1 0x1 PUSH1 0x1 PUSH1 0xA0 SHL SUB AND CALLER EQ PUSH2 0x3401 JUMPI POP PUSH1 0x11 SLOAD PUSH1 0x1 PUSH1 0x1 PUSH1 0xA0 SHL SUB AND SWAP1 JUMP JUMPDEST POP PUSH1 0x12 SLOAD PUSH1 0x1 PUSH1 0x1 PUSH1 0xA0 SHL SUB AND SWAP1 JUMP JUMPDEST PUSH1 0x18 SLOAD TIMESTAMP GT ISZERO PUSH2 0x3433 JUMPI PUSH1 0x40 MLOAD PUSH3 0x461BCD PUSH1 0xE5 SHL DUP2 MSTORE PUSH1 0x4 ADD PUSH2 0xA25 SWAP1 PUSH2 0x4074 JUMP JUMPDEST PUSH1 0x1 PUSH1 0x1 PUSH1 0xA0 SHL SUB DUP4 AND PUSH2 0x3495 JUMPI PUSH1 0x40 MLOAD PUSH3 0x461BCD PUSH1 0xE5 SHL DUP2 MSTORE PUSH1 0x20 PUSH1 0x4 DUP3 ADD MSTORE PUSH1 0x24 DUP1 DUP3 ADD MSTORE PUSH32 0x45524332303A20617070726F76652066726F6D20746865207A65726F20616464 PUSH1 0x44 DUP3 ADD MSTORE PUSH4 0x72657373 PUSH1 0xE0 SHL PUSH1 0x64 DUP3 ADD MSTORE PUSH1 0x84 ADD PUSH2 0xA25 JUMP JUMPDEST PUSH1 0x1 PUSH1 0x1 PUSH1 0xA0 SHL SUB DUP3 AND PUSH2 0x34F6 JUMPI PUSH1 0x40 MLOAD PUSH3 0x461BCD PUSH1 0xE5 SHL DUP2 MSTORE PUSH1 0x20 PUSH1 0x4 DUP3 ADD MSTORE PUSH1 0x22 PUSH1 0x24 DUP3 ADD MSTORE PUSH32 0x45524332303A20617070726F766520746F20746865207A65726F206164647265 PUSH1 0x44 DUP3 ADD MSTORE PUSH2 0x7373 PUSH1 0xF0 SHL PUSH1 0x64 DUP3 ADD MSTORE PUSH1 0x84 ADD PUSH2 0xA25 JUMP JUMPDEST PUSH1 0x1 PUSH1 0x1 PUSH1 0xA0 SHL SUB DUP4 DUP2 AND PUSH0 DUP2 DUP2 MSTORE PUSH1 0x1A PUSH1 0x20 SWAP1 DUP2 MSTORE PUSH1 0x40 DUP1 DUP4 KECCAK256 SWAP5 DUP8 AND DUP1 DUP5 MSTORE SWAP5 DUP3 MSTORE SWAP2 DUP3 SWAP1 KECCAK256 DUP6 SWAP1 SSTORE SWAP1 MLOAD DUP5 DUP2 MSTORE PUSH32 0x8C5BE1E5EBEC7D5BD14F71427D1E84F3DD0314C0F7B2291E5B200AC8C7C3B925 SWAP2 ADD PUSH2 0x2A5E JUMP JUMPDEST PUSH0 PUSH2 0x3559 DUP5 DUP5 PUSH2 0x2DC6 JUMP JUMPDEST SWAP1 POP PUSH0 NOT DUP2 EQ PUSH2 0x58A JUMPI DUP2 DUP2 LT ISZERO PUSH2 0x35B3 JUMPI PUSH1 0x40 MLOAD PUSH3 0x461BCD PUSH1 0xE5 SHL DUP2 MSTORE PUSH1 0x20 PUSH1 0x4 DUP3 ADD MSTORE PUSH1 0x1D PUSH1 0x24 DUP3 ADD MSTORE PUSH32 0x45524332303A20696E73756666696369656E7420616C6C6F77616E6365000000 PUSH1 0x44 DUP3 ADD MSTORE PUSH1 0x64 ADD PUSH2 0xA25 JUMP JUMPDEST PUSH2 0x58A DUP5 DUP5 DUP5 DUP5 SUB PUSH2 0x3411 JUMP JUMPDEST PUSH1 0x18 SLOAD TIMESTAMP GT ISZERO PUSH2 0x35E2 JUMPI PUSH1 0x40 MLOAD PUSH3 0x461BCD PUSH1 0xE5 SHL DUP2 MSTORE PUSH1 0x4 ADD PUSH2 0xA25 SWAP1 PUSH2 0x4074 JUMP JUMPDEST PUSH1 0x1 PUSH1 0x1 PUSH1 0xA0 SHL SUB DUP4 AND PUSH2 0x3646 JUMPI PUSH1 0x40 MLOAD PUSH3 0x461BCD PUSH1 0xE5 SHL DUP2 MSTORE PUSH1 0x20 PUSH1 0x4 DUP3 ADD MSTORE PUSH1 0x25 PUSH1 0x24 DUP3 ADD MSTORE PUSH32 0x45524332303A207472616E736665722066726F6D20746865207A65726F206164 PUSH1 0x44 DUP3 ADD MSTORE PUSH5 0x6472657373 PUSH1 0xD8 SHL PUSH1 0x64 DUP3 ADD MSTORE PUSH1 0x84 ADD PUSH2 0xA25 JUMP JUMPDEST PUSH1 0x1 PUSH1 0x1 PUSH1 0xA0 SHL SUB DUP3 AND PUSH2 0x36A8 JUMPI PUSH1 0x40 MLOAD PUSH3 0x461BCD PUSH1 0xE5 SHL DUP2 MSTORE PUSH1 0x20 PUSH1 0x4 DUP3 ADD MSTORE PUSH1 0x23 PUSH1 0x24 DUP3 ADD MSTORE PUSH32 0x45524332303A207472616E7366657220746F20746865207A65726F2061646472 PUSH1 0x44 DUP3 ADD MSTORE PUSH3 0x657373 PUSH1 0xE8 SHL PUSH1 0x64 DUP3 ADD MSTORE PUSH1 0x84 ADD PUSH2 0xA25 JUMP JUMPDEST PUSH1 0x1 PUSH1 0x1 PUSH1 0xA0 SHL SUB DUP4 AND PUSH0 SWAP1 DUP2 MSTORE PUSH1 0x19 PUSH1 0x20 MSTORE PUSH1 0x40 SWAP1 KECCAK256 SLOAD DUP2 DUP2 EQ PUSH2 0x3721 JUMPI PUSH1 0x40 MLOAD PUSH3 0x461BCD PUSH1 0xE5 SHL DUP2 MSTORE PUSH1 0x20 PUSH1 0x4 DUP3 ADD MSTORE PUSH1 0x29 PUSH1 0x24 DUP3 ADD MSTORE PUSH32 0x45524332303A20796F75206D757374207472616E7366657220616C6C20796F75 PUSH1 0x44 DUP3 ADD MSTORE PUSH9 0x722062616C616E6365 PUSH1 0xB8 SHL PUSH1 0x64 DUP3 ADD MSTORE PUSH1 0x84 ADD PUSH2 0xA25 JUMP JUMPDEST PUSH1 0x1 PUSH1 0x1 PUSH1 0xA0 SHL SUB DUP1 DUP6 AND PUSH0 DUP2 DUP2 MSTORE PUSH1 0x19 PUSH1 0x20 MSTORE PUSH1 0x40 DUP1 DUP3 KECCAK256 DUP7 DUP7 SUB SWAP1 SSTORE DUP7 DUP5 AND DUP3 MSTORE SWAP1 KECCAK256 DUP1 SLOAD DUP6 ADD SWAP1 SSTORE PUSH1 0x11 SLOAD SWAP1 SWAP2 AND SWAP1 SUB PUSH2 0x3778 JUMPI PUSH1 0x11 DUP1 SLOAD PUSH1 0x1 PUSH1 0x1 PUSH1 0xA0 SHL SUB NOT AND PUSH1 0x1 PUSH1 0x1 PUSH1 0xA0 SHL SUB DUP6 AND OR SWAP1 SSTORE PUSH2 0x37ED JUMP JUMPDEST PUSH1 0x12 SLOAD PUSH1 0x1 PUSH1 0x1 PUSH1 0xA0 SHL SUB SWAP1 DUP2 AND SWAP1 DUP6 AND SUB PUSH2 0x37AE JUMPI PUSH1 0x12 DUP1 SLOAD PUSH1 0x1 PUSH1 0x1 PUSH1 0xA0 SHL SUB NOT AND PUSH1 0x1 PUSH1 0x1 PUSH1 0xA0 SHL SUB DUP6 AND OR SWAP1 SSTORE PUSH2 0x37ED JUMP JUMPDEST PUSH1 0x40 MLOAD PUSH3 0x461BCD PUSH1 0xE5 SHL DUP2 MSTORE PUSH1 0x20 PUSH1 0x4 DUP3 ADD MSTORE PUSH1 0x14 PUSH1 0x24 DUP3 ADD MSTORE PUSH20 0x696E76616C69642066726F6D2061646472657373 PUSH1 0x60 SHL PUSH1 0x44 DUP3 ADD MSTORE PUSH1 0x64 ADD PUSH2 0xA25 JUMP JUMPDEST DUP3 PUSH1 0x1 PUSH1 0x1 PUSH1 0xA0 SHL SUB AND DUP5 PUSH1 0x1 PUSH1 0x1 PUSH1 0xA0 SHL SUB AND PUSH32 0xDDF252AD1BE2C89B69C2B068FC378DAA952BA7F163C4A11628F55A4DF523B3EF DUP5 PUSH1 0x40 MLOAD PUSH2 0x3832 SWAP2 DUP2 MSTORE PUSH1 0x20 ADD SWAP1 JUMP JUMPDEST PUSH1 0x40 MLOAD DUP1 SWAP2 SUB SWAP1 LOG3 PUSH2 0x58A JUMP JUMPDEST PUSH1 0x60 PUSH0 PUSH2 0x384B DUP4 PUSH2 0x38CE JUMP JUMPDEST PUSH1 0x1 ADD SWAP1 POP PUSH0 DUP2 PUSH1 0x1 PUSH1 0x1 PUSH1 0x40 SHL SUB DUP2 GT ISZERO PUSH2 0x3869 JUMPI PUSH2 0x3869 PUSH2 0x39EC JUMP JUMPDEST PUSH1 0x40 MLOAD SWAP1 DUP1 DUP3 MSTORE DUP1 PUSH1 0x1F ADD PUSH1 0x1F NOT AND PUSH1 0x20 ADD DUP3 ADD PUSH1 0x40 MSTORE DUP1 ISZERO PUSH2 0x3893 JUMPI PUSH1 0x20 DUP3 ADD DUP2 DUP1 CALLDATASIZE DUP4 CALLDATACOPY ADD SWAP1 POP JUMPDEST POP SWAP1 POP DUP2 DUP2 ADD PUSH1 0x20 ADD JUMPDEST PUSH0 NOT ADD PUSH16 0x181899199A1A9B1B9C1CB0B131B232B3 PUSH1 0x81 SHL PUSH1 0xA DUP7 MOD BYTE DUP2 MSTORE8 PUSH1 0xA DUP6 DIV SWAP5 POP DUP5 PUSH2 0x389D JUMPI POP SWAP4 SWAP3 POP POP POP JUMP JUMPDEST PUSH0 DUP1 PUSH19 0x184F03E93FF9F4DAA797ED6E38ED64BF6A1F01 PUSH1 0x40 SHL DUP4 LT PUSH2 0x390C JUMPI PUSH19 0x184F03E93FF9F4DAA797ED6E38ED64BF6A1F01 PUSH1 0x40 SHL DUP4 DIV SWAP3 POP PUSH1 0x40 ADD JUMPDEST PUSH14 0x4EE2D6D415B85ACEF8100000000 DUP4 LT PUSH2 0x3938 JUMPI PUSH14 0x4EE2D6D415B85ACEF8100000000 DUP4 DIV SWAP3 POP PUSH1 0x20 ADD JUMPDEST PUSH7 0x2386F26FC10000 DUP4 LT PUSH2 0x3956 JUMPI PUSH7 0x2386F26FC10000 DUP4 DIV SWAP3 POP PUSH1 0x10 ADD JUMPDEST PUSH4 0x5F5E100 DUP4 LT PUSH2 0x396E JUMPI PUSH4 0x5F5E100 DUP4 DIV SWAP3 POP PUSH1 0x8 ADD JUMPDEST PUSH2 0x2710 DUP4 LT PUSH2 0x3982 JUMPI PUSH2 0x2710 DUP4 DIV SWAP3 POP PUSH1 0x4 ADD JUMPDEST PUSH1 0x64 DUP4 LT PUSH2 0x3994 JUMPI PUSH1 0x64 DUP4 DIV SWAP3 POP PUSH1 0x2 ADD JUMPDEST PUSH1 0xA DUP4 LT PUSH2 0xC54 JUMPI PUSH1 0x1 ADD SWAP3 SWAP2 POP POP JUMP JUMPDEST PUSH0 DUP2 MLOAD DUP1 DUP5 MSTORE DUP1 PUSH1 0x20 DUP5 ADD PUSH1 0x20 DUP7 ADD MCOPY PUSH0 PUSH1 0x20 DUP3 DUP7 ADD ADD MSTORE PUSH1 0x20 PUSH1 0x1F NOT PUSH1 0x1F DUP4 ADD AND DUP6 ADD ADD SWAP2 POP POP SWAP3 SWAP2 POP POP JUMP JUMPDEST PUSH1 0x20 DUP2 MSTORE PUSH0 PUSH2 0x39E5 PUSH1 0x20 DUP4 ADD DUP5 PUSH2 0x39A5 JUMP JUMPDEST SWAP4 SWAP3 POP POP POP JUMP JUMPDEST PUSH4 0x4E487B71 PUSH1 0xE0 SHL PUSH0 MSTORE PUSH1 0x41 PUSH1 0x4 MSTORE PUSH1 0x24 PUSH0 REVERT JUMPDEST PUSH0 DUP3 PUSH1 0x1F DUP4 ADD SLT PUSH2 0x3A0F JUMPI PUSH0 PUSH0 REVERT JUMPDEST DUP2 CALLDATALOAD PUSH1 0x1 PUSH1 0x1 PUSH1 0x40 SHL SUB DUP2 GT ISZERO PUSH2 0x3A28 JUMPI PUSH2 0x3A28 PUSH2 0x39EC JUMP JUMPDEST PUSH1 0x40 MLOAD PUSH1 0x1F DUP3 ADD PUSH1 0x1F NOT SWAP1 DUP2 AND PUSH1 0x3F ADD AND DUP2 ADD PUSH1 0x1 PUSH1 0x1 PUSH1 0x40 SHL SUB DUP2 GT DUP3 DUP3 LT OR ISZERO PUSH2 0x3A56 JUMPI PUSH2 0x3A56 PUSH2 0x39EC JUMP JUMPDEST PUSH1 0x40 MSTORE DUP2 DUP2 MSTORE DUP4 DUP3 ADD PUSH1 0x20 ADD DUP6 LT ISZERO PUSH2 0x3A6D JUMPI PUSH0 PUSH0 REVERT JUMPDEST DUP2 PUSH1 0x20 DUP6 ADD PUSH1 0x20 DUP4 ADD CALLDATACOPY PUSH0 SWAP2 DUP2 ADD PUSH1 0x20 ADD SWAP2 SWAP1 SWAP2 MSTORE SWAP4 SWAP3 POP POP POP JUMP JUMPDEST PUSH0 PUSH0 PUSH0 PUSH1 0x60 DUP5 DUP7 SUB SLT ISZERO PUSH2 0x3A9B JUMPI PUSH0 PUSH0 REVERT JUMPDEST DUP4 CALLDATALOAD PUSH1 0x1 PUSH1 0x1 PUSH1 0x40 SHL SUB DUP2 GT ISZERO PUSH2 0x3AB0 JUMPI PUSH0 PUSH0 REVERT JUMPDEST PUSH2 0x3ABC DUP7 DUP3 DUP8 ADD PUSH2 0x3A00 JUMP JUMPDEST SWAP4 POP POP PUSH1 0x20 DUP5 ADD CALLDATALOAD SWAP2 POP PUSH1 0x40 DUP5 ADD CALLDATALOAD PUSH1 0x1 PUSH1 0x1 PUSH1 0x40 SHL SUB DUP2 GT ISZERO PUSH2 0x3ADE JUMPI PUSH0 PUSH0 REVERT JUMPDEST PUSH2 0x3AEA DUP7 DUP3 DUP8 ADD PUSH2 0x3A00 JUMP JUMPDEST SWAP2 POP POP SWAP3 POP SWAP3 POP SWAP3 JUMP JUMPDEST DUP1 CALLDATALOAD PUSH1 0x1 PUSH1 0x1 PUSH1 0xA0 SHL SUB DUP2 AND DUP2 EQ PUSH2 0x3B0A JUMPI PUSH0 PUSH0 REVERT JUMPDEST SWAP2 SWAP1 POP JUMP JUMPDEST PUSH0 PUSH0 PUSH1 0x40 DUP4 DUP6 SUB SLT ISZERO PUSH2 0x3B20 JUMPI PUSH0 PUSH0 REVERT JUMPDEST PUSH2 0x3B29 DUP4 PUSH2 0x3AF4 JUMP JUMPDEST SWAP5 PUSH1 0x20 SWAP4 SWAP1 SWAP4 ADD CALLDATALOAD SWAP4 POP POP POP JUMP JUMPDEST PUSH0 PUSH1 0x20 DUP3 DUP5 SUB SLT ISZERO PUSH2 0x3B47 JUMPI PUSH0 PUSH0 REVERT JUMPDEST PUSH2 0x39E5 DUP3 PUSH2 0x3AF4 JUMP JUMPDEST PUSH0 PUSH0 DUP4 PUSH1 0x1F DUP5 ADD SLT PUSH2 0x3B60 JUMPI PUSH0 PUSH0 REVERT JUMPDEST POP DUP2 CALLDATALOAD PUSH1 0x1 PUSH1 0x1 PUSH1 0x40 SHL SUB DUP2 GT ISZERO PUSH2 0x3B76 JUMPI PUSH0 PUSH0 REVERT JUMPDEST PUSH1 0x20 DUP4 ADD SWAP2 POP DUP4 PUSH1 0x20 DUP3 PUSH1 0x5 SHL DUP6 ADD ADD GT ISZERO PUSH2 0x3B90 JUMPI PUSH0 PUSH0 REVERT JUMPDEST SWAP3 POP SWAP3 SWAP1 POP JUMP JUMPDEST PUSH0 PUSH0 PUSH0 PUSH0 PUSH1 0x40 DUP6 DUP8 SUB SLT ISZERO PUSH2 0x3BAA JUMPI PUSH0 PUSH0 REVERT JUMPDEST DUP5 CALLDATALOAD PUSH1 0x1 PUSH1 0x1 PUSH1 0x40 SHL SUB DUP2 GT ISZERO PUSH2 0x3BBF JUMPI PUSH0 PUSH0 REVERT JUMPDEST PUSH2 0x3BCB DUP8 DUP3 DUP9 ADD PUSH2 0x3B50 JUMP JUMPDEST SWAP1 SWAP6 POP SWAP4 POP POP PUSH1 0x20 DUP6 ADD CALLDATALOAD PUSH1 0x1 PUSH1 0x1 PUSH1 0x40 SHL SUB DUP2 GT ISZERO PUSH2 0x3BE9 JUMPI PUSH0 PUSH0 REVERT JUMPDEST PUSH2 0x3BF5 DUP8 DUP3 DUP9 ADD PUSH2 0x3B50 JUMP JUMPDEST SWAP6 SWAP9 SWAP5 SWAP8 POP SWAP6 POP POP POP POP JUMP JUMPDEST PUSH0 PUSH0 PUSH0 PUSH1 0x60 DUP5 DUP7 SUB SLT ISZERO PUSH2 0x3C13 JUMPI PUSH0 PUSH0 REVERT JUMPDEST PUSH2 0x3C1C DUP5 PUSH2 0x3AF4 JUMP JUMPDEST SWAP3 POP PUSH2 0x3C2A PUSH1 0x20 DUP6 ADD PUSH2 0x3AF4 JUMP JUMPDEST SWAP3 SWAP6 SWAP3 SWAP5 POP POP POP PUSH1 0x40 SWAP2 SWAP1 SWAP2 ADD CALLDATALOAD SWAP1 JUMP JUMPDEST PUSH0 PUSH0 PUSH0 PUSH0 PUSH0 PUSH0 PUSH1 0x60 DUP8 DUP10 SUB SLT ISZERO PUSH2 0x3C50 JUMPI PUSH0 PUSH0 REVERT JUMPDEST DUP7 CALLDATALOAD PUSH1 0x1 PUSH1 0x1 PUSH1 0x40 SHL SUB DUP2 GT ISZERO PUSH2 0x3C65 JUMPI PUSH0 PUSH0 REVERT JUMPDEST PUSH2 0x3C71 DUP10 DUP3 DUP11 ADD PUSH2 0x3B50 JUMP JUMPDEST SWAP1 SWAP8 POP SWAP6 POP POP PUSH1 0x20 DUP8 ADD CALLDATALOAD PUSH1 0x1 PUSH1 0x1 PUSH1 0x40 SHL SUB DUP2 GT ISZERO PUSH2 0x3C8F JUMPI PUSH0 PUSH0 REVERT JUMPDEST PUSH2 0x3C9B DUP10 DUP3 DUP11 ADD PUSH2 0x3B50 JUMP JUMPDEST SWAP1 SWAP6 POP SWAP4 POP POP PUSH1 0x40 DUP8 ADD CALLDATALOAD PUSH1 0x1 PUSH1 0x1 PUSH1 0x40 SHL SUB DUP2 GT ISZERO PUSH2 0x3CB9 JUMPI PUSH0 PUSH0 REVERT JUMPDEST PUSH2 0x3CC5 DUP10 DUP3 DUP11 ADD PUSH2 0x3B50 JUMP JUMPDEST SWAP8 SWAP11 SWAP7 SWAP10 POP SWAP5 SWAP8 POP SWAP3 SWAP6 SWAP4 SWAP5 SWAP3 POP POP POP JUMP JUMPDEST PUSH0 PUSH0 PUSH0 PUSH0 PUSH0 PUSH1 0xA0 DUP7 DUP9 SUB SLT ISZERO PUSH2 0x3CEB JUMPI PUSH0 PUSH0 REVERT JUMPDEST PUSH2 0x3CF4 DUP7 PUSH2 0x3AF4 JUMP JUMPDEST SWAP5 POP PUSH1 0x20 DUP7 ADD CALLDATALOAD PUSH1 0x1 PUSH1 0x1 PUSH1 0x40 SHL SUB DUP2 GT ISZERO PUSH2 0x3D0E JUMPI PUSH0 PUSH0 REVERT JUMPDEST PUSH2 0x3D1A DUP9 DUP3 DUP10 ADD PUSH2 0x3A00 JUMP JUMPDEST SWAP5 POP POP PUSH1 0x40 DUP7 ADD CALLDATALOAD SWAP3 POP PUSH1 0x60 DUP7 ADD CALLDATALOAD SWAP2 POP PUSH1 0x80 DUP7 ADD CALLDATALOAD PUSH1 0x1 PUSH1 0x1 PUSH1 0x40 SHL SUB DUP2 GT ISZERO PUSH2 0x3D43 JUMPI PUSH0 PUSH0 REVERT JUMPDEST PUSH2 0x3D4F DUP9 DUP3 DUP10 ADD PUSH2 0x3A00 JUMP JUMPDEST SWAP2 POP POP SWAP3 SWAP6 POP SWAP3 SWAP6 SWAP1 SWAP4 POP JUMP JUMPDEST DUP1 ISZERO ISZERO DUP2 EQ PUSH2 0x5EB JUMPI PUSH0 PUSH0 REVERT JUMPDEST PUSH0 PUSH0 PUSH1 0x40 DUP4 DUP6 SUB SLT ISZERO PUSH2 0x3D7A JUMPI PUSH0 PUSH0 REVERT JUMPDEST DUP3 CALLDATALOAD PUSH2 0x3D85 DUP2 PUSH2 0x3D5C JUMP JUMPDEST SWAP2 POP PUSH1 0x20 DUP4 ADD CALLDATALOAD PUSH1 0x1 PUSH1 0x1 PUSH1 0x40 SHL SUB DUP2 GT ISZERO PUSH2 0x3D9F JUMPI PUSH0 PUSH0 REVERT JUMPDEST PUSH2 0x3DAB DUP6 DUP3 DUP7 ADD PUSH2 0x3A00 JUMP JUMPDEST SWAP2 POP POP SWAP3 POP SWAP3 SWAP1 POP JUMP JUMPDEST PUSH0 PUSH0 PUSH1 0x40 DUP4 DUP6 SUB SLT ISZERO PUSH2 0x3DC6 JUMPI PUSH0 PUSH0 REVERT JUMPDEST DUP3 CALLDATALOAD SWAP2 POP PUSH1 0x20 DUP4 ADD CALLDATALOAD PUSH1 0x1 PUSH1 0x1 PUSH1 0x40 SHL SUB DUP2 GT ISZERO PUSH2 0x3D9F JUMPI PUSH0 PUSH0 REVERT JUMPDEST PUSH0 PUSH0 PUSH0 PUSH1 0x60 DUP5 DUP7 SUB SLT ISZERO PUSH2 0x3DF4 JUMPI PUSH0 PUSH0 REVERT JUMPDEST PUSH2 0x3DFD DUP5 PUSH2 0x3AF4 JUMP JUMPDEST SWAP3 POP PUSH2 0x3E0B PUSH1 0x20 DUP6 ADD PUSH2 0x3AF4 JUMP JUMPDEST SWAP2 POP PUSH2 0x3E19 PUSH1 0x40 DUP6 ADD PUSH2 0x3AF4 JUMP JUMPDEST SWAP1 POP SWAP3 POP SWAP3 POP SWAP3 JUMP JUMPDEST PUSH0 PUSH0 PUSH1 0x20 DUP4 DUP6 SUB SLT ISZERO PUSH2 0x3E33 JUMPI PUSH0 PUSH0 REVERT JUMPDEST DUP3 CALLDATALOAD PUSH1 0x1 PUSH1 0x1 PUSH1 0x40 SHL SUB DUP2 GT ISZERO PUSH2 0x3E48 JUMPI PUSH0 PUSH0 REVERT JUMPDEST DUP4 ADD PUSH1 0x1F DUP2 ADD DUP6 SGT PUSH2 0x3E58 JUMPI PUSH0 PUSH0 REVERT JUMPDEST DUP1 CALLDATALOAD PUSH1 0x1 PUSH1 0x1 PUSH1 0x40 SHL SUB DUP2 GT ISZERO PUSH2 0x3E6D JUMPI PUSH0 PUSH0 REVERT JUMPDEST DUP6 PUSH1 0x20 DUP3 DUP5 ADD ADD GT ISZERO PUSH2 0x3E7E JUMPI PUSH0 PUSH0 REVERT JUMPDEST PUSH1 0x20 SWAP2 SWAP1 SWAP2 ADD SWAP6 SWAP1 SWAP5 POP SWAP3 POP POP POP JUMP JUMPDEST PUSH4 0x4E487B71 PUSH1 0xE0 SHL PUSH0 MSTORE PUSH1 0x21 PUSH1 0x4 MSTORE PUSH1 0x24 PUSH0 REVERT JUMPDEST PUSH1 0x20 DUP2 ADD PUSH1 0x9 DUP4 LT PUSH2 0x3EC2 JUMPI PUSH4 0x4E487B71 PUSH1 0xE0 SHL PUSH0 MSTORE PUSH1 0x21 PUSH1 0x4 MSTORE PUSH1 0x24 PUSH0 REVERT JUMPDEST SWAP2 SWAP1 MSTORE SWAP1 JUMP JUMPDEST PUSH0 PUSH0 PUSH1 0x40 DUP4 DUP6 SUB SLT ISZERO PUSH2 0x3ED9 JUMPI PUSH0 PUSH0 REVERT JUMPDEST PUSH2 0x3EE2 DUP4 PUSH2 0x3AF4 JUMP JUMPDEST SWAP2 POP PUSH1 0x20 DUP4 ADD CALLDATALOAD PUSH2 0x3EF2 DUP2 PUSH2 0x3D5C JUMP JUMPDEST DUP1 SWAP2 POP POP SWAP3 POP SWAP3 SWAP1 POP JUMP JUMPDEST PUSH1 0x20 DUP1 DUP3 MSTORE DUP3 MLOAD DUP3 DUP3 ADD DUP2 SWAP1 MSTORE PUSH0 SWAP2 DUP5 ADD SWAP1 PUSH1 0x40 DUP5 ADD SWAP1 DUP4 JUMPDEST DUP2 DUP2 LT ISZERO PUSH2 0x3F79 JUMPI DUP4 MLOAD DUP1 MLOAD PUSH1 0x1 PUSH1 0x1 PUSH1 0xA0 SHL SUB SWAP1 DUP2 AND DUP6 MSTORE PUSH1 0x20 DUP1 DUP4 ADD MLOAD SWAP1 SWAP2 AND DUP2 DUP7 ADD MSTORE PUSH1 0x40 DUP1 DUP4 ADD MLOAD SWAP1 DUP7 ADD MSTORE PUSH1 0x60 DUP1 DUP4 ADD MLOAD SWAP1 DUP7 ADD MSTORE PUSH1 0x80 DUP1 DUP4 ADD MLOAD SWAP1 DUP7 ADD MSTORE PUSH1 0xA0 SWAP2 DUP3 ADD MLOAD SWAP2 DUP6 ADD SWAP2 SWAP1 SWAP2 MSTORE SWAP1 SWAP4 ADD SWAP3 PUSH1 0xC0 SWAP1 SWAP3 ADD SWAP2 PUSH1 0x1 ADD PUSH2 0x3F16 JUMP JUMPDEST POP SWAP1 SWAP6 SWAP5 POP POP POP POP POP JUMP JUMPDEST PUSH0 PUSH0 PUSH1 0x40 DUP4 DUP6 SUB SLT ISZERO PUSH2 0x3F95 JUMPI PUSH0 PUSH0 REVERT JUMPDEST PUSH2 0x3F9E DUP4 PUSH2 0x3AF4 JUMP JUMPDEST SWAP2 POP PUSH2 0x3FAC PUSH1 0x20 DUP5 ADD PUSH2 0x3AF4 JUMP JUMPDEST SWAP1 POP SWAP3 POP SWAP3 SWAP1 POP JUMP JUMPDEST PUSH1 0x1 PUSH1 0x1 PUSH1 0xA0 SHL SUB SWAP3 SWAP1 SWAP3 AND DUP3 MSTORE PUSH1 0x20 DUP3 ADD MSTORE PUSH1 0x40 ADD SWAP1 JUMP JUMPDEST PUSH1 0x1 DUP2 DUP2 SHR SWAP1 DUP3 AND DUP1 PUSH2 0x3FE2 JUMPI PUSH1 0x7F DUP3 AND SWAP2 POP JUMPDEST PUSH1 0x20 DUP3 LT DUP2 SUB PUSH2 0x4000 JUMPI PUSH4 0x4E487B71 PUSH1 0xE0 SHL PUSH0 MSTORE PUSH1 0x22 PUSH1 0x4 MSTORE PUSH1 0x24 PUSH0 REVERT JUMPDEST POP SWAP2 SWAP1 POP JUMP JUMPDEST PUSH1 0x20 DUP1 DUP3 MSTORE PUSH1 0x1B SWAP1 DUP3 ADD MSTORE PUSH32 0x596F7520617265206E6F74206120636F756E74657270617274792E0000000000 PUSH1 0x40 DUP3 ADD MSTORE PUSH1 0x60 ADD SWAP1 JUMP JUMPDEST PUSH1 0x20 DUP1 DUP3 MSTORE PUSH1 0x1D SWAP1 DUP3 ADD MSTORE PUSH32 0x5472616465207374617465206973206E6F742027536574746C6564272E000000 PUSH1 0x40 DUP3 ADD MSTORE PUSH1 0x60 ADD SWAP1 JUMP JUMPDEST PUSH1 0x20 DUP1 DUP3 MSTORE PUSH1 0x2A SWAP1 DUP3 ADD MSTORE PUSH32 0x49525320636F6E747261637420686173207265616368656420746865204D6174 PUSH1 0x40 DUP3 ADD MSTORE PUSH10 0x75726974792044617465 PUSH1 0xB0 SHL PUSH1 0x60 DUP3 ADD MSTORE PUSH1 0x80 ADD SWAP1 JUMP JUMPDEST PUSH1 0x80 DUP2 MSTORE PUSH0 PUSH2 0x40D0 PUSH1 0x80 DUP4 ADD DUP7 PUSH2 0x39A5 JUMP JUMPDEST DUP3 DUP2 SUB DUP1 PUSH1 0x20 DUP6 ADD MSTORE PUSH1 0x9 DUP3 MSTORE PUSH9 0x7465726D696E617465 PUSH1 0xB8 SHL PUSH1 0x20 DUP4 ADD MSTORE DUP6 PUSH1 0x40 DUP6 ADD MSTORE PUSH1 0x40 DUP2 ADD PUSH1 0x60 DUP6 ADD MSTORE POP PUSH2 0x410C PUSH1 0x40 DUP3 ADD DUP6 PUSH2 0x39A5 JUMP JUMPDEST SWAP7 SWAP6 POP POP POP POP POP POP JUMP JUMPDEST PUSH4 0x4E487B71 PUSH1 0xE0 SHL PUSH0 MSTORE PUSH1 0x11 PUSH1 0x4 MSTORE PUSH1 0x24 PUSH0 REVERT JUMPDEST DUP1 DUP3 ADD DUP1 DUP3 GT ISZERO PUSH2 0xC54 JUMPI PUSH2 0xC54 PUSH2 0x4116 JUMP JUMPDEST PUSH0 DUP2 SLOAD PUSH2 0x4149 DUP2 PUSH2 0x3FCE JUMP JUMPDEST DUP1 DUP6 MSTORE PUSH1 0x1 DUP3 AND DUP1 ISZERO PUSH2 0x4163 JUMPI PUSH1 0x1 DUP2 EQ PUSH2 0x417F JUMPI PUSH2 0x41B3 JUMP JUMPDEST PUSH1 0xFF NOT DUP4 AND PUSH1 0x20 DUP8 ADD MSTORE PUSH1 0x20 DUP3 ISZERO ISZERO PUSH1 0x5 SHL DUP8 ADD ADD SWAP4 POP PUSH2 0x41B3 JUMP JUMPDEST DUP5 PUSH0 MSTORE PUSH1 0x20 PUSH0 KECCAK256 PUSH0 JUMPDEST DUP4 DUP2 LT ISZERO PUSH2 0x41AA JUMPI DUP2 SLOAD PUSH1 0x20 DUP3 DUP11 ADD ADD MSTORE PUSH1 0x1 DUP3 ADD SWAP2 POP PUSH1 0x20 DUP2 ADD SWAP1 POP PUSH2 0x4188 JUMP JUMPDEST DUP8 ADD PUSH1 0x20 ADD SWAP5 POP POP JUMPDEST POP POP POP SWAP3 SWAP2 POP POP JUMP JUMPDEST PUSH1 0x1 PUSH1 0x1 PUSH1 0xA0 SHL SUB DUP6 AND DUP2 MSTORE PUSH1 0x80 PUSH1 0x20 DUP3 ADD DUP2 SWAP1 MSTORE PUSH0 SWAP1 PUSH2 0x41DF SWAP1 DUP4 ADD DUP7 PUSH2 0x413D JUMP JUMPDEST DUP5 PUSH1 0x40 DUP5 ADD MSTORE DUP3 DUP2 SUB PUSH1 0x60 DUP5 ADD MSTORE PUSH2 0x41F7 DUP2 DUP6 PUSH2 0x39A5 JUMP JUMPDEST SWAP8 SWAP7 POP POP POP POP POP POP POP JUMP JUMPDEST PUSH1 0x60 DUP2 MSTORE PUSH0 PUSH2 0x4214 PUSH1 0x60 DUP4 ADD DUP7 PUSH2 0x413D JUMP JUMPDEST PUSH1 0x1 PUSH1 0x1 PUSH1 0xA0 SHL SUB SWAP5 DUP6 AND PUSH1 0x20 DUP5 ADD MSTORE SWAP3 SWAP1 SWAP4 AND PUSH1 0x40 SWAP1 SWAP2 ADD MSTORE SWAP3 SWAP2 POP POP JUMP JUMPDEST PUSH1 0x20 DUP1 DUP3 MSTORE PUSH1 0x19 SWAP1 DUP3 ADD MSTORE PUSH32 0x5472616465206973206E6F74206D617475726564207965742E00000000000000 PUSH1 0x40 DUP3 ADD MSTORE PUSH1 0x60 ADD SWAP1 JUMP JUMPDEST PUSH1 0x20 DUP1 DUP3 MSTORE PUSH1 0x34 SWAP1 DUP3 ADD MSTORE PUSH32 0x4F6E6C792074686520736574746C656D656E7420666F72776172646572206361 PUSH1 0x40 DUP3 ADD MSTORE PUSH20 0x371031B0B636103A3434B990333AB731BA34B7B7 PUSH1 0x61 SHL PUSH1 0x60 DUP3 ADD MSTORE PUSH1 0x80 ADD SWAP1 JUMP JUMPDEST DUP2 DUP2 SUB DUP2 DUP2 GT ISZERO PUSH2 0xC54 JUMPI PUSH2 0xC54 PUSH2 0x4116 JUMP JUMPDEST PUSH1 0x1 DUP2 JUMPDEST PUSH1 0x1 DUP5 GT ISZERO PUSH2 0x430D JUMPI DUP1 DUP6 DIV DUP2 GT ISZERO PUSH2 0x42F1 JUMPI PUSH2 0x42F1 PUSH2 0x4116 JUMP JUMPDEST PUSH1 0x1 DUP5 AND ISZERO PUSH2 0x42FF JUMPI SWAP1 DUP2 MUL SWAP1 JUMPDEST PUSH1 0x1 SWAP4 SWAP1 SWAP4 SHR SWAP3 DUP1 MUL PUSH2 0x42D6 JUMP JUMPDEST SWAP4 POP SWAP4 SWAP2 POP POP JUMP JUMPDEST PUSH0 DUP3 PUSH2 0x4323 JUMPI POP PUSH1 0x1 PUSH2 0xC54 JUMP JUMPDEST DUP2 PUSH2 0x432F JUMPI POP PUSH0 PUSH2 0xC54 JUMP JUMPDEST DUP2 PUSH1 0x1 DUP2 EQ PUSH2 0x4345 JUMPI PUSH1 0x2 DUP2 EQ PUSH2 0x434F JUMPI PUSH2 0x436B JUMP JUMPDEST PUSH1 0x1 SWAP2 POP POP PUSH2 0xC54 JUMP JUMPDEST PUSH1 0xFF DUP5 GT ISZERO PUSH2 0x4360 JUMPI PUSH2 0x4360 PUSH2 0x4116 JUMP JUMPDEST POP POP PUSH1 0x1 DUP3 SHL PUSH2 0xC54 JUMP JUMPDEST POP PUSH1 0x20 DUP4 LT PUSH2 0x133 DUP4 LT AND PUSH1 0x4E DUP5 LT PUSH1 0xB DUP5 LT AND OR ISZERO PUSH2 0x438E JUMPI POP DUP2 DUP2 EXP PUSH2 0xC54 JUMP JUMPDEST PUSH2 0x439A PUSH0 NOT DUP5 DUP5 PUSH2 0x42D2 JUMP JUMPDEST DUP1 PUSH0 NOT DIV DUP3 GT ISZERO PUSH2 0x43AD JUMPI PUSH2 0x43AD PUSH2 0x4116 JUMP JUMPDEST MUL SWAP4 SWAP3 POP POP POP JUMP JUMPDEST PUSH0 PUSH2 0x39E5 PUSH1 0xFF DUP5 AND DUP4 PUSH2 0x4315 JUMP JUMPDEST PUSH1 0xC0 DUP2 MSTORE PUSH0 PUSH2 0x43D5 PUSH1 0xC0 DUP4 ADD DUP10 PUSH2 0x413D JUMP JUMPDEST PUSH1 0x1 PUSH1 0x1 PUSH1 0xA0 SHL SUB SWAP8 DUP9 AND PUSH1 0x20 DUP5 ADD MSTORE SWAP6 SWAP1 SWAP7 AND PUSH1 0x40 DUP3 ADD MSTORE PUSH1 0x60 DUP2 ADD SWAP4 SWAP1 SWAP4 MSTORE PUSH1 0x80 DUP4 ADD SWAP2 SWAP1 SWAP2 MSTORE PUSH1 0xA0 SWAP1 SWAP2 ADD MSTORE SWAP3 SWAP2 POP POP JUMP JUMPDEST PUSH0 PUSH1 0x20 DUP3 DUP5 SUB SLT ISZERO PUSH2 0x441A JUMPI PUSH0 PUSH0 REVERT JUMPDEST DUP2 MLOAD PUSH2 0x39E5 DUP2 PUSH2 0x3D5C JUMP JUMPDEST PUSH1 0x60 DUP2 MSTORE PUSH0 PUSH2 0x4437 PUSH1 0x60 DUP4 ADD DUP7 PUSH2 0x413D JUMP JUMPDEST PUSH1 0x1 PUSH1 0x1 PUSH1 0xA0 SHL SUB SWAP5 SWAP1 SWAP5 AND PUSH1 0x20 DUP4 ADD MSTORE POP PUSH1 0x40 ADD MSTORE SWAP2 SWAP1 POP JUMP JUMPDEST PUSH0 PUSH1 0x20 DUP3 DUP5 SUB SLT ISZERO PUSH2 0x4462 JUMPI PUSH0 PUSH0 REVERT JUMPDEST POP MLOAD SWAP2 SWAP1 POP JUMP JUMPDEST DUP1 DUP3 ADD DUP3 DUP2 SLT PUSH0 DUP4 SLT DUP1 ISZERO DUP3 AND DUP3 ISZERO DUP3 AND OR ISZERO PUSH2 0x4488 JUMPI PUSH2 0x4488 PUSH2 0x4116 JUMP JUMPDEST POP POP SWAP3 SWAP2 POP POP JUMP JUMPDEST PUSH0 PUSH1 0x20 DUP3 DUP5 SUB SLT ISZERO PUSH2 0x44A0 JUMPI PUSH0 PUSH0 REVERT JUMPDEST DUP2 MLOAD PUSH1 0xFF DUP2 AND DUP2 EQ PUSH2 0x39E5 JUMPI PUSH0 PUSH0 REVERT JUMPDEST PUSH0 PUSH2 0x39E5 DUP4 DUP4 PUSH2 0x4315 JUMP JUMPDEST DUP1 DUP3 MUL DUP2 ISZERO DUP3 DUP3 DIV DUP5 EQ OR PUSH2 0xC54 JUMPI PUSH2 0xC54 PUSH2 0x4116 JUMP JUMPDEST PUSH0 DUP3 PUSH2 0x44EC JUMPI PUSH4 0x4E487B71 PUSH1 0xE0 SHL PUSH0 MSTORE PUSH1 0x12 PUSH1 0x4 MSTORE PUSH1 0x24 PUSH0 REVERT JUMPDEST POP DIV SWAP1 JUMP JUMPDEST PUSH1 0x1 PUSH1 0x1 PUSH1 0xA0 SHL SUB DUP8 DUP2 AND DUP3 MSTORE DUP7 AND PUSH1 0x20 DUP3 ADD MSTORE PUSH1 0xC0 PUSH1 0x40 DUP3 ADD DUP2 SWAP1 MSTORE PUSH0 SWAP1 PUSH2 0x451C SWAP1 DUP4 ADD DUP8 PUSH2 0x39A5 JUMP JUMPDEST DUP6 PUSH1 0x60 DUP5 ADD MSTORE DUP5 PUSH1 0x80 DUP5 ADD MSTORE DUP3 DUP2 SUB PUSH1 0xA0 DUP5 ADD MSTORE PUSH2 0x453A DUP2 DUP6 PUSH2 0x39A5 JUMP JUMPDEST SWAP10 SWAP9 POP POP POP POP POP POP POP POP POP JUMP JUMPDEST PUSH1 0x1 PUSH1 0x1 PUSH1 0xA0 SHL SUB DUP4 AND DUP2 MSTORE PUSH1 0x40 PUSH1 0x20 DUP3 ADD DUP2 SWAP1 MSTORE PUSH0 SWAP1 PUSH2 0x456A SWAP1 DUP4 ADD DUP5 PUSH2 0x413D JUMP JUMPDEST SWAP5 SWAP4 POP POP POP POP JUMP JUMPDEST PUSH1 0x1 DUP1 PUSH1 0xA0 SHL SUB DUP5 AND DUP2 MSTORE DUP3 PUSH1 0x20 DUP3 ADD MSTORE PUSH1 0x60 PUSH1 0x40 DUP3 ADD MSTORE PUSH0 PUSH2 0x4598 PUSH1 0x60 DUP4 ADD DUP5 PUSH2 0x39A5 JUMP JUMPDEST SWAP6 SWAP5 POP POP POP POP POP JUMP JUMPDEST PUSH1 0x1 PUSH1 0x1 PUSH1 0xA0 SHL SUB DUP5 AND DUP2 MSTORE PUSH1 0x60 PUSH1 0x20 DUP3 ADD DUP2 SWAP1 MSTORE PUSH0 SWAP1 PUSH2 0x45C4 SWAP1 DUP4 ADD DUP6 PUSH2 0x413D JUMP JUMPDEST DUP3 DUP2 SUB PUSH1 0x40 DUP5 ADD MSTORE PUSH2 0x410C DUP2 DUP6 PUSH2 0x39A5 JUMP JUMPDEST PUSH0 PUSH1 0x1 PUSH1 0xFF SHL DUP3 ADD PUSH2 0x45EA JUMPI PUSH2 0x45EA PUSH2 0x4116 JUMP JUMPDEST POP PUSH0 SUB SWAP1 JUMP JUMPDEST PUSH1 0x20 DUP1 DUP3 MSTORE PUSH1 0x3B SWAP1 DUP3 ADD MSTORE PUSH32 0x4661696C656420746F207472616E736665722074686520696E697469616C206D PUSH1 0x40 DUP3 ADD MSTORE PUSH32 0x617267696E202B20746865207465726D696E6174696F6E206665650000000000 PUSH1 0x60 DUP3 ADD MSTORE PUSH1 0x80 ADD SWAP1 JUMP JUMPDEST PUSH1 0x80 DUP2 MSTORE PUSH0 PUSH2 0x465F PUSH1 0x80 DUP4 ADD DUP8 PUSH2 0x413D JUMP JUMPDEST PUSH1 0x1 PUSH1 0x1 PUSH1 0xA0 SHL SUB SWAP6 SWAP1 SWAP6 AND PUSH1 0x20 DUP4 ADD MSTORE POP PUSH1 0x40 DUP2 ADD SWAP3 SWAP1 SWAP3 MSTORE PUSH1 0x60 SWAP1 SWAP2 ADD MSTORE SWAP2 SWAP1 POP JUMP JUMPDEST PUSH0 PUSH0 DUP4 SLOAD PUSH2 0x4691 DUP2 PUSH2 0x3FCE JUMP JUMPDEST PUSH1 0x1 DUP3 AND DUP1 ISZERO PUSH2 0x46A8 JUMPI PUSH1 0x1 DUP2 EQ PUSH2 0x46BD JUMPI PUSH2 0x46EA JUMP JUMPDEST PUSH1 0xFF NOT DUP4 AND DUP7 MSTORE DUP2 ISZERO ISZERO DUP3 MUL DUP7 ADD SWAP4 POP PUSH2 0x46EA JUMP JUMPDEST DUP7 PUSH0 MSTORE PUSH1 0x20 PUSH0 KECCAK256 PUSH0 JUMPDEST DUP4 DUP2 LT ISZERO PUSH2 0x46E2 JUMPI DUP2 SLOAD DUP9 DUP3 ADD MSTORE PUSH1 0x1 SWAP1 SWAP2 ADD SWAP1 PUSH1 0x20 ADD PUSH2 0x46C6 JUMP JUMPDEST POP POP DUP2 DUP7 ADD SWAP4 POP JUMPDEST POP SWAP2 SWAP6 SWAP5 POP POP POP POP POP JUMP JUMPDEST PUSH0 DUP3 MLOAD DUP1 PUSH1 0x20 DUP6 ADD DUP5 MCOPY PUSH0 SWAP3 ADD SWAP2 DUP3 MSTORE POP SWAP2 SWAP1 POP JUMP JUMPDEST PUSH1 0x1F DUP3 GT ISZERO PUSH2 0x2A67 JUMPI DUP1 PUSH0 MSTORE PUSH1 0x20 PUSH0 KECCAK256 PUSH1 0x1F DUP5 ADD PUSH1 0x5 SHR DUP2 ADD PUSH1 0x20 DUP6 LT ISZERO PUSH2 0x4730 JUMPI POP DUP1 JUMPDEST PUSH1 0x1F DUP5 ADD PUSH1 0x5 SHR DUP3 ADD SWAP2 POP JUMPDEST DUP2 DUP2 LT ISZERO PUSH2 0x474F JUMPI PUSH0 DUP2 SSTORE PUSH1 0x1 ADD PUSH2 0x473C JUMP JUMPDEST POP POP POP POP POP JUMP JUMPDEST DUP2 MLOAD PUSH1 0x1 PUSH1 0x1 PUSH1 0x40 SHL SUB DUP2 GT ISZERO PUSH2 0x476F JUMPI PUSH2 0x476F PUSH2 0x39EC JUMP JUMPDEST PUSH2 0x4783 DUP2 PUSH2 0x477D DUP5 SLOAD PUSH2 0x3FCE JUMP JUMPDEST DUP5 PUSH2 0x470B JUMP JUMPDEST PUSH1 0x20 PUSH1 0x1F DUP3 GT PUSH1 0x1 DUP2 EQ PUSH2 0x47B5 JUMPI PUSH0 DUP4 ISZERO PUSH2 0x479E JUMPI POP DUP5 DUP3 ADD MLOAD JUMPDEST PUSH0 NOT PUSH1 0x3 DUP6 SWAP1 SHL SHR NOT AND PUSH1 0x1 DUP5 SWAP1 SHL OR DUP5 SSTORE PUSH2 0x474F JUMP JUMPDEST PUSH0 DUP5 DUP2 MSTORE PUSH1 0x20 DUP2 KECCAK256 PUSH1 0x1F NOT DUP6 AND SWAP2 JUMPDEST DUP3 DUP2 LT ISZERO PUSH2 0x47E4 JUMPI DUP8 DUP6 ADD MLOAD DUP3 SSTORE PUSH1 0x20 SWAP5 DUP6 ADD SWAP5 PUSH1 0x1 SWAP1 SWAP3 ADD SWAP2 ADD PUSH2 0x47C4 JUMP JUMPDEST POP DUP5 DUP3 LT ISZERO PUSH2 0x4801 JUMPI DUP7 DUP5 ADD MLOAD PUSH0 NOT PUSH1 0x3 DUP8 SWAP1 SHL PUSH1 0xF8 AND SHR NOT AND DUP2 SSTORE JUMPDEST POP POP POP POP PUSH1 0x1 SWAP1 DUP2 SHL ADD SWAP1 SSTORE POP JUMP JUMPDEST PUSH1 0x1 PUSH1 0x1 PUSH1 0xA0 SHL SUB DUP9 DUP2 AND DUP3 MSTORE DUP8 AND PUSH1 0x20 DUP3 ADD MSTORE PUSH1 0xE0 PUSH1 0x40 DUP3 ADD DUP2 SWAP1 MSTORE PUSH0 SWAP1 PUSH2 0x483B SWAP1 DUP4 ADD DUP9 PUSH2 0x413D JUMP JUMPDEST DUP3 DUP2 SUB PUSH1 0x60 DUP5 ADD MSTORE PUSH2 0x484D DUP2 DUP9 PUSH2 0x413D JUMP JUMPDEST SWAP1 POP DUP6 PUSH1 0x80 DUP5 ADD MSTORE DUP5 PUSH1 0xA0 DUP5 ADD MSTORE DUP3 DUP2 SUB PUSH1 0xC0 DUP5 ADD MSTORE PUSH2 0x486D DUP2 DUP6 PUSH2 0x39A5 JUMP JUMPDEST SWAP11 SWAP10 POP POP POP POP POP POP POP POP POP POP JUMP INVALID LOG3 0xCB SHR ORIGIN GT 0xCA DATALOADN 0x8473 0xB2 MLOAD 0xB6 ADDMOD INVALID PUSH6 0x3906C7671EA4 SWAP16 PUSH9 0x2D74DD7E75281895CF LOG2 PUSH5 0x6970667358 0x22 SLT KECCAK256 0xDA EQ DUPN 0xC4 0x28 CALLCODE DUP7 0x2A SWAP6 ADD 0xC8 PUSH5 0x65FA820701 0x24 RJUMP 0x16C3 CALLDATALOAD SIGNEXTEND ADDRESS 0x25 SELFBALANCE 0xBF 0x27 PUSH4 0x8922DC64 PUSH20 0x6F6C634300081E00330000000000000000000000 "
		},
		"gasEstimates": {
			"creation": {
				"codeDepositCost": "3728200",
				"executionCost": "infinite",
				"totalCost": "infinite"
			},
			"external": {
				"CheckMarginCall()": "infinite",
				"afterTransfer(bool,string)": "infinite",
				"allowance(address,address)": "infinite",
				"approve(address,uint256)": "26852",
				"balanceOf(address)": "2601",
				"batchBurn(address[],uint256[])": "infinite",
				"batchForcedTransfer(address[],address[],uint256[])": "infinite",
				"batchFreezePartialTokens(address[],uint256[])": "infinite",
				"batchMint(address[],uint256[])": "infinite",
				"batchSetAddressFrozen(address[],bool[])": "infinite",
				"batchTransfer(address[],uint256[])": "infinite",
				"batchUnfreezePartialTokens(address[],uint256[])": "infinite",
				"benchmark()": "infinite",
				"burn(address,uint256)": "75121",
				"cancelTrade(address,string,int256,int256,string)": "infinite",
				"cancelTradeTermination(string,int256,string)": "infinite",
				"collateralAdjustementForwarderAddress()": "2470",
				"compliance()": "279",
				"confirmTrade(address,string,int256,int256,string)": "infinite",
				"confirmTradeTermination(string,int256,string)": "infinite",
				"decimals()": "244",
				"decreaseAllowance(address,uint256)": "29149",
				"fixedRatePayer()": "2396",
				"floatingRatePayer()": "2420",
				"forcedTransfer(address,address,uint256)": "infinite",
				"freezePartialTokens(address,uint256)": "403",
				"getConfirmationTime()": "2380",
				"getContractLINKBalance()": "infinite",
				"getFrozenTokens(address)": "487",
				"getIRSReceipts()": "infinite",
				"getInceptingTime()": "2359",
				"getInitialMargin()": "2448",
				"getInitialTerminationFee()": "2446",
				"getMarginCall(address)": "2626",
				"getMarginRequirement(address)": "4937",
				"getSettlementInfo()": "4572",
				"getTradeHash()": "infinite",
				"getTradeID()": "infinite",
				"getTradeState()": "2444",
				"identityRegistry()": "324",
				"inceptTrade(address,string,int256,int256,string)": "infinite",
				"increaseAllowance(address,uint256)": "infinite",
				"initiateSettlement()": "305",
				"isFrozen(address)": "513",
				"maturityDate()": "2358",
				"maxSupply()": "2380",
				"mint(address,uint256)": "infinite",
				"name()": "infinite",
				"notionalAmount()": "2447",
				"onchainID()": "388",
				"pause()": "274",
				"paused()": "330",
				"performSettlement(int256,string)": "infinite",
				"postCollateral()": "infinite",
				"recoveryAddress(address,address,address)": "infinite",
				"requestTradeTermination(string,int256,string)": "infinite",
				"setAddressFrozen(address,bool)": "447",
				"setCollateralAdjustementForwarderAddress(address)": "infinite",
				"setCompliance(address)": "444",
				"setIdentityRegistry(address)": "423",
				"setName(string)": "552",
				"setOnchainID(address)": "424",
				"setSymbol(string)": "486",
				"setsettlementForwarderAddress(address)": "infinite",
				"settle()": "infinite",
				"settlementCurrency()": "2464",
				"settlementForwarderAddress()": "2494",
				"spread()": "2403",
				"startingDate()": "2447",
				"swap()": "308",
				"swapRate()": "2403",
				"symbol()": "infinite",
				"terminateSwap()": "infinite",
				"totalSupply()": "2448",
				"tradeID()": "infinite",
				"transfer(address,uint256)": "81866",
				"transferFrom(address,address,uint256)": "infinite",
				"unfreezePartialTokens(address,uint256)": "403",
				"unpause()": "297",
				"version()": "infinite",
				"withdraw()": "infinite",
				"withdrawInitialMarginAndTerminationFees()": "infinite",
				"withdrawLink()": "infinite",
				"withdrawTokens()": "infinite"
			},
			"internal": {
				"_updateIRSReceipt(uint256)": "infinite",
				"_updateMargin(address,address)": "infinite",
				"otherParty()": "4280",
				"otherParty(address)": "infinite"
			}
		},
		"methodIdentifiers": {
			"CheckMarginCall()": "3fe0a83d",
			"afterTransfer(bool,string)": "6b7e8648",
			"allowance(address,address)": "dd62ed3e",
			"approve(address,uint256)": "095ea7b3",
			"balanceOf(address)": "70a08231",
			"batchBurn(address[],uint256[])": "4a6cc677",
			"batchForcedTransfer(address[],address[],uint256[])": "42a47abc",
			"batchFreezePartialTokens(address[],uint256[])": "fc7e5fa8",
			"batchMint(address[],uint256[])": "68573107",
			"batchSetAddressFrozen(address[],bool[])": "1a7af379",
			"batchTransfer(address[],uint256[])": "88d695b2",
			"batchUnfreezePartialTokens(address[],uint256[])": "4710362d",
			"benchmark()": "8903c5a2",
			"burn(address,uint256)": "9dc29fac",
			"cancelTrade(address,string,int256,int256,string)": "5ccc3114",
			"cancelTradeTermination(string,int256,string)": "838a3b92",
			"collateralAdjustementForwarderAddress()": "a2552571",
			"compliance()": "6290865d",
			"confirmTrade(address,string,int256,int256,string)": "858f0e93",
			"confirmTradeTermination(string,int256,string)": "08f7490c",
			"decimals()": "313ce567",
			"decreaseAllowance(address,uint256)": "a457c2d7",
			"fixedRatePayer()": "e6746eb7",
			"floatingRatePayer()": "92b002fa",
			"forcedTransfer(address,address,uint256)": "9fc1d0e7",
			"freezePartialTokens(address,uint256)": "125c4a33",
			"getConfirmationTime()": "7514b7ed",
			"getContractLINKBalance()": "94789faf",
			"getFrozenTokens(address)": "158b1a57",
			"getIRSReceipts()": "c6e91317",
			"getInceptingTime()": "abad3e74",
			"getInitialMargin()": "27cbf376",
			"getInitialTerminationFee()": "aad5c2af",
			"getMarginCall(address)": "a623fe86",
			"getMarginRequirement(address)": "95076801",
			"getSettlementInfo()": "e805156e",
			"getTradeHash()": "a979fb89",
			"getTradeID()": "e9f748d4",
			"getTradeState()": "be43bef5",
			"identityRegistry()": "134e18f4",
			"inceptTrade(address,string,int256,int256,string)": "ec11c4e9",
			"increaseAllowance(address,uint256)": "39509351",
			"initiateSettlement()": "c78b432e",
			"isFrozen(address)": "e5839836",
			"maturityDate()": "d59624b4",
			"maxSupply()": "d5abeb01",
			"mint(address,uint256)": "40c10f19",
			"name()": "06fdde03",
			"notionalAmount()": "a26c1aa2",
			"onchainID()": "aba63705",
			"pause()": "8456cb59",
			"paused()": "5c975abb",
			"performSettlement(int256,string)": "6ba63956",
			"postCollateral()": "21c3cbc2",
			"recoveryAddress(address,address,address)": "9285948a",
			"requestTradeTermination(string,int256,string)": "d19e5133",
			"setAddressFrozen(address,bool)": "c69c09cf",
			"setCollateralAdjustementForwarderAddress(address)": "8d71833e",
			"setCompliance(address)": "f8981789",
			"setIdentityRegistry(address)": "cbf3f861",
			"setName(string)": "c47f0027",
			"setOnchainID(address)": "3d1ddc5b",
			"setSymbol(string)": "b84c8246",
			"setsettlementForwarderAddress(address)": "0b6f20cc",
			"settle()": "11da60b4",
			"settlementCurrency()": "bead103e",
			"settlementForwarderAddress()": "0d084eb8",
			"spread()": "5c25c76c",
			"startingDate()": "3e3ff7b6",
			"swap()": "8119c065",
			"swapRate()": "698518e5",
			"symbol()": "95d89b41",
			"terminateSwap()": "442447ca",
			"totalSupply()": "18160ddd",
			"tradeID()": "dca0baad",
			"transfer(address,uint256)": "a9059cbb",
			"transferFrom(address,address,uint256)": "23b872dd",
			"unfreezePartialTokens(address,uint256)": "1fe56f7d",
			"unpause()": "3f4ba83a",
			"version()": "54fd4d50",
			"withdraw()": "3ccfd60b",
			"withdrawInitialMarginAndTerminationFees()": "9aacc0fb",
			"withdrawLink()": "8dc654a2",
			"withdrawTokens()": "8d8f2adb"
		}
	},
	"abi": [
		{
			"inputs": [
				{
					"internalType": "string",
					"name": "_tradeID",
					"type": "string"
				},
				{
					"internalType": "string",
					"name": "_irsTokenName",
					"type": "string"
				},
				{
					"internalType": "string",
					"name": "_irsTokenSymbol",
					"type": "string"
				},
				{
					"components": [
						{
							"internalType": "address",
							"name": "fixedRatePayer",
							"type": "address"
						},
						{
							"internalType": "address",
							"name": "floatingRatePayer",
							"type": "address"
						},
						{
							"internalType": "address",
							"name": "settlementCurrency",
							"type": "address"
						},
						{
							"internalType": "int256",
							"name": "swapRate",
							"type": "int256"
						},
						{
							"internalType": "int256",
							"name": "spread",
							"type": "int256"
						},
						{
							"internalType": "uint256",
							"name": "notionalAmount",
							"type": "uint256"
						},
						{
							"internalType": "uint256",
							"name": "startingDate",
							"type": "uint256"
						},
						{
							"internalType": "uint256",
							"name": "maturityDate",
							"type": "uint256"
						}
					],
					"internalType": "struct Types.IRS",
					"name": "_irs",
					"type": "tuple"
				},
				{
					"internalType": "uint256",
					"name": "_initialMarginBuffer",
					"type": "uint256"
				},
				{
					"internalType": "uint256",
					"name": "_initialTerminationFee",
					"type": "uint256"
				},
				{
					"internalType": "address",
					"name": "_participantRegistryContractAddress",
					"type": "address"
				},
				{
					"internalType": "address",
					"name": "_ratesContractAddress",
					"type": "address"
				},
				{
					"internalType": "address",
					"name": "_identityRegistryContractAddress",
					"type": "address"
				}
			],
			"stateMutability": "nonpayable",
			"type": "constructor"
		},
		{
			"inputs": [],
			"name": "allSettlementsDone",
			"type": "error"
		},
		{
			"inputs": [
				{
					"internalType": "address",
					"name": "_caller",
					"type": "address"
				},
				{
					"internalType": "address",
					"name": "_withParty",
					"type": "address"
				}
			],
			"name": "cannotInceptWithYourself",
			"type": "error"
		},
		{
			"inputs": [
				{
					"internalType": "address",
					"name": "_inceptor",
					"type": "address"
				},
				{
					"internalType": "uint256",
					"name": "_dataHash",
					"type": "uint256"
				}
			],
			"name": "inconsistentTradeDataOrWrongAddress",
			"type": "error"
		},
		{
			"inputs": [
				{
					"internalType": "int256",
					"name": "_amount",
					"type": "int256"
				}
			],
			"name": "invalidPaymentAmount",
			"type": "error"
		},
		{
			"inputs": [
				{
					"internalType": "int256",
					"name": "_position",
					"type": "int256"
				}
			],
			"name": "invalidPositionValue",
			"type": "error"
		},
		{
			"inputs": [
				{
					"internalType": "string",
					"name": "_tradeID",
					"type": "string"
				}
			],
			"name": "invalidTrade",
			"type": "error"
		},
		{
			"inputs": [
				{
					"internalType": "address",
					"name": "_withParty",
					"type": "address"
				},
				{
					"internalType": "address",
					"name": "_otherParty",
					"type": "address"
				}
			],
			"name": "mustBeOtherParty",
			"type": "error"
		},
		{
			"inputs": [
				{
					"internalType": "address",
					"name": "_withParty",
					"type": "address"
				},
				{
					"internalType": "address",
					"name": "_payer",
					"type": "address"
				},
				{
					"internalType": "address",
					"name": "_receiver",
					"type": "address"
				}
			],
			"name": "mustBePayerOrReceiver",
			"type": "error"
		},
		{
			"inputs": [
				{
					"internalType": "uint256",
					"name": "_settlementAmount",
					"type": "uint256"
				},
				{
					"internalType": "uint256",
					"name": "_availableMarginBuffer",
					"type": "uint256"
				}
			],
			"name": "notEnoughMarginBuffer",
			"type": "error"
		},
		{
			"inputs": [
				{
					"internalType": "int256",
					"name": "_fixedRate",
					"type": "int256"
				},
				{
					"internalType": "int256",
					"name": "_floatingRate",
					"type": "int256"
				}
			],
			"name": "nothingToSwap",
			"type": "error"
		},
		{
			"inputs": [],
			"name": "obseleteFunction",
			"type": "error"
		},
		{
			"inputs": [],
			"name": "stateMustBeConfirmedOrSettled",
			"type": "error"
		},
		{
			"inputs": [
				{
					"internalType": "uint256",
					"name": "totalSupply_",
					"type": "uint256"
				},
				{
					"internalType": "uint256",
					"name": "maxSupply_",
					"type": "uint256"
				}
			],
			"name": "supplyExceededMaxSupply",
			"type": "error"
		},
		{
			"anonymous": false,
			"inputs": [
				{
					"indexed": true,
					"internalType": "address",
					"name": "_userAddress",
					"type": "address"
				},
				{
					"indexed": true,
					"internalType": "bool",
					"name": "_isFrozen",
					"type": "bool"
				},
				{
					"indexed": true,
					"internalType": "address",
					"name": "_owner",
					"type": "address"
				}
			],
			"name": "AddressFrozen",
			"type": "event"
		},
		{
			"anonymous": false,
			"inputs": [
				{
					"indexed": true,
					"internalType": "address",
					"name": "owner",
					"type": "address"
				},
				{
					"indexed": true,
					"internalType": "address",
					"name": "spender",
					"type": "address"
				},
				{
					"indexed": false,
					"internalType": "uint256",
					"name": "value",
					"type": "uint256"
				}
			],
			"name": "Approval",
			"type": "event"
		},
		{
			"anonymous": false,
			"inputs": [
				{
					"indexed": false,
					"internalType": "string",
					"name": "tradeID",
					"type": "string"
				},
				{
					"indexed": false,
					"internalType": "address",
					"name": "account",
					"type": "address"
				},
				{
					"indexed": false,
					"internalType": "address",
					"name": "forwarderAddress",
					"type": "address"
				}
			],
			"name": "CollateralAdjustementForwaderSet",
			"type": "event"
		},
		{
			"anonymous": false,
			"inputs": [
				{
					"indexed": false,
					"internalType": "string",
					"name": "tradeID",
					"type": "string"
				},
				{
					"indexed": false,
					"internalType": "address",
					"name": "updater",
					"type": "address"
				},
				{
					"indexed": false,
					"internalType": "uint256",
					"name": "collateralAmount",
					"type": "uint256"
				}
			],
			"name": "CollateralUpdated",
			"type": "event"
		},
		{
			"anonymous": false,
			"inputs": [
				{
					"indexed": true,
					"internalType": "address",
					"name": "_compliance",
					"type": "address"
				}
			],
			"name": "ComplianceAdded",
			"type": "event"
		},
		{
			"anonymous": false,
			"inputs": [
				{
					"indexed": false,
					"internalType": "string",
					"name": "tradeID",
					"type": "string"
				},
				{
					"indexed": false,
					"internalType": "address",
					"name": "payer",
					"type": "address"
				},
				{
					"indexed": false,
					"internalType": "address",
					"name": "receiver",
					"type": "address"
				},
				{
					"indexed": false,
					"internalType": "uint256",
					"name": "netSettlementAmount",
					"type": "uint256"
				},
				{
					"indexed": false,
					"internalType": "uint256",
					"name": "fixedRatePayment",
					"type": "uint256"
				},
				{
					"indexed": false,
					"internalType": "uint256",
					"name": "floatingRatePayment",
					"type": "uint256"
				}
			],
			"name": "ContractSettled",
			"type": "event"
		},
		{
			"anonymous": false,
			"inputs": [
				{
					"indexed": true,
					"internalType": "address",
					"name": "_identityRegistry",
					"type": "address"
				}
			],
			"name": "IdentityRegistryAdded",
			"type": "event"
		},
		{
			"anonymous": false,
			"inputs": [
				{
					"indexed": false,
					"internalType": "string",
					"name": "tradeID",
					"type": "string"
				},
				{
					"indexed": false,
					"internalType": "address",
					"name": "account",
					"type": "address"
				},
				{
					"indexed": false,
					"internalType": "uint256",
					"name": "amount",
					"type": "uint256"
				}
			],
			"name": "LinkWithdrawn",
			"type": "event"
		},
		{
			"anonymous": false,
			"inputs": [
				{
					"indexed": false,
					"internalType": "string",
					"name": "tradeID",
					"type": "string"
				},
				{
					"indexed": false,
					"internalType": "address",
					"name": "account",
					"type": "address"
				},
				{
					"indexed": false,
					"internalType": "uint256",
					"name": "margin",
					"type": "uint256"
				},
				{
					"indexed": false,
					"internalType": "uint256",
					"name": "fees",
					"type": "uint256"
				}
			],
			"name": "MarginAndFeesWithdrawn",
			"type": "event"
		},
		{
			"anonymous": false,
			"inputs": [
				{
					"indexed": false,
					"internalType": "address",
					"name": "_userAddress",
					"type": "address"
				}
			],
			"name": "Paused",
			"type": "event"
		},
		{
			"anonymous": false,
			"inputs": [
				{
					"indexed": true,
					"internalType": "address",
					"name": "_lostWallet",
					"type": "address"
				},
				{
					"indexed": true,
					"internalType": "address",
					"name": "_newWallet",
					"type": "address"
				},
				{
					"indexed": true,
					"internalType": "address",
					"name": "_investorOnchainID",
					"type": "address"
				}
			],
			"name": "RecoverySuccess",
			"type": "event"
		},
		{
			"anonymous": false,
			"inputs": [
				{
					"indexed": false,
					"internalType": "address",
					"name": "initiator",
					"type": "address"
				},
				{
					"indexed": false,
					"internalType": "int256",
					"name": "settlementAmount",
					"type": "int256"
				},
				{
					"indexed": false,
					"internalType": "string",
					"name": "settlementData",
					"type": "string"
				}
			],
			"name": "SettlementEvaluated",
			"type": "event"
		},
		{
			"anonymous": false,
			"inputs": [
				{
					"indexed": false,
					"internalType": "string",
					"name": "transactionData",
					"type": "string"
				}
			],
			"name": "SettlementFailed",
			"type": "event"
		},
		{
			"anonymous": false,
			"inputs": [
				{
					"indexed": false,
					"internalType": "string",
					"name": "tradeID",
					"type": "string"
				},
				{
					"indexed": false,
					"internalType": "address",
					"name": "account",
					"type": "address"
				},
				{
					"indexed": false,
					"internalType": "address",
					"name": "forwarderAddress",
					"type": "address"
				}
			],
			"name": "SettlementForwderSet",
			"type": "event"
		},
		{
			"anonymous": false,
			"inputs": [
				{
					"indexed": false,
					"internalType": "address",
					"name": "initiator",
					"type": "address"
				},
				{
					"indexed": false,
					"internalType": "string",
					"name": "tradeData",
					"type": "string"
				},
				{
					"indexed": false,
					"internalType": "string",
					"name": "lastSettlementData",
					"type": "string"
				}
			],
			"name": "SettlementRequested",
			"type": "event"
		},
		{
			"anonymous": false,
			"inputs": [
				{
					"indexed": false,
					"internalType": "string",
					"name": "transactionData",
					"type": "string"
				}
			],
			"name": "SettlementTransferred",
			"type": "event"
		},
		{
			"anonymous": false,
			"inputs": [
				{
					"indexed": false,
					"internalType": "address",
					"name": "_account",
					"type": "address"
				},
				{
					"indexed": false,
					"internalType": "uint256",
					"name": "_amount",
					"type": "uint256"
				}
			],
			"name": "Swap",
			"type": "event"
		},
		{
			"anonymous": false,
			"inputs": [
				{
					"indexed": true,
					"internalType": "address",
					"name": "_payer",
					"type": "address"
				},
				{
					"indexed": true,
					"internalType": "address",
					"name": "_receiver",
					"type": "address"
				}
			],
			"name": "TerminateSwap",
			"type": "event"
		},
		{
			"anonymous": false,
			"inputs": [
				{
					"indexed": true,
					"internalType": "address",
					"name": "_userAddress",
					"type": "address"
				},
				{
					"indexed": false,
					"internalType": "uint256",
					"name": "_amount",
					"type": "uint256"
				}
			],
			"name": "TokensFrozen",
			"type": "event"
		},
		{
			"anonymous": false,
			"inputs": [
				{
					"indexed": true,
					"internalType": "address",
					"name": "_userAddress",
					"type": "address"
				},
				{
					"indexed": false,
					"internalType": "uint256",
					"name": "_amount",
					"type": "uint256"
				}
			],
			"name": "TokensUnfrozen",
			"type": "event"
		},
		{
			"anonymous": false,
			"inputs": [
				{
					"indexed": false,
					"internalType": "string",
					"name": "tradeId",
					"type": "string"
				}
			],
			"name": "TradeActivated",
			"type": "event"
		},
		{
			"anonymous": false,
			"inputs": [
				{
					"indexed": false,
					"internalType": "address",
					"name": "initiator",
					"type": "address"
				},
				{
					"indexed": false,
					"internalType": "string",
					"name": "tradeId",
					"type": "string"
				}
			],
			"name": "TradeCanceled",
			"type": "event"
		},
		{
			"anonymous": false,
			"inputs": [
				{
					"indexed": false,
					"internalType": "address",
					"name": "confirmer",
					"type": "address"
				},
				{
					"indexed": false,
					"internalType": "string",
					"name": "tradeId",
					"type": "string"
				}
			],
			"name": "TradeConfirmed",
			"type": "event"
		},
		{
			"anonymous": false,
			"inputs": [
				{
					"indexed": false,
					"internalType": "address",
					"name": "initiator",
					"type": "address"
				},
				{
					"indexed": false,
					"internalType": "address",
					"name": "withParty",
					"type": "address"
				},
				{
					"indexed": false,
					"internalType": "string",
					"name": "tradeId",
					"type": "string"
				},
				{
					"indexed": false,
					"internalType": "string",
					"name": "tradeData",
					"type": "string"
				},
				{
					"indexed": false,
					"internalType": "int256",
					"name": "position",
					"type": "int256"
				},
				{
					"indexed": false,
					"internalType": "int256",
					"name": "paymentAmount",
					"type": "int256"
				},
				{
					"indexed": false,
					"internalType": "string",
					"name": "initialSettlementData",
					"type": "string"
				}
			],
			"name": "TradeIncepted",
			"type": "event"
		},
		{
			"anonymous": false,
			"inputs": [
				{
					"indexed": false,
					"internalType": "string",
					"name": "tradeId",
					"type": "string"
				},
				{
					"indexed": false,
					"internalType": "string",
					"name": "cause",
					"type": "string"
				}
			],
			"name": "TradeTerminated",
			"type": "event"
		},
		{
			"anonymous": false,
			"inputs": [
				{
					"indexed": false,
					"internalType": "address",
					"name": "initiator",
					"type": "address"
				},
				{
					"indexed": false,
					"internalType": "string",
					"name": "tradeId",
					"type": "string"
				},
				{
					"indexed": false,
					"internalType": "string",
					"name": "terminationTerms",
					"type": "string"
				}
			],
			"name": "TradeTerminationCanceled",
			"type": "event"
		},
		{
			"anonymous": false,
			"inputs": [
				{
					"indexed": false,
					"internalType": "address",
					"name": "confirmer",
					"type": "address"
				},
				{
					"indexed": false,
					"internalType": "string",
					"name": "tradeId",
					"type": "string"
				},
				{
					"indexed": false,
					"internalType": "int256",
					"name": "terminationPayment",
					"type": "int256"
				},
				{
					"indexed": false,
					"internalType": "string",
					"name": "terminationTerms",
					"type": "string"
				}
			],
			"name": "TradeTerminationConfirmed",
			"type": "event"
		},
		{
			"anonymous": false,
			"inputs": [
				{
					"indexed": false,
					"internalType": "address",
					"name": "initiator",
					"type": "address"
				},
				{
					"indexed": false,
					"internalType": "string",
					"name": "tradeId",
					"type": "string"
				},
				{
					"indexed": false,
					"internalType": "int256",
					"name": "terminationPayment",
					"type": "int256"
				},
				{
					"indexed": false,
					"internalType": "string",
					"name": "terminationTerms",
					"type": "string"
				}
			],
			"name": "TradeTerminationRequest",
			"type": "event"
		},
		{
			"anonymous": false,
			"inputs": [
				{
					"indexed": true,
					"internalType": "address",
					"name": "from",
					"type": "address"
				},
				{
					"indexed": true,
					"internalType": "address",
					"name": "to",
					"type": "address"
				},
				{
					"indexed": false,
					"internalType": "uint256",
					"name": "value",
					"type": "uint256"
				}
			],
			"name": "Transfer",
			"type": "event"
		},
		{
			"anonymous": false,
			"inputs": [
				{
					"indexed": false,
					"internalType": "address",
					"name": "_userAddress",
					"type": "address"
				}
			],
			"name": "Unpaused",
			"type": "event"
		},
		{
			"anonymous": false,
			"inputs": [
				{
					"indexed": true,
					"internalType": "string",
					"name": "_newName",
					"type": "string"
				},
				{
					"indexed": true,
					"internalType": "string",
					"name": "_newSymbol",
					"type": "string"
				},
				{
					"indexed": false,
					"internalType": "uint8",
					"name": "_newDecimals",
					"type": "uint8"
				},
				{
					"indexed": false,
					"internalType": "string",
					"name": "_newVersion",
					"type": "string"
				},
				{
					"indexed": true,
					"internalType": "address",
					"name": "_newOnchainID",
					"type": "address"
				}
			],
			"name": "UpdatedTokenInformation",
			"type": "event"
		},
		{
			"inputs": [],
			"name": "CheckMarginCall",
			"outputs": [],
			"stateMutability": "nonpayable",
			"type": "function"
		},
		{
			"inputs": [
				{
					"internalType": "bool",
					"name": "",
					"type": "bool"
				},
				{
					"internalType": "string",
					"name": "",
					"type": "string"
				}
			],
			"name": "afterTransfer",
			"outputs": [],
			"stateMutability": "pure",
			"type": "function"
		},
		{
			"inputs": [
				{
					"internalType": "address",
					"name": "owner",
					"type": "address"
				},
				{
					"internalType": "address",
					"name": "spender",
					"type": "address"
				}
			],
			"name": "allowance",
			"outputs": [
				{
					"internalType": "uint256",
					"name": "",
					"type": "uint256"
				}
			],
			"stateMutability": "view",
			"type": "function"
		},
		{
			"inputs": [
				{
					"internalType": "address",
					"name": "spender",
					"type": "address"
				},
				{
					"internalType": "uint256",
					"name": "amount",
					"type": "uint256"
				}
			],
			"name": "approve",
			"outputs": [
				{
					"internalType": "bool",
					"name": "",
					"type": "bool"
				}
			],
			"stateMutability": "nonpayable",
			"type": "function"
		},
		{
			"inputs": [
				{
					"internalType": "address",
					"name": "account",
					"type": "address"
				}
			],
			"name": "balanceOf",
			"outputs": [
				{
					"internalType": "uint256",
					"name": "",
					"type": "uint256"
				}
			],
			"stateMutability": "view",
			"type": "function"
		},
		{
			"inputs": [
				{
					"internalType": "address[]",
					"name": "_userAddresses",
					"type": "address[]"
				},
				{
					"internalType": "uint256[]",
					"name": "_amounts",
					"type": "uint256[]"
				}
			],
			"name": "batchBurn",
			"outputs": [],
			"stateMutability": "nonpayable",
			"type": "function"
		},
		{
			"inputs": [
				{
					"internalType": "address[]",
					"name": "_fromList",
					"type": "address[]"
				},
				{
					"internalType": "address[]",
					"name": "_toList",
					"type": "address[]"
				},
				{
					"internalType": "uint256[]",
					"name": "_amounts",
					"type": "uint256[]"
				}
			],
			"name": "batchForcedTransfer",
			"outputs": [],
			"stateMutability": "nonpayable",
			"type": "function"
		},
		{
			"inputs": [
				{
					"internalType": "address[]",
					"name": "_userAddresses",
					"type": "address[]"
				},
				{
					"internalType": "uint256[]",
					"name": "_amounts",
					"type": "uint256[]"
				}
			],
			"name": "batchFreezePartialTokens",
			"outputs": [],
			"stateMutability": "nonpayable",
			"type": "function"
		},
		{
			"inputs": [
				{
					"internalType": "address[]",
					"name": "_toList",
					"type": "address[]"
				},
				{
					"internalType": "uint256[]",
					"name": "_amounts",
					"type": "uint256[]"
				}
			],
			"name": "batchMint",
			"outputs": [],
			"stateMutability": "nonpayable",
			"type": "function"
		},
		{
			"inputs": [
				{
					"internalType": "address[]",
					"name": "_userAddresses",
					"type": "address[]"
				},
				{
					"internalType": "bool[]",
					"name": "_freeze",
					"type": "bool[]"
				}
			],
			"name": "batchSetAddressFrozen",
			"outputs": [],
			"stateMutability": "nonpayable",
			"type": "function"
		},
		{
			"inputs": [
				{
					"internalType": "address[]",
					"name": "_toList",
					"type": "address[]"
				},
				{
					"internalType": "uint256[]",
					"name": "_amounts",
					"type": "uint256[]"
				}
			],
			"name": "batchTransfer",
			"outputs": [],
			"stateMutability": "nonpayable",
			"type": "function"
		},
		{
			"inputs": [
				{
					"internalType": "address[]",
					"name": "_userAddresses",
					"type": "address[]"
				},
				{
					"internalType": "uint256[]",
					"name": "_amounts",
					"type": "uint256[]"
				}
			],
			"name": "batchUnfreezePartialTokens",
			"outputs": [],
			"stateMutability": "nonpayable",
			"type": "function"
		},
		{
			"inputs": [],
			"name": "benchmark",
			"outputs": [
				{
					"internalType": "uint256",
					"name": "",
					"type": "uint256"
				}
			],
			"stateMutability": "nonpayable",
			"type": "function"
		},
		{
			"inputs": [
				{
					"internalType": "address",
					"name": "account",
					"type": "address"
				},
				{
					"internalType": "uint256",
					"name": "amount",
					"type": "uint256"
				}
			],
			"name": "burn",
			"outputs": [],
			"stateMutability": "nonpayable",
			"type": "function"
		},
		{
			"inputs": [
				{
					"internalType": "address",
					"name": "_withParty",
					"type": "address"
				},
				{
					"internalType": "string",
					"name": "_tradeData",
					"type": "string"
				},
				{
					"internalType": "int256",
					"name": "_position",
					"type": "int256"
				},
				{
					"internalType": "int256",
					"name": "_paymentAmount",
					"type": "int256"
				},
				{
					"internalType": "string",
					"name": "_initialSettlementData",
					"type": "string"
				}
			],
			"name": "cancelTrade",
			"outputs": [],
			"stateMutability": "nonpayable",
			"type": "function"
		},
		{
			"inputs": [
				{
					"internalType": "string",
					"name": "_tradeHash",
					"type": "string"
				},
				{
					"internalType": "int256",
					"name": "_terminationPayment",
					"type": "int256"
				},
				{
					"internalType": "string",
					"name": "_terminationTerms",
					"type": "string"
				}
			],
			"name": "cancelTradeTermination",
			"outputs": [],
			"stateMutability": "nonpayable",
			"type": "function"
		},
		{
			"inputs": [],
			"name": "collateralAdjustementForwarderAddress",
			"outputs": [
				{
					"internalType": "address",
					"name": "",
					"type": "address"
				}
			],
			"stateMutability": "view",
			"type": "function"
		},
		{
			"inputs": [],
			"name": "compliance",
			"outputs": [
				{
					"internalType": "contract IModularCompliance",
					"name": "",
					"type": "address"
				}
			],
			"stateMutability": "view",
			"type": "function"
		},
		{
			"inputs": [
				{
					"internalType": "address",
					"name": "_withParty",
					"type": "address"
				},
				{
					"internalType": "string",
					"name": "_tradeData",
					"type": "string"
				},
				{
					"internalType": "int256",
					"name": "_position",
					"type": "int256"
				},
				{
					"internalType": "int256",
					"name": "_paymentAmount",
					"type": "int256"
				},
				{
					"internalType": "string",
					"name": "_initialSettlementData",
					"type": "string"
				}
			],
			"name": "confirmTrade",
			"outputs": [],
			"stateMutability": "nonpayable",
			"type": "function"
		},
		{
			"inputs": [
				{
					"internalType": "string",
					"name": "_tradeHash",
					"type": "string"
				},
				{
					"internalType": "int256",
					"name": "_terminationPayment",
					"type": "int256"
				},
				{
					"internalType": "string",
					"name": "_terminationTerms",
					"type": "string"
				}
			],
			"name": "confirmTradeTermination",
			"outputs": [],
			"stateMutability": "nonpayable",
			"type": "function"
		},
		{
			"inputs": [],
			"name": "decimals",
			"outputs": [
				{
					"internalType": "uint8",
					"name": "",
					"type": "uint8"
				}
			],
			"stateMutability": "view",
			"type": "function"
		},
		{
			"inputs": [
				{
					"internalType": "address",
					"name": "spender",
					"type": "address"
				},
				{
					"internalType": "uint256",
					"name": "subtractedValue",
					"type": "uint256"
				}
			],
			"name": "decreaseAllowance",
			"outputs": [
				{
					"internalType": "bool",
					"name": "",
					"type": "bool"
				}
			],
			"stateMutability": "nonpayable",
			"type": "function"
		},
		{
			"inputs": [],
			"name": "fixedRatePayer",
			"outputs": [
				{
					"internalType": "address",
					"name": "",
					"type": "address"
				}
			],
			"stateMutability": "view",
			"type": "function"
		},
		{
			"inputs": [],
			"name": "floatingRatePayer",
			"outputs": [
				{
					"internalType": "address",
					"name": "",
					"type": "address"
				}
			],
			"stateMutability": "view",
			"type": "function"
		},
		{
			"inputs": [
				{
					"internalType": "address",
					"name": "_from",
					"type": "address"
				},
				{
					"internalType": "address",
					"name": "_to",
					"type": "address"
				},
				{
					"internalType": "uint256",
					"name": "_amount",
					"type": "uint256"
				}
			],
			"name": "forcedTransfer",
			"outputs": [
				{
					"internalType": "bool",
					"name": "",
					"type": "bool"
				}
			],
			"stateMutability": "nonpayable",
			"type": "function"
		},
		{
			"inputs": [
				{
					"internalType": "address",
					"name": "_userAddress",
					"type": "address"
				},
				{
					"internalType": "uint256",
					"name": "_amount",
					"type": "uint256"
				}
			],
			"name": "freezePartialTokens",
			"outputs": [],
			"stateMutability": "nonpayable",
			"type": "function"
		},
		{
			"inputs": [],
			"name": "getConfirmationTime",
			"outputs": [
				{
					"internalType": "uint256",
					"name": "",
					"type": "uint256"
				}
			],
			"stateMutability": "view",
			"type": "function"
		},
		{
			"inputs": [],
			"name": "getContractLINKBalance",
			"outputs": [
				{
					"internalType": "uint256",
					"name": "",
					"type": "uint256"
				}
			],
			"stateMutability": "view",
			"type": "function"
		},
		{
			"inputs": [
				{
					"internalType": "address",
					"name": "_userAddress",
					"type": "address"
				}
			],
			"name": "getFrozenTokens",
			"outputs": [
				{
					"internalType": "uint256",
					"name": "",
					"type": "uint256"
				}
			],
			"stateMutability": "view",
			"type": "function"
		},
		{
			"inputs": [],
			"name": "getIRSReceipts",
			"outputs": [
				{
					"components": [
						{
							"internalType": "address",
							"name": "from",
							"type": "address"
						},
						{
							"internalType": "address",
							"name": "to",
							"type": "address"
						},
						{
							"internalType": "uint256",
							"name": "netAmount",
							"type": "uint256"
						},
						{
							"internalType": "uint256",
							"name": "timestamp",
							"type": "uint256"
						},
						{
							"internalType": "uint256",
							"name": "fixedRatePayment",
							"type": "uint256"
						},
						{
							"internalType": "uint256",
							"name": "floatingRatePayment",
							"type": "uint256"
						}
					],
					"internalType": "struct Types.IRSReceipt[]",
					"name": "",
					"type": "tuple[]"
				}
			],
			"stateMutability": "view",
			"type": "function"
		},
		{
			"inputs": [],
			"name": "getInceptingTime",
			"outputs": [
				{
					"internalType": "uint256",
					"name": "",
					"type": "uint256"
				}
			],
			"stateMutability": "view",
			"type": "function"
		},
		{
			"inputs": [],
			"name": "getInitialMargin",
			"outputs": [
				{
					"internalType": "uint256",
					"name": "",
					"type": "uint256"
				}
			],
			"stateMutability": "view",
			"type": "function"
		},
		{
			"inputs": [],
			"name": "getInitialTerminationFee",
			"outputs": [
				{
					"internalType": "uint256",
					"name": "",
					"type": "uint256"
				}
			],
			"stateMutability": "view",
			"type": "function"
		},
		{
			"inputs": [
				{
					"internalType": "address",
					"name": "_account",
					"type": "address"
				}
			],
			"name": "getMarginCall",
			"outputs": [
				{
					"internalType": "uint256",
					"name": "",
					"type": "uint256"
				}
			],
			"stateMutability": "view",
			"type": "function"
		},
		{
			"inputs": [
				{
					"internalType": "address",
					"name": "_account",
					"type": "address"
				}
			],
			"name": "getMarginRequirement",
			"outputs": [
				{
					"components": [
						{
							"internalType": "uint256",
							"name": "marginBuffer",
							"type": "uint256"
						},
						{
							"internalType": "uint256",
							"name": "terminationFee",
							"type": "uint256"
						}
					],
					"internalType": "struct Types.MarginRequirement",
					"name": "",
					"type": "tuple"
				}
			],
			"stateMutability": "view",
			"type": "function"
		},
		{
			"inputs": [],
			"name": "getSettlementInfo",
			"outputs": [
				{
					"internalType": "address",
					"name": "receiver",
					"type": "address"
				},
				{
					"internalType": "uint256",
					"name": "amount",
					"type": "uint256"
				}
			],
			"stateMutability": "view",
			"type": "function"
		},
		{
			"inputs": [],
			"name": "getTradeHash",
			"outputs": [
				{
					"internalType": "string",
					"name": "",
					"type": "string"
				}
			],
			"stateMutability": "view",
			"type": "function"
		},
		{
			"inputs": [],
			"name": "getTradeID",
			"outputs": [
				{
					"internalType": "string",
					"name": "",
					"type": "string"
				}
			],
			"stateMutability": "view",
			"type": "function"
		},
		{
			"inputs": [],
			"name": "getTradeState",
			"outputs": [
				{
					"internalType": "enum ERC6123Storage.TradeState",
					"name": "",
					"type": "uint8"
				}
			],
			"stateMutability": "view",
			"type": "function"
		},
		{
			"inputs": [],
			"name": "identityRegistry",
			"outputs": [
				{
					"internalType": "contract IIdentityRegistry",
					"name": "",
					"type": "address"
				}
			],
			"stateMutability": "view",
			"type": "function"
		},
		{
			"inputs": [
				{
					"internalType": "address",
					"name": "_withParty",
					"type": "address"
				},
				{
					"internalType": "string",
					"name": "_tradeData",
					"type": "string"
				},
				{
					"internalType": "int256",
					"name": "_position",
					"type": "int256"
				},
				{
					"internalType": "int256",
					"name": "_paymentAmount",
					"type": "int256"
				},
				{
					"internalType": "string",
					"name": "_initialSettlementData",
					"type": "string"
				}
			],
			"name": "inceptTrade",
			"outputs": [
				{
					"internalType": "string",
					"name": "",
					"type": "string"
				}
			],
			"stateMutability": "nonpayable",
			"type": "function"
		},
		{
			"inputs": [
				{
					"internalType": "address",
					"name": "spender",
					"type": "address"
				},
				{
					"internalType": "uint256",
					"name": "addedValue",
					"type": "uint256"
				}
			],
			"name": "increaseAllowance",
			"outputs": [
				{
					"internalType": "bool",
					"name": "",
					"type": "bool"
				}
			],
			"stateMutability": "nonpayable",
			"type": "function"
		},
		{
			"inputs": [],
			"name": "initiateSettlement",
			"outputs": [],
			"stateMutability": "pure",
			"type": "function"
		},
		{
			"inputs": [
				{
					"internalType": "address",
					"name": "_userAddress",
					"type": "address"
				}
			],
			"name": "isFrozen",
			"outputs": [
				{
					"internalType": "bool",
					"name": "",
					"type": "bool"
				}
			],
			"stateMutability": "view",
			"type": "function"
		},
		{
			"inputs": [],
			"name": "maturityDate",
			"outputs": [
				{
					"internalType": "uint256",
					"name": "",
					"type": "uint256"
				}
			],
			"stateMutability": "view",
			"type": "function"
		},
		{
			"inputs": [],
			"name": "maxSupply",
			"outputs": [
				{
					"internalType": "uint256",
					"name": "",
					"type": "uint256"
				}
			],
			"stateMutability": "view",
			"type": "function"
		},
		{
			"inputs": [
				{
					"internalType": "address",
					"name": "account",
					"type": "address"
				},
				{
					"internalType": "uint256",
					"name": "amount",
					"type": "uint256"
				}
			],
			"name": "mint",
			"outputs": [],
			"stateMutability": "nonpayable",
			"type": "function"
		},
		{
			"inputs": [],
			"name": "name",
			"outputs": [
				{
					"internalType": "string",
					"name": "",
					"type": "string"
				}
			],
			"stateMutability": "view",
			"type": "function"
		},
		{
			"inputs": [],
			"name": "notionalAmount",
			"outputs": [
				{
					"internalType": "uint256",
					"name": "",
					"type": "uint256"
				}
			],
			"stateMutability": "view",
			"type": "function"
		},
		{
			"inputs": [],
			"name": "onchainID",
			"outputs": [
				{
					"internalType": "address",
					"name": "",
					"type": "address"
				}
			],
			"stateMutability": "view",
			"type": "function"
		},
		{
			"inputs": [],
			"name": "pause",
			"outputs": [],
			"stateMutability": "nonpayable",
			"type": "function"
		},
		{
			"inputs": [],
			"name": "paused",
			"outputs": [
				{
					"internalType": "bool",
					"name": "",
					"type": "bool"
				}
			],
			"stateMutability": "view",
			"type": "function"
		},
		{
			"inputs": [
				{
					"internalType": "int256",
					"name": "_settlementAmount",
					"type": "int256"
				},
				{
					"internalType": "string",
					"name": "_settlementData",
					"type": "string"
				}
			],
			"name": "performSettlement",
			"outputs": [],
			"stateMutability": "nonpayable",
			"type": "function"
		},
		{
			"inputs": [],
			"name": "postCollateral",
			"outputs": [],
			"stateMutability": "nonpayable",
			"type": "function"
		},
		{
			"inputs": [
				{
					"internalType": "address",
					"name": "_lostWallet",
					"type": "address"
				},
				{
					"internalType": "address",
					"name": "_newWallet",
					"type": "address"
				},
				{
					"internalType": "address",
					"name": "_investorOnchainID",
					"type": "address"
				}
			],
			"name": "recoveryAddress",
			"outputs": [
				{
					"internalType": "bool",
					"name": "",
					"type": "bool"
				}
			],
			"stateMutability": "nonpayable",
			"type": "function"
		},
		{
			"inputs": [
				{
					"internalType": "string",
					"name": "_tradeHash",
					"type": "string"
				},
				{
					"internalType": "int256",
					"name": "_terminationPayment",
					"type": "int256"
				},
				{
					"internalType": "string",
					"name": "_terminationTerms",
					"type": "string"
				}
			],
			"name": "requestTradeTermination",
			"outputs": [],
			"stateMutability": "nonpayable",
			"type": "function"
		},
		{
			"inputs": [
				{
					"internalType": "address",
					"name": "_userAddress",
					"type": "address"
				},
				{
					"internalType": "bool",
					"name": "_freeze",
					"type": "bool"
				}
			],
			"name": "setAddressFrozen",
			"outputs": [],
			"stateMutability": "nonpayable",
			"type": "function"
		},
		{
			"inputs": [
				{
					"internalType": "address",
					"name": "_address",
					"type": "address"
				}
			],
			"name": "setCollateralAdjustementForwarderAddress",
			"outputs": [],
			"stateMutability": "nonpayable",
			"type": "function"
		},
		{
			"inputs": [
				{
					"internalType": "address",
					"name": "_compliance",
					"type": "address"
				}
			],
			"name": "setCompliance",
			"outputs": [],
			"stateMutability": "nonpayable",
			"type": "function"
		},
		{
			"inputs": [
				{
					"internalType": "address",
					"name": "_identityRegistry",
					"type": "address"
				}
			],
			"name": "setIdentityRegistry",
			"outputs": [],
			"stateMutability": "nonpayable",
			"type": "function"
		},
		{
			"inputs": [
				{
					"internalType": "string",
					"name": "name_",
					"type": "string"
				}
			],
			"name": "setName",
			"outputs": [],
			"stateMutability": "nonpayable",
			"type": "function"
		},
		{
			"inputs": [
				{
					"internalType": "address",
					"name": "_onchainID",
					"type": "address"
				}
			],
			"name": "setOnchainID",
			"outputs": [],
			"stateMutability": "nonpayable",
			"type": "function"
		},
		{
			"inputs": [
				{
					"internalType": "string",
					"name": "symbol_",
					"type": "string"
				}
			],
			"name": "setSymbol",
			"outputs": [],
			"stateMutability": "nonpayable",
			"type": "function"
		},
		{
			"inputs": [
				{
					"internalType": "address",
					"name": "_address",
					"type": "address"
				}
			],
			"name": "setsettlementForwarderAddress",
			"outputs": [],
			"stateMutability": "nonpayable",
			"type": "function"
		},
		{
			"inputs": [],
			"name": "settle",
			"outputs": [],
			"stateMutability": "nonpayable",
			"type": "function"
		},
		{
			"inputs": [],
			"name": "settlementCurrency",
			"outputs": [
				{
					"internalType": "address",
					"name": "",
					"type": "address"
				}
			],
			"stateMutability": "view",
			"type": "function"
		},
		{
			"inputs": [],
			"name": "settlementForwarderAddress",
			"outputs": [
				{
					"internalType": "address",
					"name": "",
					"type": "address"
				}
			],
			"stateMutability": "view",
			"type": "function"
		},
		{
			"inputs": [],
			"name": "spread",
			"outputs": [
				{
					"internalType": "int256",
					"name": "",
					"type": "int256"
				}
			],
			"stateMutability": "view",
			"type": "function"
		},
		{
			"inputs": [],
			"name": "startingDate",
			"outputs": [
				{
					"internalType": "uint256",
					"name": "",
					"type": "uint256"
				}
			],
			"stateMutability": "view",
			"type": "function"
		},
		{
			"inputs": [],
			"name": "swap",
			"outputs": [
				{
					"internalType": "bool",
					"name": "",
					"type": "bool"
				}
			],
			"stateMutability": "pure",
			"type": "function"
		},
		{
			"inputs": [],
			"name": "swapRate",
			"outputs": [
				{
					"internalType": "int256",
					"name": "",
					"type": "int256"
				}
			],
			"stateMutability": "view",
			"type": "function"
		},
		{
			"inputs": [],
			"name": "symbol",
			"outputs": [
				{
					"internalType": "string",
					"name": "",
					"type": "string"
				}
			],
			"stateMutability": "view",
			"type": "function"
		},
		{
			"inputs": [],
			"name": "terminateSwap",
			"outputs": [],
			"stateMutability": "nonpayable",
			"type": "function"
		},
		{
			"inputs": [],
			"name": "totalSupply",
			"outputs": [
				{
					"internalType": "uint256",
					"name": "",
					"type": "uint256"
				}
			],
			"stateMutability": "view",
			"type": "function"
		},
		{
			"inputs": [],
			"name": "tradeID",
			"outputs": [
				{
					"internalType": "string",
					"name": "",
					"type": "string"
				}
			],
			"stateMutability": "view",
			"type": "function"
		},
		{
			"inputs": [
				{
					"internalType": "address",
					"name": "to",
					"type": "address"
				},
				{
					"internalType": "uint256",
					"name": "amount",
					"type": "uint256"
				}
			],
			"name": "transfer",
			"outputs": [
				{
					"internalType": "bool",
					"name": "",
					"type": "bool"
				}
			],
			"stateMutability": "nonpayable",
			"type": "function"
		},
		{
			"inputs": [
				{
					"internalType": "address",
					"name": "from",
					"type": "address"
				},
				{
					"internalType": "address",
					"name": "to",
					"type": "address"
				},
				{
					"internalType": "uint256",
					"name": "amount",
					"type": "uint256"
				}
			],
			"name": "transferFrom",
			"outputs": [
				{
					"internalType": "bool",
					"name": "",
					"type": "bool"
				}
			],
			"stateMutability": "nonpayable",
			"type": "function"
		},
		{
			"inputs": [
				{
					"internalType": "address",
					"name": "_userAddress",
					"type": "address"
				},
				{
					"internalType": "uint256",
					"name": "_amount",
					"type": "uint256"
				}
			],
			"name": "unfreezePartialTokens",
			"outputs": [],
			"stateMutability": "nonpayable",
			"type": "function"
		},
		{
			"inputs": [],
			"name": "unpause",
			"outputs": [],
			"stateMutability": "nonpayable",
			"type": "function"
		},
		{
			"inputs": [],
			"name": "version",
			"outputs": [
				{
					"internalType": "string",
					"name": "",
					"type": "string"
				}
			],
			"stateMutability": "view",
			"type": "function"
		},
		{
			"inputs": [],
			"name": "withdraw",
			"outputs": [],
			"stateMutability": "nonpayable",
			"type": "function"
		},
		{
			"inputs": [],
			"name": "withdrawInitialMarginAndTerminationFees",
			"outputs": [],
			"stateMutability": "nonpayable",
			"type": "function"
		},
		{
			"inputs": [],
			"name": "withdrawLink",
			"outputs": [],
			"stateMutability": "nonpayable",
			"type": "function"
		},
		{
			"inputs": [],
			"name": "withdrawTokens",
			"outputs": [],
			"stateMutability": "nonpayable",
			"type": "function"
		}
	]
}