{
	"data": {
		"bytecode": {
			"linkReferences": {},
			"object": "6001805460ff1916600617905561012060405261b2e8608090815261b5a460a05261bc4860c05261b8c460e05261be3c61010052603f906002906005604f565b50348015604a575f5ffd5b5060a0565b82600581019282156080579160200282015b828111156080578251829061ffff169055916020019190600101906061565b50608a929150608e565b5090565b5b80821115608a575f8155600101608f565b610129806100ad5f395ff3fe6080604052348015600e575f5ffd5b5060043610603a575f3560e01c8063313ce56714603e5780635a95cf49146058578063679aefce14606c575b5f5ffd5b60015460405160ff90911681526020015b60405180910390f35b605f5f5481565b604051908152602001604f565b605f5f8054607a81600160bb565b5f556005811060a357604051632df3640d60e21b81526004810182905260240160405180910390fd5b6002816005811060b35760b360df565b015491505090565b8082018082111560d957634e487b7160e01b5f52601160045260245ffd5b92915050565b634e487b7160e01b5f52603260045260245ffdfea264697066735822122026816845047c080acd14290ca070b2977102a4b963400aaf1b62a4bdd26ca85164736f6c634300081e0033",
			"opcodes": "PUSH1 0x1 DUP1 SLOAD PUSH1 0xFF NOT AND PUSH1 0x6 OR SWAP1 SSTORE PUSH2 0x120 PUSH1 0x40 MSTORE PUSH2 0xB2E8 PUSH1 0x80 SWAP1 DUP2 MSTORE PUSH2 0xB5A4 PUSH1 0xA0 MSTORE PUSH2 0xBC48 PUSH1 0xC0 MSTORE PUSH2 0xB8C4 PUSH1 0xE0 MSTORE PUSH2 0xBE3C PUSH2 0x100 MSTORE PUSH1 0x3F SWAP1 PUSH1 0x2 SWAP1 PUSH1 0x5 PUSH1 0x4F JUMP JUMPDEST POP CALLVALUE DUP1 ISZERO PUSH1 0x4A JUMPI PUSH0 PUSH0 REVERT JUMPDEST POP PUSH1 0xA0 JUMP JUMPDEST DUP3 PUSH1 0x5 DUP2 ADD SWAP3 DUP3 ISZERO PUSH1 0x80 JUMPI SWAP2 PUSH1 0x20 MUL DUP3 ADD JUMPDEST DUP3 DUP2 GT ISZERO PUSH1 0x80 JUMPI DUP3 MLOAD DUP3 SWAP1 PUSH2 0xFFFF AND SWAP1 SSTORE SWAP2 PUSH1 0x20 ADD SWAP2 SWAP1 PUSH1 0x1 ADD SWAP1 PUSH1 0x61 JUMP JUMPDEST POP PUSH1 0x8A SWAP3 SWAP2 POP PUSH1 0x8E JUMP JUMPDEST POP SWAP1 JUMP JUMPDEST JUMPDEST DUP1 DUP3 GT ISZERO PUSH1 0x8A JUMPI PUSH0 DUP2 SSTORE PUSH1 0x1 ADD PUSH1 0x8F JUMP JUMPDEST PUSH2 0x129 DUP1 PUSH2 0xAD PUSH0 CODECOPY PUSH0 RETURN INVALID PUSH1 0x80 PUSH1 0x40 MSTORE CALLVALUE DUP1 ISZERO PUSH1 0xE JUMPI PUSH0 PUSH0 REVERT JUMPDEST POP PUSH1 0x4 CALLDATASIZE LT PUSH1 0x3A JUMPI PUSH0 CALLDATALOAD PUSH1 0xE0 SHR DUP1 PUSH4 0x313CE567 EQ PUSH1 0x3E JUMPI DUP1 PUSH4 0x5A95CF49 EQ PUSH1 0x58 JUMPI DUP1 PUSH4 0x679AEFCE EQ PUSH1 0x6C JUMPI JUMPDEST PUSH0 PUSH0 REVERT JUMPDEST PUSH1 0x1 SLOAD PUSH1 0x40 MLOAD PUSH1 0xFF SWAP1 SWAP2 AND DUP2 MSTORE PUSH1 0x20 ADD JUMPDEST PUSH1 0x40 MLOAD DUP1 SWAP2 SUB SWAP1 RETURN JUMPDEST PUSH1 0x5F PUSH0 SLOAD DUP2 JUMP JUMPDEST PUSH1 0x40 MLOAD SWAP1 DUP2 MSTORE PUSH1 0x20 ADD PUSH1 0x4F JUMP JUMPDEST PUSH1 0x5F PUSH0 DUP1 SLOAD PUSH1 0x7A DUP2 PUSH1 0x1 PUSH1 0xBB JUMP JUMPDEST PUSH0 SSTORE PUSH1 0x5 DUP2 LT PUSH1 0xA3 JUMPI PUSH1 0x40 MLOAD PUSH4 0x2DF3640D PUSH1 0xE2 SHL DUP2 MSTORE PUSH1 0x4 DUP2 ADD DUP3 SWAP1 MSTORE PUSH1 0x24 ADD PUSH1 0x40 MLOAD DUP1 SWAP2 SUB SWAP1 REVERT JUMPDEST PUSH1 0x2 DUP2 PUSH1 0x5 DUP2 LT PUSH1 0xB3 JUMPI PUSH1 0xB3 PUSH1 0xDF JUMP JUMPDEST ADD SLOAD SWAP2 POP POP SWAP1 JUMP JUMPDEST DUP1 DUP3 ADD DUP1 DUP3 GT ISZERO PUSH1 0xD9 JUMPI PUSH4 0x4E487B71 PUSH1 0xE0 SHL PUSH0 MSTORE PUSH1 0x11 PUSH1 0x4 MSTORE PUSH1 0x24 PUSH0 REVERT JUMPDEST SWAP3 SWAP2 POP POP JUMP JUMPDEST PUSH4 0x4E487B71 PUSH1 0xE0 SHL PUSH0 MSTORE PUSH1 0x32 PUSH1 0x4 MSTORE PUSH1 0x24 PUSH0 REVERT INVALID LOG2 PUSH5 0x6970667358 0x22 SLT KECCAK256 0x26 DUP2 PUSH9 0x45047C080ACD14290C LOG0 PUSH17 0xB2977102A4B963400AAF1B62A4BDD26CA8 MLOAD PUSH5 0x736F6C6343 STOP ADDMOD 0x1E STOP CALLER "
		},
		"gasEstimates": {
			"creation": {
				"codeDepositCost": "59400",
				"executionCost": "infinite",
				"totalCost": "infinite"
			},
			"external": {
				"decimals()": "2255",
				"getRate()": "26657",
				"rateCount()": "2293"
			}
		},
		"methodIdentifiers": {
			"decimals()": "313ce567",
			"getRate()": "679aefce",
			"rateCount()": "5a95cf49"
		}
	},
	"abi": [
		{
			"inputs": [
				{
					"internalType": "uint256",
					"name": "_index",
					"type": "uint256"
				}
			],
			"name": "invalidRateIndex",
			"type": "error"
		},
		{
			"inputs": [],
			"name": "decimals",
			"outputs": [
				{
					"internalType": "uint8",
					"name": "",
					"type": "uint8"
				}
			],
			"stateMutability": "view",
			"type": "function"
		},
		{
			"inputs": [],
			"name": "getRate",
			"outputs": [
				{
					"internalType": "uint256",
					"name": "",
					"type": "uint256"
				}
			],
			"stateMutability": "nonpayable",
			"type": "function"
		},
		{
			"inputs": [],
			"name": "rateCount",
			"outputs": [
				{
					"internalType": "uint256",
					"name": "",
					"type": "uint256"
				}
			],
			"stateMutability": "view",
			"type": "function"
		}
	]
}