{
	"data": {
		"bytecode": {
			"linkReferences": {},
			"object": "6080604052348015600e575f5ffd5b5060d880601a5f395ff3fe6080604052348015600e575f5ffd5b5060043610604e575f3560e01c8063036fca8914605257806310fe9ae814607057806332a19002146052578063bec44a46146089578063c45db37d146052575b5f5ffd5b5f5b6040516001600160a01b03909116815260200160405180910390f35b7397d66cb700d69f3059f2ad482a49a5429f67b7f76054565b7371a027b89bd4fc5245cf38fac4b02c68fd0a9018605456fea26469706673582212208ae4f1ea9bd4e90990a119e547b3a0b426392e6bb2a83cd1d8739aa2a8c90fe464736f6c634300081e0033",
			"opcodes": "PUSH1 0x80 PUSH1 0x40 MSTORE CALLVALUE DUP1 ISZERO PUSH1 0xE JUMPI PUSH0 PUSH0 REVERT JUMPDEST POP PUSH1 0xD8 DUP1 PUSH1 0x1A PUSH0 CODECOPY PUSH0 RETURN INVALID PUSH1 0x80 PUSH1 0x40 MSTORE CALLVALUE DUP1 ISZERO PUSH1 0xE JUMPI PUSH0 PUSH0 REVERT JUMPDEST POP PUSH1 0x4 CALLDATASIZE LT PUSH1 0x4E JUMPI PUSH0 CALLDATALOAD PUSH1 0xE0 SHR DUP1 PUSH4 0x36FCA89 EQ PUSH1 0x52 JUMPI DUP1 PUSH4 0x10FE9AE8 EQ PUSH1 0x70 JUMPI DUP1 PUSH4 0x32A19002 EQ PUSH1 0x52 JUMPI DUP1 PUSH4 0xBEC44A46 EQ PUSH1 0x89 JUMPI DUP1 PUSH4 0xC45DB37D EQ PUSH1 0x52 JUMPI JUMPDEST PUSH0 PUSH0 REVERT JUMPDEST PUSH0 JUMPDEST PUSH1 0x40 MLOAD PUSH1 0x1 PUSH1 0x1 PUSH1 0xA0 SHL SUB SWAP1 SWAP2 AND DUP2 MSTORE PUSH1 0x20 ADD PUSH1 0x40 MLOAD DUP1 SWAP2 SUB SWAP1 RETURN JUMPDEST PUSH20 0x97D66CB700D69F3059F2AD482A49A5429F67B7F7 PUSH1 0x54 JUMP JUMPDEST PUSH20 0x71A027B89BD4FC5245CF38FAC4B02C68FD0A9018 PUSH1 0x54 JUMP INVALID LOG2 PUSH5 0x6970667358 0x22 SLT KECCAK256 DUP11 RETF CALL 0xEA SWAP12 0xD4 0xE9 MULMOD SWAP1 LOG1 NOT JUMPF 0x47B3 LOG0 0xB4 0x26 CODECOPY 0x2E PUSH12 0xB2A83CD1D8739AA2A8C90FE4 PUSH5 0x736F6C6343 STOP ADDMOD 0x1E STOP CALLER "
		},
		"gasEstimates": {
			"creation": {
				"codeDepositCost": "43200",
				"executionCost": "91",
				"totalCost": "43291"
			},
			"external": {
				"getClaimTopicsRegistryAddress()": "210",
				"getComplianceContractAddress()": "166",
				"getIdentityRegistryAddress()": "244",
				"getTokenAddress()": "200",
				"getTrustedIssuersRegistryAddress()": "254"
			}
		},
		"methodIdentifiers": {
			"getClaimTopicsRegistryAddress()": "32a19002",
			"getComplianceContractAddress()": "036fca89",
			"getIdentityRegistryAddress()": "bec44a46",
			"getTokenAddress()": "10fe9ae8",
			"getTrustedIssuersRegistryAddress()": "c45db37d"
		}
	},
	"abi": [
		{
			"inputs": [],
			"name": "getClaimTopicsRegistryAddress",
			"outputs": [
				{
					"internalType": "address",
					"name": "",
					"type": "address"
				}
			],
			"stateMutability": "pure",
			"type": "function"
		},
		{
			"inputs": [],
			"name": "getComplianceContractAddress",
			"outputs": [
				{
					"internalType": "address",
					"name": "",
					"type": "address"
				}
			],
			"stateMutability": "pure",
			"type": "function"
		},
		{
			"inputs": [],
			"name": "getIdentityRegistryAddress",
			"outputs": [
				{
					"internalType": "address",
					"name": "",
					"type": "address"
				}
			],
			"stateMutability": "pure",
			"type": "function"
		},
		{
			"inputs": [],
			"name": "getTokenAddress",
			"outputs": [
				{
					"internalType": "address",
					"name": "",
					"type": "address"
				}
			],
			"stateMutability": "pure",
			"type": "function"
		},
		{
			"inputs": [],
			"name": "getTrustedIssuersRegistryAddress",
			"outputs": [
				{
					"internalType": "address",
					"name": "",
					"type": "address"
				}
			],
			"stateMutability": "pure",
			"type": "function"
		}
	]
}